:10000000F8FF002011040000ED470000AF250000BC
:10001000ED470000ED470000ED470000ED47000010
:10002000ED470000ED470000ED470000ED47000000
:10003000ED470000ED470000AD250000B1250000B0
:1000400083250000ED470000ED470000ED4700006C
:10005000ED470000ED470000ED470000ED470000D0
:10006000ED470000ED470000ED470000ED470000C0
:10007000ED470000ED470000ED470000ED470000B0
:10008000ED470000ED470000ED470000ED470000A0
:10009000ED470000ED470000ED470000ED47000090
:1000A000ED470000ED470000ED470000ED47000080
:1000B000ED470000ED470000ED470000ED47000070
:1000C000ED470000ED470000ED470000ED47000060
:1000D000ED470000ED470000ED470000ED47000050
:1000E000ED470000ED470000ED470000ED47000040
:1000F000ED470000ED470000ED470000B32500008C
:10010000ED470000B5250000ED470000B7250000D1
:10011000ED470000ED470000ED470000B925000065
:10012000ED470000ED470000ED470000ED470000FF
:10013000ED470000ED470000132B0000152B0000D9
:10014000ED470000ED470000ED470000ED470000DF
:1001500045280000ED470000EF290000E1290000DC
:10016000ED470000ED470000ED470000ED470000BF
:10017000ED470000ED470000ED470000ED470000AF
:10018000ED470000ED470000ED470000ED4700009F
:10019000ED470000ED470000ED470000FF2900009B
:1001A0004D2A0000FD290000F5240000112B00005D
:1001B000ED470000ED470000ED470000ED4700006F
:1001C000ED470000ED470000ED470000ED4700005F
:1001D000ED470000ED470000ED470000ED4700004F
:1001E000ED470000ED470000ED470000ED4700003F
:10040000FFFFFFFFFFFFFFFFFFFFFFFFFEFFFFFFFD
:1004100062B64FF000004FF000014FF000024FF0C5
:1004200000034FF000044FF000054FF000064FF0BE
:1004300000074FF000084FF000094FF0000A4FF09E
:10044000000B4FF0000C04F09DF9FEE780B501238E
:1004500001220C21042000F071FB012301220B2159
:10046000042000F06BFB012301220A21042000F08C
:1004700065FB012301220921042000F05FFB01BD7F
:1004800010B50400FFF7E2FFDFF85406006830F40F
:100490000060DFF84C160860142000F0C5FBDFF8A0
:1004A0004006006850F40060DFF83416086014203D
:1004B00000F0BAFBCB2000F001F9392000F0DDF9A3
:1004C0002C2000F0DAF9002000F0D7F9342000F0F9
:1004D000D4F9022000F0D1F9CF2000F0EFF800208D
:1004E00000F0CBF9C12000F0C8F9302000F0C5F9C8
:1004F000E82000F0E3F8852000F0BFF9002000F0CC
:10050000BCF9782000F0B9F9EA2000F0D7F8002013
:1005100000F0B3F9002000F0B0F9ED2000F0CEF8C3
:10052000642000F0AAF9032000F0A7F9122000F0DF
:10053000A4F9812000F0A1F9F72000F0BFF82020F5
:1005400000F09BF9C02000F0B9F8232000F095F9E5
:10055000C12000F0B3F8102000F08FF9C52000F0A2
:10056000ADF83E2000F089F9282000F086F9C72078
:1005700000F0A4F8862000F080F9362000F09EF804
:10058000E4B2002C03D0E82000F077F902E0282044
:1005900000F073F93A2000F091F8552000F06DF961
:1005A000B12000F08BF8002000F067F9182000F06F
:1005B00064F9B62000F082F8082000F05EF982208D
:1005C00000F05BF9272000F058F9F22000F076F8EF
:1005D000002000F052F9262000F070F8012000F011
:1005E0004CF9E02000F06AF80F2000F046F93120C5
:1005F00000F043F92B2000F040F90C2000F03DF909
:100600000E2000F03AF9082000F037F94E2000F0F3
:1006100034F9F12000F031F9372000F02EF90720ED
:1006200000F02BF9102000F028F9032000F025F944
:100630000E2000F022F9092000F01FF9002000F040
:100640001CF9E12000F03AF8002000F016F90E2025
:1006500000F013F9142000F010F9032000F00DF958
:10066000112000F00AF9072000F007F9312000F00E
:1006700004F9C12000F001F9482000F0FEF808203C
:1006800000F0FBF80F2000F0F8F80C2000F0F5F86F
:10069000312000F0F2F8362000F0EFF80F2000F0E3
:1006A000ECF8112000F00AF8142000F0BDFA29201F
:1006B00000F004F82C2000F001F810BDDFF8201441
:1006C000096831F48051DFF818241160C0B2C10903
:1006D000C9B2DFF80C24126861F38A22DFF8001433
:1006E0000A60DFF8FC13096831F40071DFF8F023C9
:1006F0001160DFF8EC13096851F40071DFF8E023B2
:100700001160C0B28109C9B2DFF8D423126861F365
:100710008A22DFF8CC130A60DFF8C413096831F4C9
:100720000071DFF8BC231160DFF8B413096851F4DD
:100730000071DFF8AC231160C0B24109C9B2DFF823
:10074000A023126861F38A22DFF894130A60DFF8AD
:100750009013096831F40071DFF884231160DFF829
:100760008013096851F40071DFF874231160C0B27E
:100770000109C9B2DFF86823126861F38A22DFF841
:1007800060130A60DFF85813096831F40071DFF86C
:1007900050231160DFF84813096851F40071DFF845
:1007A00040231160C0B2C108C9B2DFF83423126817
:1007B00061F38A22DFF828130A60DFF8241309683E
:1007C00031F40071DFF818231160DFF814130968A1
:1007D00051F40071DFF808231160C0B28108C9B27A
:1007E000DFF8FC22126861F38A22DFF8F4120A6053
:1007F000DFF8EC12096831F40071DFF8E4221160CF
:10080000DFF8DC12096851F40071DFF8D4221160BE
:10081000C0B24108C9B2DFF8C822126861F38A2267
:10082000DFF8BC120A60DFF8B812096831F4007111
:10083000DFF8AC221160DFF8A812096851F40071EA
:10084000DFF89C221160C0B2DFF89412096860F3EF
:100850008A21DFF88C221160DFF88412096831F4F4
:100860000071DFF87C221160DFF87412096851F41E
:100870000071DFF86C2211607047DFF864120968BC
:1008800051F48051DFF858221160C0B2C109C9B2D9
:10089000DFF84C22126861F38A22DFF844120A6002
:1008A000DFF83C12096831F40071DFF8342211607E
:1008B000DFF82C12096851F40071DFF8242211606E
:1008C000C0B28109C9B2DFF81822126861F38A2226
:1008D000DFF80C120A60DFF80812096831F40071C1
:1008E000DFF8FC211160DFF8F811096851F400719C
:1008F000DFF8EC211160C0B24109C9B2DFF8E02194
:10090000126861F38A22DFF8D8110A60DFF8D0118B
:10091000096831F40071DFF8C8211160DFF8C011F7
:10092000096851F40071DFF8B8211160C0B2010903
:10093000C9B2DFF8AC21126861F38A22DFF8A01196
:100940000A60DFF89C11096831F40071DFF890212A
:100950001160DFF88C11096851F40071DFF8802113
:100960001160C0B2C108C9B2DFF87421126861F326
:100970008A22DFF86C110A60DFF86411096831F42B
:100980000071DFF85C211160DFF85411096851F43F
:100990000071DFF84C211160C0B28108C9B2DFF8E4
:1009A0004021126861F38A22DFF834110A60DFF80F
:1009B0003011096831F40071DFF824211160DFF88B
:1009C0002011096851F40071DFF814211160C0B2E0
:1009D0004108C9B2DFF80821126861F38A22DFF802
:1009E00000110A60DFF8F810096831F40071DFF8CF
:1009F000F0201160DFF8E810096851F40071DFF8A9
:100A0000E0201160C0B2DFF8D810096860F38A21D5
:100A1000DFF8CC201160DFF8C810096831F40071EC
:100A2000DFF8BC201160DFF8B810096851F40071DC
:100A3000DFF8AC201160704710B50400200AC0B286
:100A4000FFF71BFF2000C0B2FFF717FF10BDF8B57E
:100A500004000D0016001F002A20FFF72FFE200AB9
:100A6000C0B2FFF70AFF2000C0B2FFF706FF280A56
:100A7000C0B2FFF702FF2800C0B2FFF7FEFE2B2036
:100A8000FFF71CFE300AC0B2FFF7F7FE3000C0B21D
:100A9000FFF7F3FE380AC0B2FFF7EFFE3800C0B22E
:100AA000FFF7EBFE2C20FFF709FEF1BD70B5040047
:100AB000EF23002240F23F110020FFF7C8FF002083
:100AC0000500F02D0BD200200600B6F5A07F04D261
:100AD0002000FFF7B1FF761CF7E76D1CF1E770BD52
:100AE00000F10F40F8B50400EF23002240F23F115F
:100AF0000020FFF7ACFF00200500F02D1DDA0020DC
:100B00000600282E17DA00200700082F11DA282007
:100B100000FB0540305C80213941084203D00020B1
:100B2000FFF78AFF03E04FF6FF70FFF785FF7F1C9A
:100B3000EBE7761CE5E76D1CDFE7F1BD30B4374C21
:100B4000C0B254F82040C9B2D2B252F4807544F811
:100B50002150D40705D5D2B2032A02D0D2B2132A2B
:100B60000DD12F4CC0B254F82040646901258D404E
:100B7000AC432B4DC0B255F820506C612AE0284C94
:100B8000C0B254F82040646901258D402C43244DA7
:100B9000C0B255F820506C61DBB2012B0DD1204C56
:100BA000C0B254F82040246801258D402C431C4DD0
:100BB000C0B255F820502C600CE0194CC0B254F86B
:100BC0002040246801258D40AC43154DC0B255F836
:100BD00020502C6030BC704730B4C0B2420910F0D5
:100BE0001F03104C24684FF4007595402C430D4DA5
:100BF0002C6031F4E061094CD2B254F82240DBB2EF
:100C000054F8234014F4E0642143044CD2B254F865
:100C10002240DBB244F8231030BC70473004FF1F81
:100C20001C04FF1F3880044000231900814209D2B0
:100C3000054B1B681A00002A02D000BF521EFAE7BB
:100C4000491CF3E770470000D4590020E0B50123A8
:100C5000002208210220FFF771FF01230022092151
:100C60000220FFF76BFF012300220A210220FFF779
:100C700065FF012300220B210220FFF75FFF012304
:100C800000220C210220FFF759FF012300220D2131
:100C90000220FFF753FF012300220E210220FFF75D
:100CA0004DFF012300220F210220FFF747FF022002
:100CB00002904FF416500190002000903623DFF888
:100CC0003825DFF83815002000F0D2FADFF83005BB
:100CD000006840084000DFF828150860DFF82405A8
:100CE000006850F00100DFF81C150860002000F0DB
:100CF0002CFCDFF81415362000F0B8FCDFF80C15DA
:100D0000622000F0B3FC5A2000F069FC07BD80B5FA
:100D10000420DFF8FC1408705FF0FF30DFF8F414F3
:100D200008605A2000F011FCDFF8E4040078012884
:100D300015D0DFF8DC0400780228F5D10020DFF8B8
:100D4000D81408700420DFF8C81408705FF0FF3072
:100D5000DFF8C01408605A2000F0F7FBE4E7012038
:100D6000DFF8B414087001BD80B500F006F8002863
:100D7000FBD0FFF76BFF002002BD10B582B000244E
:100D800000208DF8000000F0AAFC3220FFF74CFF95
:100D90008021122000F034FE002809D1641CA4B286
:100DA000142CF5D1DFF8740401F03FF900204DE078
:100DB0003220FFF739FF0B22012100A800F044FE8A
:100DC000002805D1DFF8580401F02FF900203DE09C
:100DD0009DF80010DFF84C0401F027F9DFF8480413
:100DE0000178DFF8480401F020F99DF8000021287F
:100DF0002BD100200400DFF830040078A4B280B2C8
:100E000084421CD2DFF82804A4B210EB44004178DD
:100E1000DFF81C04A4B210F8140080B200F0F0FD5A
:100E200000280AD1DFF80804A4B210F81410DFF883
:100E3000040401F0FAF8002008E0641CDBE7DFF8A6
:100E4000F80301F0F2F8012000E0002016BDF0B434
:100E500000252A0092B2F02A25DA00252B009BB249
:100E6000282B1EDA00252C00E4B2082C17DA92B2E7
:100E70004FF4A07505FB02159BB2DE0056FA84F60E
:100E800092B2282707FB02079BB2DF5DD4F1070C63
:100E900057FA0CF717F001077755641CE4E75B1C61
:100EA000DDE7521CD6E7F0BC70472DE9F047002281
:100EB00000230024002540F23F1600275FF00008C1
:100EC0005FF0AA09CC460FFA8CFCBCF1820FC0F28D
:100ED000D1805FF09F09CE460FFA8EFEBEF1000F63
:100EE00028D44FF4A0791CFB09090FFA8EFE1EF8D6
:100EF0000990B9F1010F01D17F1C02E05FF00009F8
:100F00004F46FFB2032F12D1DFF83093D9F800908B
:100F100059F02009DFF824A3CAF800907546DFF8DD
:100F2000209389F800505FF001094B4602E0BEF1C2
:100F3000010ED1E75FF0A009CE460FFA8EFEBEF596
:100F4000A07F28DA4FF4A0791CFB09090FFA8EFE66
:100F50001EF80990B9F1010F01D17F1C02E05FF08A
:100F600000094F46FFB2032F12D1DFF8D092D9F813
:100F7000009059F00809DFF8C4A2CAF8009076463C
:100F8000DFF8C09289F800605FF001094C4602E08A
:100F90001EF1010ED1E7DBB2012B10D1E4B2012C1E
:100FA0000DD1B6B216FA85F95FF0020A99FBFAF98B
:100FB0000FFA88F841F8289018F1010851E0DBB2E7
:100FC000012B16D1E4B2002C13D1521CDFF874921D
:100FD00099F8009019FA85F959FA82F95FF0020A36
:100FE00099FBFAF90FFA88F841F8289018F10108EE
:100FF00037E0DBB2002B17D1E4B2012C14D1521C24
:10100000DFF83C9299F8009019FA86F9D2B2B9EB60
:1010100002095FF0020A99FBFAF90FFA88F841F821
:10102000289018F101081CE0DBB2002B19D1E4B2C2
:10103000002C16D1DFF8089299F800904D46DFF8A1
:10104000049299F800904E46B6B216FA85F95FF010
:10105000020A99FBFAF90FFA88F841F8289018F17A
:1010600001085FF000094D4640F23F194E46BCF1C1
:10107000010C28E7BDE8F0872DE9F04D80460026F9
:101080000025002400200700FFB2282F0DDA6E484B
:10109000FFB2385C2D18FFB258F827006A49FFB23A
:1010A000795C01FB00667F1CEEE796FBF5F004001F
:1010B000B4F1A00000284ED0B4F1A000062822DB35
:1010C000032062490870002061490870B4F1A00053
:1010D000604908606048008800F0C6FF82468B4681
:1010E000B4F1A00000F0B6FF02000B0000205B4945
:1010F00000F0C8FF52465B4601F0E8F801F0B8F98D
:101100005749088075E00120504908700020504977
:101110000870B4F1A0004F490860B4F1A0000228A3
:101120000CDA4D48008800F09FFF4E4A4E4B01F00C
:10113000CDF801F09DF94A4908805AE046480088F8
:1011400000F092FF0022494B01F0C0F801F090F945
:10115000434908804DE0D4F1A000062822DB02209C
:101160003A49087001203A490870D4F1A000394981
:1011700008603948008800F077FF82468B46D4F13A
:10118000A00000F067FF02000B000020334900F0D0
:1011900079FF52465B4601F099F801F069F9304950
:1011A000088026E00120294908700020284908709D
:1011B000B4F1A00027490860D4F1A00002280CDA9D
:1011C0002548008800F050FF264A274B01F07EF8A2
:1011D00001F04EF9224908800BE01F48008800F01A
:1011E00043FF0022214B01F071F801F041F91C4945
:1011F0000880BDE8F08D00004406FF1F91F00F400D
:101200000C800040248000400300020013000A000C
:101210009C04FF1FA0C004406804FF1F704700002B
:10122000B8470000A44600000405FF1FD846000090
:10123000A004FF1F58470000F8460000C0F00F4010
:10124000FE590020FF5900207404FF1FFB590020A5
:10125000FA5900203406FF1FF65900200000144000
:10126000F45900209A9999999999F13F0000F03F1B
:101270002DE9F44F82B006000F0098460C9CDDF873
:1012800034900E9DE4B2002C02D15FF0010B0DE012
:10129000E4B2012C02D15FF0020B07E0E4B2022CB1
:1012A00002D15FF0040B01E05FF0100BDFF86C027D
:1012B000006850F00200DFF864120860DFF8600296
:1012C000006850F00200DFF858120860DFF854029E
:1012D000F6B271010F500298F6B2710101F180412E
:1012E00011F5104108610020F6B2710101F1804151
:1012F00011F5104188805FFA8BFBF6B2700100F1A6
:10130000804010F51040A0F814B0E4B2200210F4B0
:10131000E060E4B214F007010843F6B2710101F194
:10132000804111F51041C88048464004400CF6B297
:10133000710101F1804111F51041C8824846C00594
:10134000C00DF6B2710101F1804111F51041C88361
:10135000DFF8D401006830F08000DFF8CC110860BD
:101360005FFA8BFBF6B2700100F1804010F510407F
:10137000C0F808B00020F6B2710101F1804111F50A
:101380001041C860A80602D4D9F1000000E0002096
:10139000F6B2710101F1804111F5104188610A2016
:1013A000F6B2710101F1804111F5104188835FFAB5
:1013B00088F85FEA5810313050F08000DFF86C1187
:1013C000F6B27054DFF8680100684FF400715FFAFC
:1013D00088F85FEA581291400843DFF8541108601A
:1013E00054485FFA88F85FEA681150F821005149C3
:1013F0005FFA88F85FEA681251F822104969012201
:1014000018F01F039A40914341614B485FFA88F8F6
:101410005FEA681150F821005FFA88F818F01F01A0
:10142000EDB215F00302EDB2AB09DBB253EA0242B2
:1014300052F4807240F821205FFA88F8B8F1000F6A
:1014400001D0012000E000203A495FFA88F85FEA05
:10145000681251F82210374A5FFA88F85FEA681379
:1014600052F823205269012313FA00F032EA0000F7
:1014700048612F4800684FF40071BA0912F0070262
:10148000914008432A490860E4B2002C03D0022CA2
:1014900007D003D308E00020387109E00020B880AD
:1014A00006E00020786003E07621244801F006F889
:1014B0003800103810F03F008DF800009DF8000053
:1014C0005FFA8BFB5FEACB0151FA80F08DF80100E7
:1014D0009DF8000082469DF801005FFA8AFA824575
:1014E0000ED21548B90911F0070150F821005FFA32
:1014F0008AFA4FF4817140F82A101AF1010AEAE7DA
:101500000F4800680121B14008430D490860F6B258
:10151000300000F01AF8BDE8F78F0000408004406A
:101520003C800440009000400080004000100240D9
:10153000388004401C04FF1F3004FF1F8C4500004E
:101540000C8000403D490860704738B504005C2CB1
:1015500002DB3B4800F069FD202094FBF0F0050021
:10156000002D03D0022D27D013D337E001202021F6
:1015700094FBF1F202FB11429040324908600120D5
:10158000202194FBF1F202FB114290402E490860A9
:1015900024E00120202194FBF1F202FB1142904053
:1015A0002A4908600120202194FBF1F202FB11423C
:1015B00090402749086011E00120202194FBF1F2BE
:1015C00002FB11429040234908600120202194FB36
:1015D000F1F202FB114290401F49086031BD38B55D
:1015E00004005C2C02DB1D4800F01FFD202094FB52
:1015F000F0F00500002D03D0022D15D00AD31CE019
:101600000120202194FBF1F202FB11429040144989
:10161000086012E00120202194FBF1F202FB11424C
:1016200090401049086008E00120202194FBF1F26D
:1016300002FB114290400C49086031BD08ED00E00A
:101640000C46000080E200E000E100E084E200E0FF
:1016500004E100E088E200E008E100E0D04500009D
:1016600080E100E084E100E088E100E030B4C0B255
:10167000420910F01F03104C24684FF40075954088
:101680002C430D4D2C600D4CD2B254F82240DBB2ED
:1016900051F4807544F82350094CD2B254F82240DA
:1016A000646901259D40AC43054DD2B255F82250E6
:1016B0006C6130BC70470000388004403004FF1F6C
:1016C0001C04FF1F01B4BDF80000002805D0BDF8C0
:1016D0000000401EADF80000F5E701B0704780B58E
:1016E0000023012213210220FFF728FA0023012200
:1016F00011210220FFF722FA01BD80B5BD48006824
:1017000050F40020BB490860BA48006850F400302B
:10171000B84908606420FFF7D5FFB748006830F487
:101720000020B5490860B5480068C0F3C0400028F3
:1017300007D1B148006850F40020AF49086000208C
:101740002FE0AD48006850F40020AB490860A9487C
:10175000006830F40020A74908606420FFF7B2FF5A
:10176000A548006830F40020A3490860A348006839
:10177000C0F3C040002807D09F48006850F4002004
:101780009D49086000200CE09B48006850F4002050
:10179000994908609748006830F40020954908602E
:1017A000012002BD80B59348006830F400309149B3
:1017B00008609048006830F400208E49086064207A
:1017C000FFF780FF8B48006850F4003089490860BB
:1017D0008848006850F40020864908606420FFF7BC
:1017E00071FF01BD80B58348006830F40030814945
:1017F00008606420FFF766FF7E48006830F4002030
:101800007C4908606420FFF75DFF7A48006850F467
:101810000030784908606420FFF754FF754800687D
:1018200030F40030734908606420FFF74BFF01BDBE
:1018300080B57048006830F400306E49086064205C
:10184000FFF740FF6B48006850F4002069490860CA
:101850006420FFF737FF6748006850F4003065499F
:1018600008606420FFF72EFF6248006830F4003003
:10187000604908606420FFF725FF01BD80B55D4821
:10188000006830F400305B4908606420FFF71AFFFD
:101890005848006850F40020564908606420FFF75B
:1018A00011FF5448006850F4003052490860524813
:1018B000006830F40020504908606420FFF702FF00
:1018C0004E480068C0F3C04000280DD04A48006868
:1018D00050F40020484908604648006830F4003061
:1018E0004449086000200CE04348006850F40020A0
:1018F000414908603F48006830F400303D490860C5
:10190000012002BD38B5040008252800451EC0B2DC
:10191000002825D03748006830F400303549086089
:101920006420FFF7CFFE200606D53248006850F449
:1019300000203049086005E02E48006830F400209F
:101940002C49086064006420FFF7BCFE2948006849
:1019500050F40030274908606420FFF7B3FED4E755
:101960002448006830F400302249086031BD38B5A1
:10197000082400251F48006850F400201D49086015
:101980006420FFF79FFE1C48006830F400201A49CD
:1019900008602000441EC0B200281BD06D0015480E
:1019A000006830F40030134908606420FFF78AFEB5
:1019B0001048006850F400300E4908606420FFF7BA
:1019C00081FE0E480068C0F3C0400028E1D055F009
:1019D0000105DEE70848006850F400200649086069
:1019E0000448006830F4003002490860EDB2280075
:1019F00032BD000080F00F4094F00F4090F00F4097
:101A000038B504000D00FFF778FE002801D1002052
:101A100019E04220FFF776FFFFF730FF002803D1DF
:101A2000FFF7C0FE00200EE02000C0B2FFF76AFF03
:101A3000FFF724FF2800C0B2FFF764FFFFF71EFF87
:101A4000FFF7B0FE012032BD70B504000D00160096
:101A5000FFF753FE002801D1002037E04220FFF7B6
:101A600051FFFFF70BFF002803D1FFF79BFE00207B
:101A70002CE03000C0B2FFF745FFFFF7FFFEFFF795
:101A800091FEFFF73AFE002801D100201EE043201E
:101A9000FFF738FFFFF7F2FE002803D1FFF782FEC1
:101AA000002013E0ADB2002D0DD0FFF760FF2070D5
:101AB000ADB2012D02D1FFF7BBFE01E0FFF792FEB0
:101AC000641C6D1EEEE7FFF76DFE012070BD50F83F
:101AD000041B61B150F8042BD30744BFA9F10103E3
:101AE0009A180023091F42F8043BFAD1EFE7704728
:101AF00070B504000D0016003068012802D00228DD
:101B000005D00AE02000C0B27168884705E0B068DF
:101B10000470B068401CB060FFE72868401C286073
:101B200070BD2DE9F04704005FF0000A5046A14661
:101B30005FF0000A89F800A019F10109002A1FD0FE
:101B4000D1F800A05546002D05D15FF0300A89F884
:101B500000A0401C38E0002D36D095FBF3FA564625
:101B600003FB165A5746002F02D5FF43313700E0DA
:101B70003037350089F8007019F10109401CEAE797
:101B8000D1F800A0D446BCF1000F05D15FF0300AB7
:101B900089F800A0401C17E0BCF1000F14D0BCFB7A
:101BA000F3FAD64603FB1ECAD046B8F10A0F02D29A
:101BB00018F1300801E018F13708F44689F8008080
:101BC00019F10109401CE7E7BDE8F0872DE9F04174
:101BD00004000D0016001F00A046A84507DA3A00D1
:101BE00031003020FFF784FF18F10108F5E7BDE868
:101BF000F0812DE9F04104000D0016001F00A04601
:101C0000A84507DA3A0031002020FFF771FF18F1EC
:101C10000108F5E7BDE8F0812DE9F24F92B004002C
:101C2000150000200090129883469BF80000019058
:101C30000198002800F0F5810198252813D001981B
:101C40000A2805D0220000A90198FFF751FF09E0FA
:101C5000220000A90D20FFF74BFF220000A90A2057
:101C6000FFF746FFDAE10020814600200490049847
:101C7000002822D11BF1010B9BF8000020280ED078
:101C8000232812D02B2807D02D2802D0302809D0A5
:101C90000EE059F00109EAE759F00209E7E759F0C7
:101CA0000409E4E759F00809E1E759F01009DEE713
:101CB000BBF1010B01200490D9E7002082460020EF
:101CC00004900498002814D11BF1010B9BF800002C
:101CD000019001983038092806D80A20019900FBA4
:101CE0000A10B0F1300AECE7BBF1010B01200490BF
:101CF000E7E71BF1010B9BF800002E2811D1002013
:101D00000490049800280ED11BF1010B9BF80000F1
:101D10003038092800D8F4E7BBF1010B012004900A
:101D2000EFE7BBF1010B1BF1010B9BF800004C2806
:101D300006D0682802D06C2801D002E003E002E05F
:101D400001E0BBF1010B1BF1010B9BF800000190BE
:101D50000198582875D0622800F0D580632800F0DB
:101D60001D81642813D0692811D06E2800F04A81A3
:101D70006F2800F0BD80702800F0D080732800F03C
:101D80001781752800F0D58078285AD041E128685D
:101D90002D1D06900A23012206A909A8FFF7C1FEFE
:101DA000070009A8381806000698002803D52D203A
:101DB00003907F1C0FE05FEA897003D52B2003900E
:101DC0007F1C08E05FEA497003D5202003907F1C48
:101DD00001E000200390002005905FEA097011D512
:101DE0000398002804D0220000A90398FFF780FE82
:101DF00001200590230000AA51463800FFF7E6FEB7
:101E0000574612E05FEAC9700FD4230000AA51467A
:101E10003800FFF7EEFE0398002804D0220000A946
:101E20000398FFF765FE012005900598002807D16B
:101E30000398002804D0220000A90398FFF758FE59
:101E400098E028682D1D02901023002202A909A8FD
:101E5000FFF767FE070009A8381806000020059064
:101E60005FEA097016D55FEAC9600BD5220000A9A8
:101E70003020FFF73DFE220000A97820FFF738FE52
:101E800001200590230000AA51463800FFF79EFE6E
:101E900057461BE05FEAC97018D45FEAC96000D5F5
:101EA000BF1C230000AA51463800FFF7A2FE5FEADC
:101EB000C9600BD5220000A93020FFF719FE2200CF
:101EC00000A97820FFF714FE012005905FEAC960A1
:101ED0000DD5059800280AD1220000A93020FFF76F
:101EE00007FE220000A97820FFF702FEBF1C41E098
:101EF00028682D1D02900823002202A909A8FFF7D7
:101F000010FE07001FE028682D1D0290022300220A
:101F100002A909A8FFF705FE070014E028682D1D97
:101F200002901023002202A909A8FFF7FAFD07007A
:101F300009E028682D1D02900A23002202A909A8A1
:101F4000FFF7EFFD070009A8381806005FEA0970DF
:101F500007D5230000AA51463800FFF737FE574641
:101F600008E05FEAC97005D4230000AA5146380092
:101F7000FFF73FFE3078002806D0220000A9307815
:101F8000FFF7B6FD761EF5E75FEAC97005D52300B9
:101F900000AA51463800FFF72CFE3FE028682D1DAF
:101FA000C0B20790220000A90798FFF7A1FD35E015
:101FB00028682D1D8046B8F1000F22D0404600F061
:101FC00089FA07005FEAC97005D4230000AA5146C8
:101FD0003800FFF70EFE98F80000002808D0220015
:101FE00000A998F80000FFF783FD18F10108F2E757
:101FF0005FEAC97005D5230000AA51463800FFF7F3
:10200000F8FD0BE028682D1D0890009808990860DD
:1020100004E0220000A90198FFF76AFD1BF1010B03
:1020200003E6009813B0BDE8F08F0EB47EB504004F
:10203000012000900648019007A805002A00210011
:1020400000A8FFF7E9FD060030007EBC5DF810FB3C
:10205000C9470000010040F10980F446404200F009
:1020600005F851F000416047010000BF09D0B0FA07
:1020700080F18840C91CC1F58461090501EBD021BC
:1020800040057047F0B540F2FF7581EA030C0CF093
:10209000004C15EA11541DBF15EA1357AC42AF426C
:1020A000E5E0BC41C1F31301C3F31303801A994166
:1020B00043F4801304D2641E400049418018594102
:1020C000C90241EA5051B1FBF3F603FB1611A2FB22
:1020D0000675D7EBC020A94102D2761E801859415F
:1020E000C90241EA5051B1FBF3FE03FB1E11A2FBF2
:1020F0000E75D7EBC020A94103D2AEF1010E8018B6
:102100005941890241EA9051760546EA8E2EB1FB8B
:10211000F3F603FB1611A2FB0675D7EB8020A9414D
:1021200002D2761E80185941C90241EA50514EEA46
:10213000060EB1FBF3F603FB1611A2FB0675D7EBF7
:10214000C020A94102D2761E80185941C90241EA35
:102150005051B1FBF3F703FB1711A2FB0735D3EB8B
:10216000C020A94167F100070CBF004247F00107FA
:1021700066F3D5274FEA1E31B80814F5806412DDE6
:10218000BD0775F1004250EB0E5051EB045111F5B3
:10219000801F5CBF41EA0C01F0BD4CF07F6141F053
:1021A000E0410020F0BDBD076D0840EA0E5041F44B
:1021B0008011D4F10104B4F120060ADAC4F120063A
:1021C0000200E04001FA06F3E1401843B240154333
:1021D0000EE0342C13DCC6F1200445EA40056D08FE
:1021E00020FA06F2154321FA06F0A1400D43002122
:1021F00075F1004250F1000051EB0C01F0BD0020E0
:102200005FEA0C01F0BDCFB992185B41B3FA83F7D6
:1022100004BFB2FA82F6BF190B3FB7F120062FBFF9
:1022200002FA06F3BB40C7F1200622FA06F638BFD1
:102230003343BA401CB1E419641E33E77F4231F0E6
:102240000041B1FA81F404BFB0FA80F6A4190B3C46
:10225000B4F120062FBF00FA06F1A140C4F1200618
:1022600020FA06F638BF3143A0403C1B1AE7AC42C7
:102270001ABF05EA1357AF4212E050EA41061CBFED
:1022800052EA4306BFE750EA4107304661461CBFA9
:1022900041EA0551F0BD52EA430C08BFC143F0BD0D
:1022A00000204FF4001616EB410F98BF16EB430FBA
:1022B00008BF16EB410F24BFC14305E016EB430FE7
:1022C0000CBF61464CEA0551F0BD0000B0B581EA93
:1022D000030C0CF0004C40F2FF7515EA11541DBFC1
:1022E00015EA1357AC42AF4239E0E41923EA4553EB
:1022F00043F48013C90241F0004141EA505EC70235
:102300001100A7FB020200284FF00000EEFB0120A5
:102310004FF00001E3FB072118BF42F00102401813
:1023200000214941E3FB0E01A4F580640F0302D2B2
:1023300052004041494154F101046CDD470872F1FB
:10234000004250F1000051EB0451A1F580115CBF37
:1023500041EA0C01B0BD4CEA05510020B0BD05EAD0
:102360001357AC4214BFAF4241E050EA410E1CBFCC
:1023700052EA430E02E061460020B0BD24423C44D4
:102380001BD15FEA070EF6D0090302BF0146002009
:10239000AEF1140EB1FA81F7AEEB070401FA07FEB5
:1023A0000C37C7F1200100FA07F7C8404EEA000ECB
:1023B00023EA455343F48013A2E733F00043B3FA12
:1023C00083F704BFB2FA82FE77440B3FE41BB7F1F8
:1023D000200E2FBF02FA0EF3BB40C7F1200E22FAE7
:1023E0000EFE38BF43EA0E03BA40641C82E750EA8F
:1023F000410E14BF52EA430E6FF000014FF4001774
:1024000017EB430F8ABF194617EB410FB5E74CEAAC
:1024100005510020B0BDD4F10104B4F120070FDA5A
:10242000C4F12007520828BF42F0010210FA07F554
:1024300001FA07F7E1BF2A43E0403843E1400FE0EB
:10244000352C98DCC7F1200452EA400220FA07F24A
:1024500018BF42F0010231FA07F0A1400A430021FF
:1024600072F1004250F1000051EB0C01B0BD0000D0
:10247000F446400D40EAC120490006D200F00EF8B3
:10248000004248BF6FF00040604700F007F84FF08F
:10249000004188428CBF08464042604740F00040FF
:1024A000490DA1F58061491C05D4D1F11F0154BF2C
:1024B000C840C01770474FF00000704738B504009F
:1024C0000D002A0021000248FFF7AFFDF9E700BF29
:1024D0004045000001000A000023002A01D100202D
:1024E00007E01000421C0078002801D05B1CF8E7D0
:1024F00018007047E0B5DFF87C050068DFF8781554
:102500000860DFF874050068DFF8681508600020CF
:10251000DFF868150870DFF868050078042823D113
:10252000022002904FF416500190002000903623B4
:10253000DFF85025DFF850150020FEF799FEDFF890
:102540004405DFF848150860DFF84405006850F0DE
:102550000100DFF83C1508605A20FFF740F803201F
:10256000DFF81C1508700BE00420DFF81415087064
:102570005FF0FF30DFF8FC1408605A20FEF7E5FF3B
:1025800007BDDFF80C05006840084000DFF80015C3
:102590000860DFF80005006850F00100DFF8F4146F
:1025A00008600120DFF8D814087070477047704742
:1025B00070477047704770472DE9F04184B00024A0
:1025C0000025002700A80021002200230EC00C389F
:1025D00072B600A9052000F0B7FB9DF80000804608
:1025E0005FFA88F84046312800F0C080322800F0B9
:1025F000C580332800F0CA80342800F0CF806128DD
:1026000000F09F80622800F08F80642867D06928DE
:1026100040D06D2804D0702817D0732812D0C5E0A0
:1026200000200400DFF870040068C0F3C00090F0E0
:102630000100DFF86414096860F3C301DFF858048F
:102640000160CCE001200400C9E000200600F6B2E1
:10265000EDB2AE420DD2A81B411EC9B20A2000F055
:102660003FFCDFF83814F6B2715C00FB0177761C92
:10267000EDE7E4B2002C06D1DFF824040760DFF8B0
:102680002404076005E0E4B2012C02D1DFF818044D
:102690000760A4E000200600F6B2EDB2AE420DD213
:1026A000A81B411EC9B20A2000F01AFCDFF8EC1387
:1026B000F6B2715C00FB0177761CEDE7E4B2002C0A
:1026C00006D1DFF8DC034760DFF8D803476005E098
:1026D000E4B2012C02D1DFF8D00347607FE0002094
:1026E0000600F6B2EDB2AE420DD2A81B411EC9B231
:1026F0000A2000F0F5FBDFF8A413F6B2715C00FBD2
:102700000177761CEDE7E4B2002C06D1DFF89003E8
:102710008760DFF89003876005E0E4B2012C02D106
:10272000DFF8840387605AE0DFF880030068DFF891
:1027300080130860DFF87C030068DFF87C13086012
:102740004DE0DFF86C030068DFF860130860DFF825
:1027500068030068DFF85C1308600020DFF850139E
:1027600008600020DFF85013086038E0DFF840030D
:1027700000686430DFF83813086030E0DFF83003B9
:1027800000686438DFF82813086028E0DFF82803C1
:1027900000686430DFF82013086020E0DFF81803D9
:1027A00000686438DFF81013086018E05FFA88F8F2
:1027B000B8F1300F13DB5FFA88F8B8F13A0F0EDA90
:1027C00000200600F6B2EDB2AE4208D200A8F6B282
:1027D000305C3038B149F6B27054761CF2E7E4B29E
:1027E000002C03D1B548FFF720FC05E0E4B2012C32
:1027F00002D1B348FFF719FCB248FFF716FC0020DE
:102800000600F6B2EDB2AE420AD2A448F6B2305C8F
:1028100010F13001C9B2052000F0ADFA761CF0E7E6
:1028200089A0FFF702FC9C480068C0F3401090F0BC
:1028300001009949096860F345119748016062B643
:10284000BDE8FF8180B5A0480068401C9E49086033
:102850009E480078401C9D4908709D480078401CA7
:102860009B49087099480078052802DB00209749A9
:10287000087097480078142802DB002094490870FB
:1028800094480078102804DA92480078401E914954
:1028900008709048007800281CD18F480068C0F369
:1028A0004000002803D101208C49087012E08C48B8
:1028B0000068C0F34040002803D102208749087017
:1028C00008E087480068C0F3C030002802D1032028
:1028D000824908707E480078032877D1814800F04B
:1028E000A5FB814800F0C7FB7E48B0F9020000F06C
:1028F00011FC6B49C8626A4800F023FC6848406AD2
:10290000002814D57948006850F4005077490860D1
:102910006348406A4042764908604FF6FF70744948
:102920000968421A0421002000F028FE0FE06F48D9
:10293000006830F400506D4908605948406A6C499D
:1029400008606B4802680421002000F017FE66480A
:10295000B0F9020000F0DEFB5249C862514800F0B5
:10296000F0FB5048406A002814D56048006850F4D5
:1029700080505E4908604B48406A40425D490860AB
:102980004FF6FF705B490968421A0321002000F0EE
:10299000F5FD0FE05548006830F480505349086059
:1029A0004048406A534908605248026803210020A9
:1029B00000F0E4FD50480078401E4F4908704E4832
:1029C0000078002802D132204B4908703E48006848
:1029D0000A204A48006850F001004849086001BDDB
:1029E0004748006850F00100454908607047454875
:1029F000006850F0010043490860704770470020AC
:102A00001121080040490968C140C90709D50F21B3
:102A1000304A11703C4909680122824011433A4A08
:102A200011600F21080038490968C140C90709D55C
:102A30000F21284A1170344909680122824011434C
:102A4000314A1160704700000D0A0000002001218A
:102A500008002E490968C140C90709D50F211D4A40
:102A600011702A490968012282401143274A1160E6
:102A700070470000A0C004407005FF1F6804FF1FDE
:102A80009C04FF1F4406FF1F91F00F401090004070
:102A90000C80004024800040C0F00F407405FF1FF0
:102AA0008C05FF1FC405FF1FFC05FF1F6004FF1FEF
:102AB0004404FF1F6404FF1F4804FF1F98470000E1
:102AC000A8470000E44700003806FF1FF95900201E
:102AD000F85900204C04FF1F50F00F40FD59002012
:102AE00010F00F407C05FF1F8005FF1F00F00F4016
:102AF0008405FF1F8805FF1F6904FF1F0C71034039
:102B00003C7103402C710340A0900440A0A00440FD
:102B10007047704770470000F0B4C0B2002808D07A
:102B200002282CD018D304284FD03BD305285FD0DF
:102B300071E04FF44076DFF850733E604FF440761A
:102B4000DFF848733E60DFF84863366856F4806605
:102B5000DFF83C733E605EE04FF44076DFF834739C
:102B60003E604FF44076DFF830733E60DFF820635C
:102B7000366856F40066DFF818733E604BE04FF499
:102B80004076DFF818733E604FF44076DFF810733C
:102B90003E60DFF8FC62366856F48056DFF8F0726B
:102BA0003E6038E04FF44076DFF8F8723E604FF454
:102BB0004076DFF8F4723E60DFF8D462366856F48F
:102BC0000056DFF8CC723E6025E04FF44076DFF827
:102BD000DC723E604FF44076DFF8D4723E60DFF87E
:102BE000D462366856F48066DFF8C8723E6012E040
:102BF0004FF44076DFF8C0723E604FF44076DFF865
:102C0000BC723E60DFF8AC62366856F40066DFF8EE
:102C1000A4723E60FFE7DFF8A862C0B256F82060F9
:102C2000F67816F0F306DFF89872C0B257F8207005
:102C3000FE700026DFF88872C0B257F82070BE70B0
:102C4000C0B2002801D1012600E00026C0B2012850
:102C500001D1012700E00027F6B2FFB23E43002E6B
:102C600007D0DFF8606236684FF47A777E4335002C
:102C700006E0DFF8546236684FF47A777E43350019
:102C80000E01B5FBF6F63200DFF83462C0B256F83A
:102C90002060367816F0E006340092B2160A16F07C
:102CA0001F062643DFF81872C0B257F820703E7036
:102CB000DFF80C62C0B256F8206072706E010F012E
:102CC000B6FBF7F692B2B6EB42163300DFF8F061CE
:102CD000C0B256F82060B67A16F0E006340013F061
:102CE0001F062643DFF8D871C0B257F82070BE72B5
:102CF000DFF8CC61C0B256F82060F67856F00C06CA
:102D0000DFF8BC71C0B257F82070FE70F0BC70479D
:102D1000020000235B1C7FF07F40834210D2DFF86B
:102D2000A001D2B250F8220000798006F2D5DFF877
:102D30009001D2B250F82200C0790870012002E060
:102D4000002008700020704770B504000D000026B8
:102D500071192000C0B2FFF7DBFF761CC0B200285B
:102D600002D028786128F3D1022E01D2002000E0A1
:102D70000120C0B270BDDFF84821C0B252F8202057
:102D800012791206F7D5DFF83821C0B252F82020A8
:102D9000D17170472DE9F047040000255FF000086D
:102DA0004A4840884D490880494800684B49488056
:102DB00000204A49888000204849C880454840880A
:102DC00046490881444800684449488100204349F5
:102DD000888100204149C8810020404908820020A4
:102DE0003E49488200203D49888200203B49C882F4
:102DF00053212000C0B2FFF7BEFF54212000C0B213
:102E0000FFF7B9FF5FF00009B9F1030F2CDA5FF0AB
:102E1000000ABAF1040F24DA304810EBC90030F888
:102E20001A0007002D4810EBC90030F81A0080B2D4
:102E3000000A06003900C9B22000C0B2FFF79BFFAC
:102E40003100C9B22000C0B2FFF795FF55FA87F5EF
:102E500055FA86F597EA080896EA08081AF1010A71
:102E6000D7E719F10109CFE72900C9B22000C0B2A4
:102E7000FFF781FF4146C9B22000C0B2FFF77BFFD8
:102E8000BDE8F0870000000040A0044044A00440DA
:102E9000348004400CB0044010B004400CC0044026
:102EA00008C0044014D0044010D0044064D0044052
:102EB00060D004402880044020C0044024C0044066
:102EC0000805FF1FCC590020D45900207C05FF1FA6
:102ED0004404FF1F8005FF1F4804FF1FD85900202E
:102EE00010B40200012000242300DBB2C9B28B42DF
:102EF00002D250435B1CF8E710BC70474FF4C0602F
:102F0000704908604FF4C0606F4908606F480068FE
:102F100050F080706D49086000206D49086042F2F1
:102F200010706C49086000206B49086000206849F7
:102F300008606A48006850F0040068490860674803
:102F4000006850F00100654908606548006850F06D
:102F50000100634908606348006850F0C00061499F
:102F6000086061480068604908605F48006850F088
:102F700040005D4908605C4800685B48006830F0CC
:102F80008000594908605848006850F008005649C8
:102F9000086070474FF4C060544908604FF4C06047
:102FA000534908605348006850F000705149086068
:102FB00000205149086042F210705049086000201A
:102FC0004F49086000204C4908604E48006850F0A6
:102FD00004004C4908604B48006850F00100494922
:102FE00008604948006850F00100474908604748B8
:102FF000006850F0C00045490860454800684449F1
:1030000008604348006850F040004149086040486B
:1030100000683F48006830F080003D4908603C4847
:10302000006850F008003A49086070472C49096868
:1030300011F004010170017800290FD142F21071E2
:10304000234A1268891A42F2283291420FD220494B
:10305000096842F21072891A418008E01C49096827
:1030600042F22832914202D2194909684180002176
:10307000174A116070472449096811F00401017072
:10308000017800290FD142F210711B4A1268891A87
:1030900042F22832914210D242F21071164A12685E
:1030A000891A418009E01449096842F228329142A4
:1030B00003D2114909684942418000210E4A11603A
:1030C00070470000289004402C9004403080044059
:1030D00004800B4008800B404C800B4054800B4018
:1030E00080800B4084800B4000800B402090044087
:1030F000249004403C800440049003400890034026
:103100004C900340549003408090034084900340CF
:1031100000900340002840F10780F446404200F050
:1031200003F850F0004060470AD0B0FA80F18840C0
:10313000D1F19D01C905020672F1004241EB102058
:10314000704738B50400A06AE16A00F055FAE06003
:10315000E068216900F050FAE06121695FF0804089
:1031600000F0BEFA0100E06800F046FA616900F084
:1031700023FB206220696061E06820616068FFF7DE
:10318000C9FFE16800F0ACFA05002068FFF7C2FF54
:10319000E16900F0A5FA290000F00EFB0500A06827
:1031A000FFF7B8FF216A00F09BFA290000F004FB4A
:1031B000A061606AFFF7AEFFA16900F0FDFA00F0C0
:1031C0003DFB6062606AFFF7A5FF0100206B00F025
:1031D00057FB04D2206B00F031FB60620AE0606AAA
:1031E000FFF798FF616B00F04BFB03D2606B00F0C0
:1031F00025FB606231BDF0B4049C059D069E079FCF
:103200000160426083605FF0000CC0F814C0C0F839
:1032100010C0C0F80CC05FF0000CC0F818C05FF020
:10322000000CC0F81CC05FF0000CC0F820C0446265
:1032300085625FF0000CC0F82CC006634763F0BCE9
:1032400070470000F0B5DFF86C4324684FF47A75DE
:103250006C4364085FEA144CBCFBF2FC65465FF00B
:10326000000C6746ADB255FA07FCBCF1010F01DB5B
:103270007F1CF7E7B2F57A7F00D27F1C34FA07FC97
:10328000BCFBF2FC6546ADB215F1010C0CFB03FC76
:103290004FF6FF7EBCFBFEFC6646C0B2002805D0A0
:1032A000022800F0DA80C0F0A4800AE1DFF808C349
:1032B000DCF800C05CF0807CDFF8FCE2CEF800C0F7
:1032C000C9B200290BD002292BD019D304294AD026
:1032D00038D3062969D057D3072977D087E0DFF89C
:1032E000DCC2DCF800C05CF4006CDFF8D0E2CEF8A1
:1032F00000C04FF4806CDFF8C8E2CEF800C077E081
:10330000DFF8B8C2DCF800C05CF4007CDFF8ACE2A7
:10331000CEF800C04FF4407CDFF8A8E2CEF800C041
:1033200066E0DFF898C2DCF800C05CF4007CDFF8EF
:103330008CE2CEF800C04FF4407CDFF88CE2CEF88F
:1033400000C055E0DFF874C2DCF800C05CF4007C1B
:10335000DFF868E2CEF800C04FF4407CDFF86CE2A2
:10336000CEF800C044E0DFF854C2DCF800C05CF4E2
:10337000007CDFF848E2CEF800C04FF4407CDFF874
:1033800050E2CEF800C033E0DFF830C2DCF800C015
:103390005CF4805CDFF824E2CEF800C04FF4806C6F
:1033A000DFF830E2CEF800C022E0DFF810C2DCF82F
:1033B00000C05CF4805CDFF804E2CEF800C04FF49B
:1033C000806CDFF814E2CEF800C011E0DFF8ECC149
:1033D000DCF800C05CF4805CDFF8E0E1CEF800C00F
:1033E0004FF4806CDFF8F4E1CEF800C000E0C4E0F8
:1033F00067E0DFF8C4C1DCF800C05CF0007CDFF8F7
:10340000B8E1CEF800C0C9B2002902D0012911D01C
:1034100021E0DFF8A8C1DCF800C05CF4007CDFF834
:103420009CE1CEF800C04FF4407CDFF8B4E1CEF868
:1034300000C011E0DFF884C1DCF800C05CF4007C5F
:10344000DFF878E1CEF800C04FF4407CDFF894E17B
:10345000CEF800C000E090E033E0DFF88CC1DCF88B
:1034600000C05CF0807CDFF880E1CEF800C0C9B21B
:10347000002902D0012911D021E0DFF840C1DCF899
:1034800000C05CF4007CDFF834E1CEF800C04FF4FB
:10349000407CDFF858E1CEF800C011E0DFF81CC135
:1034A000DCF800C05CF4007CDFF810E1CEF800C06E
:1034B0004FF4407CDFF838E1CEF800C000E05CE07B
:1034C000FFE7DFF830C1C0B25CF820C0C9B21CEB26
:1034D000C10CDFF820E1C0B25EF820E0C9B21EEBFB
:1034E000C10EDEF80CE03EF0040ECCF80CE0DFF884
:1034F00004C1C0B25CF820C0C9B21CEBC10C5FF0C3
:10350000280ECCF80CE0FFB217F0070C5CF0280C8A
:10351000DFF8E0E0C0B25EF820E0CEF800C05FF077
:10352000000CDFF8D0E0C0B25EF820E0CEF84CC06E
:10353000ADB2DFF8C0C0C0B25CF820C0CCF8085013
:103540005FF0000CDFF8ACE0C0B25EF820E0CEF82F
:103550004CC0DFF8A0C0C0B25CF820C0C9B21CEB00
:10356000C10CB6B2CCF810605FF0000CDFF884E05C
:10357000C0B25EF820E0CEF804C0F0BD70B4DFF851
:103580007450C0B255F82050AD682C00651C05FB86
:1035900002F54FF6FF76B5FBF6F52B00DFF8545039
:1035A000C0B255F82050C9B215EBC1052B6170BCF3
:1035B00070470000D45900203C800440388004400B
:1035C00004B004401090044014900440189004404B
:1035D0001C90044014C0044018C004401CC00440A7
:1035E00020900440249004403080044028900440FF
:1035F0002C9004401004FF1F90EA010F44BF81F09B
:10360000004100F0E1B800BF431A4FF000423EBF56
:103610005340C01AC91800BFD3095FEAD05C13EB4E
:10362000400F34BFB3EB410F40E07CEBD1530CD3E0
:1036300042EA012122D8D1EB402009D3400A28BF19
:103640005FEA500140EBCC507047401A15D0400261
:10365000B0FA80F2521C9040400A4FEA3C23B3EB90
:10366000026384BF00EB730007E040F400001A1609
:10367000DB07C2F10102D04018437047182BFCDC75
:1036800031FA03F202FA03F3591A38BF42F0010289
:10369000D2EB40203CBF4000ACF1010C5FEACC5CB7
:1036A000C20572F100414CEB5020704713EB400F04
:1036B0000FD24B0009D0ACEBD153022B03DB4902F4
:1036C000172BDDDD70479143401A4300D5D1002010
:1036D000704713EB410FD0D36FF00000704700002C
:1036E000FF2212EAD05C1DBF12EAD15394459342E7
:1036F0002BE09C44D30780EA01021A4043EA0020F1
:1037000043EA0121A1FB0030410038BF40007CF1B9
:103710007F010BDBFE294ADA5B0842EAC15153EA1A
:10372000006373F1004C51EB10207047D1F1080C8D
:10373000DCF120012FDB5B0810FA01F10B4373F180
:10374000004120FA0CF05041704794451CBF02EA3A
:10375000D153934280EA010202F000421DD04000A2
:1037600019D0490017D05BB9634514D00902B1FAEA
:1037700081F39940BCEB030CC00140F00040C1E76D
:103780000002B0FA80FC10FA0CF0B3EB0C0CC9018B
:1037900041F00041B6E71000704740000AD04900F0
:1037A00008D010F1807F94BF11F1807F02E042F0D9
:1037B000FF407047D043704790EA010F44BF81F04B
:1037C0000041FFF721BF00BF421A3CBF801A891891
:1037D0004FF0004CC0F3C752FF2A24D0C1F3C753A7
:1037E00013B3D21AD2F1190327DD4CEA01214CFAA6
:1037F00003F321EA0303D140C20D4CEA0020401834
:1038000034BF20EA0C004CEA5000D20553EA0063B2
:1038100073EB0C0C52EB1020420012F1807F38BF8A
:103820007047C00DC0057047490212BF9A4200EBB5
:103830005120F8E7D2F11703D9D570474100090E9E
:103840007F3915D4D1F11F0114D4400007D2C00133
:1038500040F00040C84048BF6FF000407047C001D2
:1038600040F00040C8404CBF4FF00040404270471D
:103870000020704700424FF0004058BFC0437047DF
:103880004FF0807C1CEB400F94BF1CEB410F05E018
:1038900040EA010C5FEA4C0C01D28842704718BF25
:1038A00081427047DFF800F02105FF1F38B50400A2
:1038B000E4B2002C00F00681E4B2200030281ED0D3
:1038C000322823D0602828D064282DD06E2832D00A
:1038D000782837D07D283CD0822841D08C2846D00B
:1038E00096284BD0A02850D0AA2855D0B4285AD01A
:1038F000C8285FD0E12864D0FA2869D06FE00B2097
:103900009F49087000209E4948706CE00B209C493C
:10391000087001209A49487065E00B2098490870AA
:103920001820974948705EE00B20954908701A20CE
:103930009349487057E00B20914908701F20904927
:10394000487050E013208E49087018208C49487048
:1039500049E013208A4908701A208949487042E0DA
:103960001320874908701C20854948703BE00E20D1
:103970008349087012208249487034E00E20804943
:10398000087015207E4948702DE00E207C49087093
:1039900018207B49487026E00E20794908701B20CA
:1039A000774948701FE00E20754908701E20744941
:1039B000487018E00520724908701A207049487054
:1039C00011E00B206E4908701E206D4948700AE016
:1039D0000A206B4908701F206949487003E0642081
:1039E000FFF764FFCAE0002065498870E4B2332C19
:1039F00003DA00206249C87017E0E4B2652C03DAEC
:103A000001205F49C87010E0E4B2972C03DA02206D
:103A10005B49C87009E0E4B2C92C03DA03205849B5
:103A2000C87002E00F205649C8705548C078544904
:103A30000871E4B21A2C03DA00205149487141E0C0
:103A4000E4B2332C03DA01204D4948713AE0E4B284
:103A50004C2C03DA02204A49487133E0E4B2652C69
:103A600003DA0320464948712CE0E4B27E2C03DAE5
:103A700004204349487125E0E4B2972C03DA05207D
:103A80003F4948711EE0E4B2B02C03DA06203C49FD
:103A9000487117E0E4B2C92C03DA072038494871AD
:103AA00010E0E4B2E22C03DA08203549487109E05D
:103AB000E4B2FB2C03DA09203149487102E00F20FF
:103AC0002F4948712E484078183080B21821484359
:103AD0002B490978491C89B290FBF1F005000020C0
:103AE000284908702848006850F08050264908602E
:103AF0002648007850F08000244908709820244916
:103B0000087024480078C006FBD422480078C0F32F
:103B10008100C0B20228F8D11948007810F01F00C7
:103B20001D49087000201D49087015484379144844
:103B300002791348C17812488078FFF7B3FE104825
:103B4000407810F01F0050F04000144908701148F0
:103B500000788006FBD50F4800784006FBD50C485E
:103B6000007810F03F000A4908700A480078C0F356
:103B70008100C0B20328F8D12800C0B232BD00BF16
:103B80006C04FF1F014006403480044008C0074019
:103B900000400640064006400440064005400640FE
:103BA000C0B2002803D0012800F08080EBE0DFF8ED
:103BB000D821126852F00062DFF8CC311A60DFF8C9
:103BC000CC21126832F09002DFF8C0311A60002276
:103BD000DFF8B8311A60C9B20A00083A012A0CD9D4
:103BE000921E012A1BD9921E012A2AD9921E012A4D
:103BF00039D9D21E012A48D956E0DFF8942112683B
:103C000052F48062DFF888311A600022C9B28B005A
:103C100003F1804313F5942343F8202C45E0DFF8AB
:103C20007021126852F40072DFF864311A600022C9
:103C3000C9B28B0003F1804313F5922343F80C2C97
:103C400033E0DFF84C21126852F48062DFF8403133
:103C50001A600022C9B28B0003F1804313F594234C
:103C600043F8282C21E0DFF82821126852F4006282
:103C7000DFF81C311A600022C9B28B0003F18043C7
:103C800013F5962343F8382C0FE0414A126852F49A
:103C900000523F4B1A600022C9B28B0003F18043EF
:103CA00013F59A23DA6100E06DE06CE0394A12689E
:103CB00052F00062374B1A60344A126832F41042F4
:103CC000324B1A600022314B1A60C9B20A00121F2F
:103CD000032A0BD9121F012A18D9921E032A25D9AB
:103CE000121F012A32D9D21E40D04BE0284A126856
:103CF00052F40052264B1A600022C9B28B0003F125
:103D0000804313F59A2343F8102C3BE0204A1268B5
:103D100052F480621E4B1A600022C9B28B0003F17C
:103D2000804313F5942343F8202C2BE0184A1268A3
:103D300052F48062164B1A600022C9B28B0003F164
:103D4000804313F5942343F8182C1BE0104A1268A3
:103D500052F480620E4B1A600022C9B28B0003F14C
:103D6000804313F5942343F8182C0BE0084A12689B
:103D700052F40072064B1A600022074BC9B243F896
:103D80002120FFE7FFE770473C8004401880044093
:103D900038800440308004400090044080B50E21FB
:103DA0000120FFF7FDFE0C210120FFF7F9FE0B219A
:103DB0000120FFF7F5FE0D210020FFF7F1FE0F2196
:103DC0000120FFF7EDFE0D210120FFF7E9FE0A219A
:103DD0000120FFF7E5FE0C210020FFF7E1FE01BD09
:103DE00000B585B072B600F099F83D480168002032
:103DF00000F0B2F800F0E8F800F05FF8FFF7CEFF4F
:103E0000FFF77CF8FFF7C6F800F05EF900F06AF9FA
:103E100000F077F900F084F90020FCF731FB4FF651
:103E2000FF70FCF743FE2F4803902F4802902F4865
:103E300001904CF25030009000235022C8212C48B1
:103E4000FFF7D9F9274803902748029027480190A7
:103E500049F64040009000235022C8212548FFF732
:103E6000CAF9254803905FF07E500290002001902F
:103E7000002000900123002201212048FFF7BBF918
:103E80005FF4E1310520FEF747FE1D484069C07828
:103E900050F020001A494969C8703720FDF755FBDA
:103EA0004FF47840174908804FF6FF701649088094
:103EB000FCF75AFF62B605B000BD80B500F0BEF851
:103EC0001249087011480078002808D13C20104998
:103ED00008603C200F4908603C200F49088001BD64
:103EE000D459002000FF7FC700FF7F4700004842F1
:103EF0008C05FF1FC405FF1F000080BFFC05FF1FCE
:103F00000805FF1FF0590020F2590020FC5900203D
:103F10004404FF1F4804FF1FF659002080B500230A
:103F2000012206210320FCF709FE00F001F801BD83
:103F300080B50848006850F04000064908600A2033
:103F4000FCF772FE0348006830F040000149086049
:103F500001BD0000C0F00F4038B504000D00174847
:103F6000006850F400001549086015480068800892
:103F70008000134908601348E4B221010D50114834
:103F8000E4B210EB0410C06850F001000D49E4B237
:103F900011EB0411C8600B48E4B210EB0410806808
:103FA00050F003000749E4B211EB04118860E4B259
:103FB00014F14400FDF7C9FA31BD00003C80044013
:103FC000007003400071034080B5002300220021EF
:103FD0000120FCF7B3FD002300221D210020FCF787
:103FE000ADFD002300221C210020FCF7A7FD0023CB
:103FF00000221B210020FCF7A1FD002300221A2132
:104000000020FCF79BFD0023002219210020FCF773
:1040100095FD03211920FCF7DFFD00230022182164
:104020000020FCF78BFD03211820FCF7D5FD0023B1
:10403000002213210020FCF781FD01BD0020204A51
:10404000126812F00102110008431E4A1268520F52
:1040500012F00102110050EA41001A4A1268120FD0
:1040600012F00102110050EA8100164A1268D20EC5
:1040700012F00102110050EAC100124A1268920EB9
:1040800012F00102110050EA01100E4A1268520E9D
:1040900012F00102110050EA41100A4A1268120E91
:1040A00012F00102110050EA8110064A1268D20C87
:1040B00012F00102110050EAC110C0B270470000B6
:1040C00050F00F4010F00F4080B501230122052170
:1040D0000320FCF733FD0123012203210320FCF719
:1040E0002DFD01BD80B5012301220D210020FCF72B
:1040F00025FD002342F2107204210020FFF7A2F8F0
:1041000001BD80B5012301220C210020FCF716FD22
:10411000002342F2107203210020FFF793F801BD43
:1041200080B58A220121012000F00CF88A22112199
:10413000002000F007F88A220F21002000F002F88A
:1041400001BD000070B504000D00160015480068A0
:104150004FF40071A1400843124908601248E4B2CC
:1041600050F82400EDB2F6B2310411F47021F6B229
:10417000F209D2B2114351F4817140F825100B4875
:10418000E4B250F8240040690121A940884307495E
:10419000E4B251F824104861E4B214F15700FDF77D
:1041A000D4F970BD388004403004FF1F1C04FF1F89
:1041B00080B5FFF715FE00203349088033480068BA
:1041C0003349086033480068314948603248006824
:1041D0002F498860314800683149086031480068DB
:1041E0002F494860304800682D4988602F48006892
:1041F000FEF790FF264988622D480068FEF78AFF87
:1042000027498862214800682149086021480068E0
:104210001F494860204800681D4988601F480068A1
:104220001F4908601F4800681D4948601E48006813
:104230001B4988601F480078012815D100201D49BE
:1042400008701D48FCF74EFC1C491B48FCF7FFFD9D
:104250001948FCF747FC1A491848FCF726FE18488D
:10426000FCF70AFFFCF753FD10480068FEF752FF09
:10427000074988620E480068FEF74CFF08498862CB
:104280000520FEF787FDBDE7F05900205004FF1F11
:104290008C05FF1F5404FF1F3C06FF1F5804FF1F1F
:1042A000C405FF1F5C04FF1F4006FF1F4404FF1FDF
:1042B0004804FF1F6804FF1F4406FF1FEC2BFF1F6D
:1042C0002C590020008003400090034000800B40E8
:1042D00000F00F4040F00F4080F00F40C0F00F4062
:1042E00000F10F400090044000A0044000B00440E2
:1042F00000C0044000D00440C8000000C800000016
:10430000FF000000C900000021000000C9000000FB
:104310001F000000320000003200000001320000E7
:104320000B1F000101030000010101010101010156
:104330000101010101020202020202020202020262
:104340000202020203030303030303030302020145
:10435000010000000DC1110009030CD01240173FED
:10436000185019031A783200A00A63E0ACFF650CFC
:104370006600670029502C782A007E0C7F16802A60
:10438000814E8261836F847B8586868E879788A421
:1043900089AF8AC58BD78CE88D204A00491347081E
:1043A0004B144C17460522992303A6049B009C50EE
:1043B000AB069E119F0200003100000000A00640E5
:1043C00000B0064000C0064000D0064000A00E40ED
:1043D00000B00E402DE9F8432448254988420DD00D
:1043E00000208046B8F5826F08D2214850F8280096
:1043F0001E4941F8280018F10108F3E71B48FDF7B2
:10440000A1F81C4807001C4806001C480400A01B1B
:1044100080464046B0F10108002804D0307838705A
:10442000761C7F1CF5E71648814616480500B5EB5B
:10443000090080464046B0F10108002805D0002060
:1044400089F8000019F10109F4E70F480F49104AF3
:10445000531A98464346B3F10108002B04D00B7859
:104460000370491C401CF5E7BDE8F1830000FF1F05
:10447000000000001004FF1FC4420000D4430000ED
:104480007005FF1F005A00202005FF1FF0440000A8
:104490004045000080B51148006850F478500F493D
:1044A00008606420FFF702FA0D4908600C480068B4
:1044B0004FF47A7148430B4908600A4800680A497A
:1044C0000968C1F30361491CB0FBF1F007490860BA
:1044D0004FF416510520FEF71FFB01BD3880044044
:1044E000D0590020CC59002044800440D4590020E9
:1044F000F0B4114E366834000F4E366856F47F061D
:104500000D4F3E600E0616F0706656EA00761705EF
:1045100017F470073E431F0417F470273E43074FFC
:104520003E6000263500EDB29D4201D26D1CFAE7D7
:10453000014E3460F0BC704700F0014044800440FC
:10454000B6CFD1D4B7A2C9FAD4DA2573CEC4BCFE93
:10455000B5C4B5DA2564D0D0A3A10AB6CFD1D4CCE6
:10456000F5BCFEB2BBB3C9C1A2A3ACC7EBBCECB2F5
:10457000E2B4EDCEF3D4ADD2F2A1A309A1AAA1AACF
:1045800020627920D2B0BBF00A0A0000453A5CCE26
:10459000D2B5C4CEC4BCFE5CD6C7C4DCB3B5CEC4F1
:1045A000BCFE5CB3B52031322031355CB3B5C4A359
:1045B000B0E55CB3B5C4A3B0E55C7372635C6472D0
:1045C00069766572735C646D615C646D612E630015
:1045D0000A4552522120496E76616C696420495225
:1045E000512076616C756520706173736564207409
:1045F0006F2064697361626C6520697271206675F1
:104600006E6374696F6E210A000000000A45525201
:104610002120496E76616C6964204952512076618F
:104620006C75652070617373656420746F20656EAE
:1046300061626C65206972712066756E6374696F62
:104640006E210A0080B500F009F80A4800884FF68C
:10465000FE7108400749088001BD000072B64CF2A7
:104660002050054908804DF628100349088062B69D
:1046700070470000002005400E20054010B5074996
:1046800079441831064C7C44163404E00A68081D4D
:10469000511888470146A142F8D110BD2C000000F6
:1046A00038000000476574204944207375636365D2
:1046B0007373A3AC53454E534F5220494420697342
:1046C000203078257800000007D4FFFF90540100C7
:1046D0007005FF1F00000000436F6E66696720527F
:1046E00065676973746572204E756D6265722069C5
:1046F00073202564200000004F5637373235205292
:104700006567697374657220436F6E6669672053CD
:1047100075636365737321000120C046002801D0D2
:10472000FFF7ACFF0020C046C046FFF741FD00F098
:1047300000F800F001B800000746384600F002F823
:10474000FBE7000080B5C046C046024A11001820B1
:10475000ABBEFBE726000200BEAFB8E63AD0B4BC61
:10476000C4B4E6C6F730782578CAA7B0DC000000EC
:10477000BEAFB8E63A53434342D0B4CAFDBEDDB43F
:10478000EDCEF30080B5FFF75DFFFFF723FEFFF7E7
:1047900081FEFFF70DFDFEE70D0A4D6F64653A4D92
:1047A0006F746F720D0A00000D0A4D6F64653A4414
:1047B0006966660D0A000000BEAFB8E63AB6C1C829
:1047C000A14944CAA7B0DC0010B504002100C9B259
:1047D0000520FEF7D0FA10BDC046C046C046C04610
:1047E000FFF79AFF0D0A5265733A000080B5C04684
:0447F000C04601BD01
:04000005000047D9D7
:00000001FF
