:10000000F8FF002011040000C9A800002D6E0000B8
:10001000C9A80000C9A80000C9A80000C9A800001C
:10002000C9A80000C9A80000C9A80000C9A800000C
:10003000C9A80000C9A800002B6E00002F6E0000A8
:10004000F96D0000C9A80000C9A80000C9A80000F7
:10005000C9A80000C9A80000C9A80000C9A80000DC
:10006000C9A80000C9A80000C9A80000C9A80000CC
:10007000C9A80000C9A80000C9A80000C9A80000BC
:10008000C9A80000C9A80000C9A80000C9A80000AC
:10009000C9A80000C9A80000C9A80000C9A800009C
:1000A000C9A80000C9A80000C9A80000C9A800008C
:1000B000C9A80000C9A80000C9A80000C9A800007C
:1000C000C9A80000C9A80000C9A80000C9A800006C
:1000D000C9A80000C9A80000C9A80000C9A800005C
:1000E000C9A80000C9A80000C9A80000C9A800004C
:1000F000C9A80000C9A80000C9A80000316E00000E
:10010000C9A800007D710000C9A800007F7100002F
:10011000C9A80000C9A80000C9A80000817100009A
:10012000C9A80000C9A80000C9A80000C9A800000B
:10013000C9A80000C9A80000377500003975000083
:100140003B750000C9A80000C9A80000C9A80000AC
:1001500083710000C9A80000D3730000C5730000BC
:10016000C9A80000C9A80000C9A80000C9A80000CB
:10017000C9A80000C9A80000C9A80000C9A80000BB
:10018000C9A80000C9A80000C9A80000C9A80000AB
:10019000C9A80000C9A80000C9A80000E3730000B6
:1001A0002B740000E1730000256D00003575000020
:1001B000C9A80000C9A80000C9A80000C9A800007B
:1001C000C9A80000C9A80000C9A80000C9A800006B
:1001D000C9A80000C9A80000C9A80000C9A800005B
:1001E000C9A80000C9A80000C9A80000C9A800004B
:10040000FFFFFFFFFFFFFFFFFFFFFFFFFEFFFFFFFD
:1004100062B64FF000004FF000014FF000024FF0C5
:1004200000034FF000044FF000054FF000064FF0BE
:1004300000074FF000084FF000094FF0000A4FF09E
:10044000000B4FF0000C08F077FAFEE700B583B020
:100450000020DFF8F41C08700020DFF8F01C81F8A1
:10046000100E00F073FCDFF8E80C0079412804DA84
:100470000120DFF8AC1C087003E00020DFF8A01CAE
:10048000087000F071FE02F0C5FD0020DFF8C41C0A
:100490000870DFF8C40C0078002848D10120DFF88C
:1004A000B41C08700020DFF8A41C81F8100E642131
:1004B000DFF8A80C006810F57A6000F04DF9DFF85D
:1004C0008C0C90F8100E401DDFF8841CC97888420F
:1004D00023DADFF8780C90F8100E401DDFF8701C5E
:1004E0000979884219DADFF8640C90F8100E401D83
:1004F000DFF85C1C497988420FDADFF8540C007988
:10050000C11CDFF8580C0068DFF8442C127928234E
:1005100003FB0200783000F01FF9DFF8300CDFF841
:100520002C1C91F8101E50F8210000F077FDDFF828
:10053000300C0078012840F0F0804FF6FF700190F9
:100540004FF478400090DFF8040CDFF8001C91F8BD
:10055000101E50F82130DFF80C2C6421FA2004F032
:1005600039FA4FF6FF7001904FF478400090DFF8B1
:10057000DC0BDFF8D81B91F8101E081890F8C03378
:10058000DFF8C42C7821FA2004F024FA4FF6FF702B
:1005900001904FF478400090DFF8B00BDFF8AC1B0F
:1005A00091F8101E081890F8303C5EA28C21FA20B9
:1005B00004F010FA4FF6FF7001904FF4784000906D
:1005C000DFF8880BDFF8841B91F8101E10EB810018
:1005D000D0F8B03454A2A021FA2004F0FBF94FF671
:1005E000FF7001904FF478400090DFF8600BDFF867
:1005F0005C1B91F8101E081890F8203D4BA2B42106
:10060000FA2004F0E7F94FF6FF7001904FF47840BC
:100610000090DFF8380BDFF8341B91F8101E10EB58
:100620008100D0F8703842A2C821FA2004F0D2F933
:10063000DFF8240B007800280CD0022820D014D337
:10064000042833D027D3062846D03AD3082859D0D7
:100650004DD362E04FF6FF7000904FF4784335A21F
:10066000DC21FA2004F0E2F857E04FF6FF7000902A
:100670004FF4784330A2DC21FA2004F0D7F84CE0A4
:100680004FF6FF7000904FF478432CA2DC21FA2043
:1006900004F0CCF841E04FF6FF7000904FF478433F
:1006A00027A2DC21FA2004F0C1F836E04FF6FF70F3
:1006B00000904FF4784323A2DC21FA2004F0B6F82E
:1006C0002BE04FF6FF7000904FF478431EA2DC2120
:1006D000FA2004F0ABF820E04FF6FF7000904FF4E2
:1006E00078431AA2DC21FA2004F0A0F815E04FF6B6
:1006F000FF7000904FF4784315A2DC21FA2004F03B
:1007000095F80AE04FF6FF7000904FF4784311A27D
:10071000DC21FA2004F08AF8FFE70020DFF82C1B28
:10072000087007BD4C0000004C5F560052000000EE
:10073000525F56004E0000004C70000052700000E6
:100740004C690000526900004C6F0000526F0000BD
:100750004C570000525700002DE9F14F88B00C00B3
:100760005FF0A0080A2006904FF49B7005900027C8
:1007700000265FF0000B5FF0000A5FF064090020C4
:100780008DF808000025F02C01DA002C01D500209E
:1007900081E1DFF8BC0A0078002807D1DFF8B00A51
:1007A0000078401CDFF8A81A087011E0DFF89C09F7
:1007B00050F82400DFF8981949784018022190FB7E
:1007C000F1F08046DFF88409201890F8C0038146D4
:1007D00000200500282D12DA002008280DDA0899DB
:1007E000695CD0F10702114111F00101DFF8642AC0
:1007F00010EBC5039954401CEFE76D1CEAE7464631
:10080000DFF8500A3018C07801280BD1DFF8440A0D
:1008100030188078012805D1DFF8380A3018407880
:10082000012804D00598864201DA761CE8E705988D
:10083000864209DA04960120DFF81019611881F860
:10084000200D0120824607E0002082460020DFF8CC
:10085000FC18611881F8200D4746DFF8F8093818B0
:1008600010F8030C01280DD1DFF8E809381810F84A
:10087000020C012806D1DFF8DC09381810F8010C49
:10088000012804D00698B84201DA7F1EE5E70698F1
:10089000B84209DA03970120DFF8B018611881F82F
:1008A000300C0120834607E0002083460020DFF85B
:1008B0009C18611881F8300C474501D0464513D18A
:1008C000002082460020DFF88418611881F8200D8E
:1008D000002083460020DFF87418611881F8300C7E
:1008E00001208DF8080002E000208DF808009DF836
:1008F0000800012819D1D22C17DADFF8500810EBC4
:100900008400C0F80C8019F10800DFF84018611865
:1009100081F8C303E11CDFF844080068282202FBC9
:1009200004007830FFF718FF4CE05AEA0B0000286B
:1009300048D0BBF1010F0BD0BAF1010F08D10498D8
:10094000B0EB090080460498B0EB4900039039E011
:10095000BBF1010F0BD1BAF1010F08D0039819EBCD
:1009600000008046039810EB490004902AE0BBF198
:10097000010F27D1BAF1010F24D104980399401A2D
:1009800004F07AFA00225FF0804304F08BFA04F05E
:10099000ADFB8146B9F1640F02DA6420814604E0C0
:1009A000B9F18D0F01DB8C2081460498039908185A
:1009B00004F062FA00225FF0804304F073FA04F05E
:1009C00095FB8046B8F1230F02DA2320804605E02C
:1009D000B8F58F7F02DB40F21D108046404604F0E0
:1009E0004BFACDE90001B4F164005FF0FF314843F8
:1009F00004F042FA0022DFF8303C04F09DFB0022B4
:100A0000DFF8283C04F04EFA0022DFF8243C04F022
:100A100065FCDDE9002304F061FC04F067FBDFF80E
:100A20002C1741F82400DFF8240790F8100EA0429C
:100A300003DADFF8180780F8104E0398B0F5A07FAE
:100A400003DB40F23F10039004E00398002801D537
:100A5000002003900398DFF8F41611EB8401C1F82D
:100A6000B0040498B0F5A07F03DB40F23F1004907F
:100A700004E00498002801D5002004900498DFF8D1
:100A8000CC1611EB8401C1F87008DFF8C0062018FD
:100A900080F8C093002009B0BDE8F08F2DE9F14F38
:100AA00088B00C005FF0A0090A2006904FF49B70FC
:100AB0000590002700265FF0000B5FF0000A5FF052
:100AC000640800208DF810000025F02C01DA002CBD
:100AD00001D5002037E1DFF85C0B0078002807D152
:100AE000DFF8500B0078401CDFF8481B08700AE064
:100AF000DFF8580650F824008146DFF85006201829
:100B000090F8C003804600200500282D12DA00204E
:100B100008280DDA0899695CD0F10702114111F03B
:100B20000101DFF8302710EBC5039954401CEFE7B3
:100B30006D1CEAE74E46DFF81C073018C078012824
:100B40000BD1DFF8100730188078012805D1DFF8C5
:100B5000040730184078012804D00598864201DA4D
:100B6000761CE8E70598864209DA03960120DFF84B
:100B7000DC15611881F8200D0120824607E0002075
:100B800082460020DFF8C415611881F8200D4F4619
:100B9000DFF8C006381810F8030C01280DD1DFF873
:100BA000B406381810F8020C012806D1DFF8A406A4
:100BB000381810F8010C012804D00698B84201DA60
:100BC0007F1EE5E70698B84209DA02970120DFF8B0
:100BD0007C15611881F8300C0120834607E0002065
:100BE00083460020DFF86415611881F8300C5AEA5A
:100BF0000B00002848D0BBF1010F0BD0BAF1010F58
:100C000008D10398B0EB080081460398B0EB480088
:100C1000029039E0BBF1010F0BD1BAF1010F08D0FE
:100C2000029818EB00008146029810EB48000390F0
:100C30002AE0BBF1010F27D1BAF1010F24D10398AB
:100C40000299401A04F018F900225FF0804304F082
:100C500029F904F04BFA8046B8F1640F02DA6420F7
:100C6000804604E0B8F18D0F01DB8C2080460398AC
:100C70000299081804F000F900225FF0804304F0A4
:100C800011F904F033FA8146B9F1230F02DA232077
:100C9000814605E0B9F58F7F02DB40F21D108146E9
:100CA000484604F0E9F8CDE90001B4F164005FF0D2
:100CB000FF31484304F0E0F80022DFF86C3904F01B
:100CC0003BFA0022DFF8643904F0ECF80022DFF888
:100CD000603904F003FBDDE9002304F0FFFA04F0BF
:100CE00005FADFF8681441F824000298B0F5A07FF7
:100CF00003DB40F23F10029004E00298002801D587
:100D0000002002900298DFF8441411EB8401C1F82E
:100D1000B0040398B0F5A07F03DB40F23F100390CE
:100D200004E00398002801D5002003900398DFF821
:100D30001C1411EB8401C1F87008DFF810042018AE
:100D400080F8C083002009B0BDE8F08F2DE9F043A2
:100D5000DFF8FC030078DFF8F8134978DFF8F023B8
:100D600092780023002400255FF0EF0E764680B2D3
:100D70005FF0080E90FBFEFEDFF8E083D8F80080FD
:100D8000F6B25FF0280909FB06881EF808E080B279
:100D90005FF0080890FBF8F909FB1809D9F107087A
:100DA0005EFA08FE5FEACE7E3FD580B25FF0080EA5
:100DB00090FBFEFEDFF8A483D8F80080F6B25FF067
:100DC000280909FB06881EEB080E1EF828EC80B2E5
:100DD0005FF0080890FBF8F909FB1809D9F107083A
:100DE0005EFA08FE5FEACE7E1FD580B25FF0080E85
:100DF00090FBFEFEDFF86483D8F80080F6B25FF067
:100E0000280909FB06881EEB080E1EF850EC80B27C
:100E10005FF0080890FBF8F909FB1809D9F10708F9
:100E20005EFA08FE5FEACE7E04D4F6B2022E01DB43
:100E3000761E9CE7F6B2EF2E02D05FF0010E7346ED
:100E4000DFF80CE38EF803605FF0EF0E774689B2AF
:100E50005FF0080E91FBFEFEDFF80083D8F80080FB
:100E6000FFB25FF0280909FB07881EF808E089B285
:100E70005FF0080891FBF8F909FB1819D9F1070888
:100E80005EFA08FE5FEACE7E3FD589B25FF0080EBB
:100E900091FBFEFEDFF8C482D8F80080FFB25FF05D
:100EA000280909FB07881EEB080E1EF828EC89B2FA
:100EB0005FF0080891FBF8F909FB1819D9F1070848
:100EC0005EFA08FE5FEACE7E1FD589B25FF0080E9B
:100ED00091FBFEFEDFF88482D8F80080FFB25FF05D
:100EE000280909FB07881EEB080E1EF850EC89B292
:100EF0005FF0080891FBF8F909FB1819D9F1070808
:100F00005EFA08FE5FEACE7E04D4FFB2022F01DB58
:100F10007F1E9CE7FFB2EF2F02D05FF0010E7546F7
:100F2000DFF82CE28EF804705FF0EF0EF44692B218
:100F30005FF0080E92FBFEFEDFF82082D8F80080FA
:100F40005FFA8CFC5FF0280909FB0C881EF808E0AA
:100F500092B25FF0080892FBF8F909FB1829D9F161
:100F600007085EFA08FE5FEACE7E41D592B25FF0D6
:100F7000080E92FBFEFEDFF8E481D8F800805FFAED
:100F80008CFC5FF0280909FB0C881EEB080E1EF88C
:100F900028EC92B25FF0080892FBF8F909FB1829D7
:100FA000D9F107085EFA08FE5FEACE7E20D592B23C
:100FB0005FF0080E92FBFEFEDFF8A081D8F80080FB
:100FC0005FFA8CFC5FF0280909FB0C881EEB080E09
:100FD0001EF850EC92B25FF0080892FBF8F909FB9A
:100FE0001829D9F107085EFA08FE5FEACE7E07D419
:100FF0005FFA8CFCBCF1020F02DBBCF1010C96E73E
:101000005FFA8CFCBCF1EF0F02D05FF0010E74466A
:10101000DFF83CE18EF805C0BDE8F08370B5040050
:1010200049480078012801D1002022E0DFF8E41AC5
:101030000E00200004F0C6F9310004F0DDF904F0E0
:10104000F7F905000120404908704348007801285D
:1010500003D041480078022805D1D5F1A000DFF87F
:10106000B81A086004E0D4F1A000DFF8AC1A0860F8
:10107000002070BD38B5002500200400E4B2052C26
:1010800013DA2821DFF8B0050068E4B2052202FB7C
:1010900004F2282303FB020010F57A6004F011FA31
:1010A000062800DA6D1C641CE8E7EDB2022D09DBAE
:1010B0006948C078782803DB67484079782801DAE6
:1010C000012000E0002032BDDFF8500A006840F641
:1010D000AD51884206D3DFF8480A006840F24D411E
:1010E000884218D2DFF8340A006840F24D41884245
:1010F00006D3DFF82C0A006840F6AD5188420AD2C8
:10110000DFF8180A0068DFF8181A0968081841F2B1
:101110008931884201D3012000E00020704700009F
:10112000BF6DFF1FDFF8F809006840F6AD51884237
:1011300006D2DFF8E809006840F6AD51884201D3D5
:10114000012000E000207047BE6DFF1FD812FF1F76
:101150007804FF1FC86DFF1F8004FF1FA46DFF1FD1
:101160007510FF1F70A8000080B500F00AF800F0AD
:1011700075F800F0BFFB00F0D9FC01F007FD00207E
:1011800002BD10B50024DFF89C090078002814D1B6
:1011900000F052FF0400E4B2002C0ED0FFF794FFE1
:1011A00001280AD1DFF87C090470DFF87C090068A7
:1011B00040084000DFF870190860DFF8680900781F
:1011C00005281DD1FFF7AEFF01283BD10720DFF82E
:1011D000541908700120DFF84C1981F85C00DFF821
:1011E0004409B0F86000DFF83C19A1F85E00DFF8B0
:1011F0003809006850F00100DFF82C19086021E080
:10120000DFF82009007806281CD1FFF78BFF0128A2
:1012100018D10820DFF80C1908700120DFF8041934
:1012200081F85C00DFF8FC08B0F86000DFF8F41823
:10123000A1F85E00DFF8F008006850F00100DFF868
:10124000E8180860002010BD78A80000CC6DFF1FD2
:10125000C06DFF1F9811FF1F7804FF1F2DE9F84391
:1012600000208DF80000DFF8BC080078012806D0C7
:10127000DFF8B0080078022801D00120D1E100A8F1
:1012800000F0DCF9060016F1010F4AD1DFF89408EE
:1012900090F83000401CDFF88C1881F83000DFF83F
:1012A0008408C06AFFF7BAFEDFF8780890F83000CB
:1012B0000D28C0F2B581DFF86C080078012814D140
:1012C0000320DFF8601808703220DFF858184863F0
:1012D0000120DFF8501881F83D00DFF84808B0F829
:1012E0004000DFF84018C8879AE1DFF83808007836
:1012F000022840F095810420DFF82818087040F299
:101300000D10DFF8201848630120DFF8181881F865
:101310003D00DFF81008B0F84000DFF80818C88773
:101320007EE1DFF800080078012840F0D180DFF886
:10133000EC0C40783230B0424BDADFF8E80790F836
:101340003000401CDFF8DC1781F830000020DFF8A7
:10135000D01C81F8100E6421B748006810F57A603F
:10136000FFF7FAF9DFF8B80C90F8100E401DDFF81F
:10137000AC1CC978884222DADFF8A40C90F8100E71
:10138000401DDFF8981C0979884218DADFF8900CC4
:1013900090F8100E401DDFF8841C497988420EDA5F
:1013A000DFF8780C0079C11CA3480068DFF86C2CCA
:1013B0001279282303FB02007830FFF7CDF9DFF81C
:1013C000600CDFF85C1C91F8101E50F8210007003B
:1013D00077E00020DFF84C1781F830009DF800001E
:1013E000552835DA300003F047FD80468946A6F2DD
:1013F0003F109DF800106439484303F03DFD002282
:10140000894B03F099FE04000D009DF80000DFF801
:10141000141791F82B10401A03F02EFD02000B0058
:101420002000290003F03EFD02000B004046494623
:1014300004F062F800225FF0804303F033FD0022E5
:10144000DFF8E03B03F04AFF03F050FE070034E012
:10145000300003F011FD80468946A6F23F109DF84A
:1014600000106439484303F007FD00226E4B03F07F
:1014700063FE04000D009DF80000DFF8A81691F847
:101480002B10401A03F0F8FC02000B00200029008A
:1014900003F008FD02000B004046494604F02CF81A
:1014A00000225FF0804303F0FDFC0022DFF8783B70
:1014B00003F014FF03F01AFE0700232F01DA2320A4
:1014C0000700DFF86006C7623800FFF7A7FD9CE061
:1014D000DFF850060078022840F09780DFF83C0BD8
:1014E0004078323886424BDADFF8380690F8300020
:1014F000401CDFF8301681F830000020DFF8201B98
:1015000081F8100E64214C48006810F57A60FFF7EE
:1015100023F9DFF80C0B90F8100E401DDFF8FC1AD1
:10152000C978884222DADFF8F80A90F8100E401DD8
:10153000DFF8E81A0979884218DADFF8E40A90F847
:10154000100E401DDFF8D41A497988420EDADFF810
:10155000CC0A0079C11C38480068DFF8C02A12792B
:10156000282303FB02007830FFF7F6F8DFF8B00A13
:10157000DFF8AC1A91F8101E50F8210007003EE089
:101580000020DFF8A01581F83000300003F074FC73
:10159000804689469DF80000643800FB06F003F0A1
:1015A0006BFC0022204B03F0C7FD04000D009DF8EA
:1015B0000000DFF8701591F82B10401A03F05CFC66
:1015C00002000B002000290003F06CFC02000B005D
:1015D0004046494603F090FF0022DFF8503A03F0FE
:1015E0007DFE00225FF0804303F05CFC03F07EFD93
:1015F0000700B7F58F7F02DB40F21D100700DFF810
:101600002405C7623800FFF709FDDFF8240A0078D7
:10161000012805D11F226421380080B203F001FCAB
:101620000020BDE8F28300000000F03F00002EC063
:101630000000F0BFC16DFF1FA46DFF1F2DE9F14F2A
:10164000BEB00A244FF49B750026002700208DF8B9
:1016500004005FF000085FF000095FF0000A00F08E
:10166000AFFE0090DFF8BC040078022805D1009896
:10167000C9280DDB5FF0FF3039E1DFF8A8040078FE
:10168000012805D10098782802DA5FF0FF302EE1BA
:10169000002081465FFA89F9B9F1140F80F2A68023
:1016A000DFF8900900685FFA89F90321DFF87424F4
:1016B00092F82A2001FB0921282202FB010083461F
:1016C000002082465FFA8AFABAF1280F1BDA00205E
:1016D000C0B2082814DADFF8E41C5FFA8AFA5FEA7D
:1016E000CA0252FA80F25FFA8AFA1AF80B30D0F185
:1016F000070C53FA0CF313F001035354401CE7E7B3
:101700001AF1010ADEE7DFF81C040078022831D163
:1017100000980700DFF8A40C3818C07801280BD116
:10172000DFF8980C38188078012805D1DFF88C0C88
:1017300038184078012803D0AF4201DA7F1CE9E76E
:10174000AF4205DA03A85FFA89F920F819704AE078
:10175000DFF8C80840780A30874205DA03A85FFA44
:1017600089F920F819503EE003A85FFA89F920F8BA
:10177000195038E0DFF8AC030078012833D1009825
:101780000600DFF8380C301810F8030C01280DD1D2
:10179000DFF8280C301810F8020C012806D1DFF809
:1017A0001C0C301810F8010C012803D0B44201DAE7
:1017B000761EE6E7B44205DA0DA85FFA89F920F84B
:1017C000196010E0DFF8540840780A38B04205DAB2
:1017D0000DA85FFA89F920F8194004E00DA85FFA16
:1017E00089F920F8194019F1010953E7CD4800782B
:1017F000022834D1002081465FFA89F9B9F1130F2C
:1018000068DA03A85FFA89F910EB4900408803A958
:101810005FFA89F931F81910401A17A95FFA89F9A6
:1018200041F8290017A85FFA89F950F829001F2804
:1018300012DB0120804603A85FFA89F930F819000D
:1018400002905FFA89F90320B64991F82A1000FB4B
:1018500009103E9908703DE019F10109CCE7B14843
:101860000078012836D1002081465FFA89F9B9F164
:10187000130F2FDA0DA85FFA89F910EB49004088A1
:101880000DA95FFA89F931F81910401A2AA95FFAEF
:1018900089F941F829002AA85FFA89F950F8290046
:1018A00010F11E0F13DA01208DF804000DA85FFA65
:1018B00089F930F8190002905FFA89F903209949F3
:1018C00091F82A1000FB09103E99087002E019F106
:1018D0000109CAE75FFA88F8B8F1000F06D19DF850
:1018E0000400002802D15FF0FF3000E002983FB012
:1018F000BDE8F08F10B58B480078032805D08948E3
:101900000078042801D0012003E10020DFF810173F
:1019100081F8100E834890F83C10DFF81807006833
:10192000804A92F83C20282303FB0200FEF714FFB4
:10193000DFF8EC0690F8100E401DDFF8E016C978CD
:10194000884223DADFF8D80690F8100E401DDFF841
:10195000CC160979884219DADFF8C40690F8100E1F
:10196000401DDFF8B816497988420FDADFF8AC0677
:101970000079C11CDFF8BC060068DFF8A0261279E8
:10198000282303FB02007830FEF7E6FE6548007866
:10199000032822D1DFF88806DFF8841691F8101E9C
:1019A00050F82100DFF8741649780A39884214DAB1
:1019B000DFF8081B0C00DFF86806DFF8641691F802
:1019C000101E50F8210003F0FDFC210003F014FD6F
:1019D00003F02EFD5349486325E05248007804285F
:1019E00021D1DFF8380640780A30DFF83416DFF806
:1019F000302692F8102E51F82210884213DADFF8C0
:101A0000BC1A0C00DFF81806DFF8141691F8101E47
:101A100050F8210003F0D6FC210003F0EDFC03F0A8
:101A200007FD404948633F48406BFFF7F7FADFF88E
:101A3000900A0078052803DB0020DFF8841A08707C
:101A4000DFF8800A0068DFF8801ADFF8742A12785D
:101A500051F82210401ADFF86C1A08603148406BC8
:101A6000DFF8641ADFF8582A127841F82200DFF80C
:101A7000540A0068DFF8501ADFF8442A127851F847
:101A800022100818DFF83C1A0860DFF8340A0078E2
:101A9000401CDFF82C1A0870224890F842000128F8
:101AA00036D100F0EDFE012807D11E4890F8430022
:101AB000401C1C4981F8430003E00020194981F8CB
:101AC0004300184890F84300022821DB15480078AD
:101AD00003280CD1DFF8EC090068AF30022190FB3D
:101AE000F1F01049886305200E49087010E00D4898
:101AF000007804280CD1DFF8CC09006800F291507E
:101B0000022190FBF1F0074988630620054908701F
:101B1000002010BD5004FF1F0C22FF1F5021FF1F8B
:101B20005421FF1F8004FF1FC0F00F402DE9F84330
:101B3000DFF8380D0078062806D0DFF8300D007881
:101B4000052801D0012066E2DFF8241DDFF8240D0E
:101B500000F0BCFC0600DFF8140D0078062840F009
:101B60002C81300003F088F980468946DFF8000DAB
:101B70000068643800FB06F003F07EF90022DFF80D
:101B8000F83C03F0D9FA04000D00DFF8E40C00681B
:101B9000DFF8E01C0968401A03F06EF902000B0040
:101BA0002000290003F07EF902000B004046494660
:101BB00003F0A2FC0022DFF8743403F08FFB002254
:101BC0005FF0804303F06EF90022DFF8B03C03F0D1
:101BD00085FB03F08BFA070016F1010F59D0DFF8EF
:101BE0003C0440783C30B84253DAB7F58F7F02DBD3
:101BF00040F21D1007003800FFF710FADFF86C0CF8
:101C000090F84400052804DB0020DFF8601C81F810
:101C10004400DFF8580C806BDFF8501CDFF84C2CC8
:101C200092F8442011EB8201896C401ADFF83C1CC9
:101C30008863DFF8380CDFF8341C91F8441010EB9F
:101C400081008764DFF8240C806BDFF8201CDFF84C
:101C50001C2C92F8442011EB8201896C0818DFF8E3
:101C60000C1C8863DFF8040C90F84400401CDFF87B
:101C7000FC1B81F84400DFF8B8030078012840F02D
:101C8000C98147F6FF726421380080B203F0C9F8B9
:101C9000C0E116F1010F65D0DFF8D40B00685528BC
:101CA00060DA0020DFF8781381F8100E6421DFF885
:101CB0008403006810F57A60FEF74EFDDFF86003DC
:101CC00090F8100E401DD549C97888421CDAD448D6
:101CD00090F8100E401DD1490979884214DAD04895
:101CE00090F8100E401DCD49497988420CDACB4856
:101CF0000079C11CCF480068C84A1279282303FB29
:101D000002007830FEF728FDC44840783C30C449D2
:101D1000C34A92F8102E51F82210884208DAC048BF
:101D2000BF4991F8101E50F82100FFF777F971E1D3
:101D3000DFF8380B806B052190FBF1F0B74949784B
:101D40003C31814208DADFF8240B806B052190FBDF
:101D5000F1F0FFF763F95DE1B04840785030FFF7EC
:101D60005DF957E1DFF8040B806B052190FBF1F082
:101D7000AA4949783C31814208DADFF8F00A806BE1
:101D8000052190FBF1F0FFF749F904E0A348407802
:101D90005030FFF743F9A6480078012840F03A8117
:101DA0004FF61F026421DFF8C40A806B052390FB05
:101DB000F3F080B203F035F82CE1DFF8B00A0078D8
:101DC000052840F02781300003F056F88046894608
:101DD000A6F23F10DFF8981A09686439484303F007
:101DE0004BF80022DFF8903A03F0A6F904000D004A
:101DF000DFF87C0A0068DFF87C1A0968401A03F0F3
:101E00003BF802000B002000290003F04BF8020011
:101E10000B004046494603F06FFB00225FF0804311
:101E200003F040F80022DFF8603D03F057FA03F0BA
:101E30005DF9070016F1010F55D0784840785A38FF
:101E4000874250DA232F01DA232007003800FFF7FA
:101E5000E5F8DFF8180A90F84400052804DB0020B4
:101E6000DFF8081A81F84400DFF8000A806BDFF819
:101E7000FC19DFF8F82992F8442011EB8201896CF3
:101E8000401ADFF8E8198863DFF8E009DFF8DC19A9
:101E900091F8441010EB81008764DFF8D009806B63
:101EA000DFF8C819DFF8C42992F8442011EB820149
:101EB000896C0818DFF8B4198863DFF8B00990F866
:101EC0004400401CDFF8A41981F844005848007809
:101ED000012840F09F8047F6FF726421380080B2ED
:101EE00002F09FFF96E016F1010F66D0DFF880093F
:101EF0000068552861DA0020494981F8100E6421F4
:101F00004C48006810F57A60FEF726FC444890F8CB
:101F1000100E401D4149C97888421CDA404890F8AB
:101F2000100E401D3D490979884214DA3C4890F86A
:101F3000100E401D3949497988420CDA374800793A
:101F4000C11C3C480068354A1279282303FB020073
:101F50007830FEF701FC3248314991F8101E50F8F4
:101F600021002E4949785A39884208DA2C482C49F0
:101F700091F8101E50F82100FFF750F84AE0DFF802
:101F8000EC08806B052190FBF1F0244949785A391F
:101F9000884208DADFF8D408806B052190FBF1F065
:101FA000FFF73CF836E01D4840786E38FFF736F80A
:101FB000DFF8B80C03F07BFB2CE0DFF8B008806B97
:101FC000052190FBF1F0154949785A39884208DA21
:101FD000DFF89808806B052190FBF1F0FFF71EF801
:101FE00008E00E4840786E38FFF718F8DFF87C0CF0
:101FF00003F05DFB0E48007801280BD14FF61F025D
:102000006421DFF86808806B052390FBF3F080B251
:1020100002F007FF0020BDE8F28300007804FF1FF4
:10202000D812FF1F0000344000002A4000F0734027
:102030007510FF1FA46DFF1F2DE9F04FA3B00A21FB
:102040004FF49B72002300240025002600208DF809
:10205000030000208DF8020000208DF80100002010
:102060008DF8000000275FF0000E00200700FFB28F
:102070000A2F80F2A080DFF8F80B0068FFB25FEA59
:10208000870CDFF8E89799F82A901CEB090C5FF0B1
:10209000280909FB0C008046002086465FFA8EFE68
:1020A000BEF1280F1CDA0020C0B2082815DADFF8CC
:1020B0000CC35FFA8EFE5FEACE0959FA80F95FFA27
:1020C0008EFE1EF808A0D0F1070B5AFA0BFA1AF090
:1020D000010A09F80CA0401CE6E71EF1010EDDE73D
:1020E000DFF8900B40780400B4482018C07801282D
:1020F00009D1B24820188078012804D1AF482018AF
:102100004078012803D0944201DA641CECE7944241
:1021100006DADFF85807FFB210EB4700C48212E07E
:10212000DFF8500B40780A30844206DADFF83C07CB
:10213000FFB210EB4700C28205E0DFF83007FFB2C4
:1021400010EB4700C282DFF82C0B407803009B485D
:10215000181810F8030C01280BD19848181810F81B
:10216000020C012805D19548181810F8010C012817
:1021700003D0994201DA5B1EE9E7994206DADFF8FB
:10218000EC06FFB210EB4700438012E0DFF8E40AF0
:1021900040780A38984206DADFF8D006FFB210EB32
:1021A0004700418005E0DFF8C406FFB210EB4700AE
:1021B00041807F1C5BE700200700FFB2092F29DA6E
:1021C000DFF8A806FFB210EB47008088DFF89CC656
:1021D000FFB21CEB470CBCF802C0B0EB0C000DF1D9
:1021E000680CFFB24CF82700DFF88006FFB210EB56
:1021F0004700008BDFF874C6FFB21CEB470CBCF83D
:1022000016C0B0EB0C000DF1440CFFB24CF82700E7
:102210007F1CD2E700200700FFB2082F80F2A280C7
:102220001AA8FFB210EB870040680DF1680CFFB2EE
:102230005CF827C0B0EB0C000DF1240CFFB24CF899
:10224000270011A8FFB210EB870040680DF1440C85
:10225000FFB25CF827C0B0EB0C000DF1040CFFB22C
:102260004CF8270009A8FFB250F82700012804DB2A
:1022700009A8FFB250F8270004E009A8FFB250F8FF
:1022800027004042052812DA1AA8FFB250F82700AA
:10229000012804DB1AA8FFB250F8270004E01AA8AE
:1022A000FFB250F827004042012800DB6D1C01A856
:1022B000FFB250F82700012804DB01A8FFB250F854
:1022C000270004E001A8FFB250F82700404205288B
:1022D00012DA11A8FFB250F82700012804DB11A878
:1022E000FFB250F8270004E011A8FFB250F8270011
:1022F0004042012800DB761C09A8FFB250F82700F5
:1023000010F1170F12DADFF86405FFB210EB470087
:1023100040881F280ADBFFB2022097FBF0F0A8429A
:1023200004DA012D02DB01208DF8010001A8FFB2C3
:1023300050F82700182813DBDFF83005FFB210EB48
:102340004700C08AB0F5907F0ADCFFB2022097FBFD
:10235000F0F0B04204DA012E02DB01208DF800001B
:102360007F1C59E7062D02DB01208DF80300062EA5
:1023700002DB01208DF802009DF80000002805D046
:102380009DF80100002801D0002014E09DF8030012
:10239000002805D09DF80000012801D102200AE0A4
:1023A0009DF80200002805D09DF80100012801D108
:1023B000012000E0002023B0BDE8F08F9811FF1F3E
:1023C00030B585B000200500EDB2142D6CDAB420D4
:1023D0000400EDB20A2000FB05F04130082190FB1B
:1023E000F1F0DFF88C180968E4B2282202FB04112E
:1023F000405CEDB20A2101FB05F14131082291FB5D
:10240000F2F303FB1213D3F107010841C00741D5D2
:10241000EDB20A2000FB05F04130082190FBF1F0FD
:10242000DFF84C180968E4B2282202FB04114018B6
:1024300010F8280CEDB20A2101FB05F14131082208
:1024400091FBF2F303FB1213D3F107010841C0071C
:1024500020D5EDB20A2000FB05F04130082190FBA9
:10246000F1F0DFF80C180968E4B2282202FB04112D
:10247000401810F8500CEDB20A2101FB05F1413172
:10248000082291FBF2F303FB1213D3F10701084179
:10249000C00704D4E4B20A2C01DB641E99E700A84B
:1024A000EDB22C546D1C8FE7142100A802F0E2FF5E
:1024B0000A214843413005B030BD00006404FF1FCD
:1024C000C26DFF1F0021FF1FEC20FF1F2DE9F0410F
:1024D000C1B0020000235FF0FF300024E34F3F78DB
:1024E000062F40F0D18000273E00F6B21E2E6FDA94
:1024F000C8273D00F6B2B7005FF0080C97FBFCF769
:10250000DFF86CC7DCF800C0EDB25FF0280E0EFB00
:1025100005CC17F80C70F6B25FEA860C5FF0080E77
:102520009CFBFEF808FB1EC8D8F1070C57FA0CF705
:10253000FF0743D5F6B2B7005FF0080C97FBFCF736
:10254000DFF82CC7DCF800C0EDB25FF0280E0EFB00
:1025500005CC17EB0C0717F8287CF6B25FEA860C5F
:102560005FF0080E9CFBFEF808FB1EC8D8F1070CB4
:1025700057FA0CF7FF0721D5F6B2B7005FF0080C49
:1025800097FBFCF7DFF8E8C6DCF800C0EDB25FF0BF
:10259000280E0EFB05CC17EB0C0717F8507CF6B293
:1025A0005FEA860C5FF0080E9CFBFEF808FB1EC875
:1025B000D8F1070C57FA0CF7FF0704D4EDB20A2D37
:1025C00001DB6D1E96E700AFF6B2F555761C8CE781
:1025D00000273E00F6B21D2E11DA00AFF6B2F71951
:1025E0007F780DF1000CF6B216F80CC0B7EB0C07B3
:1025F0000DF1900CF6B24CF82670761CEAE7002735
:102600003E00F6B21C2E37DA24AFF6B217EB86077F
:102610007F680DF1900CF6B25CF826C0B7EB0C07A2
:102620000DF1200CF6B24CF8267008AFF6B257F850
:102630002670012F04DB08AFF6B257F8267004E0CD
:1026400008AFF6B257F826707F42052F00DA5B1C00
:1026500008AFF6B257F8267017F10F0F0ADAF6B284
:10266000022796FBF7F79F4204DA012B02DB0127D2
:102670003C0001E0761CC4E7E4B2012C40F0EB80A2
:10268000F6B2B7003800E6E0784F3F78052F40F00B
:10269000E28000273E00F6B21E2E80F27F80C8271F
:1026A0003D0040F23F17F6B2B7EB86075FF0080C2B
:1026B00097FBFCF7DFF8B8C5DCF800C0EDB25FF0BF
:1026C000280E0EFB05CC17F80C7040F23F1CF6B23A
:1026D000BCEB860C5FF0080E9CFBFEF808FB1EC8E6
:1026E000D8F1070C57FA0CF7FF074DD540F23F170A
:1026F000F6B2B7EB86075FF0080C97FBFCF7DFF844
:1027000070C5DCF800C0EDB25FF0280E0EFB05CC02
:1027100017EB0C0717F8287C40F23F1CF6B2BCEB15
:10272000860C5FF0080E9CFBFEF808FB1EC8D8F173
:10273000070C57FA0CF7FF0726D540F23F17F6B201
:10274000B7EB86075FF0080C97FBFCF7DFF820C5B6
:10275000DCF800C0EDB25FF0280E0EFB05CC17EBE5
:102760000C0717F8507C40F23F1CF6B2BCEB860C0D
:102770005FF0080E9CFBFEF808FB1EC8D8F1070CA2
:1027800057FA0CF7FF0704D4EDB20A2D01DB6D1EDA
:1027900087E700AFF6B2F555761C7CE700273E00D0
:1027A000F6B21D2E11DA00AFF6B2F7197F780DF1EF
:1027B000000CF6B216F80CC0B7EB0C070DF1900C3C
:1027C000F6B24CF82670761CEAE700273E00F6B217
:1027D0001C2E37DA24AFF6B217EB86077F680DF1AF
:1027E000900CF6B25CF826C0B7EB0C070DF1200C8C
:1027F000F6B24CF8267008AFF6B257F82670012FE3
:1028000004DB08AFF6B257F8267004E008AFF6B262
:1028100057F826707F42052F00DA5B1C08AFF6B22E
:1028200057F8267017F10F0F0ADAF6B2022796FB57
:10283000F7F79F4204DA012B02DB01273C0001E09D
:10284000761CC4E7E4B2012C05D140F23F17F6B282
:10285000B7EB860738009DF80070176000AFF6B23E
:10286000F75D0F6041B0BDE8F08100008004FF1FFC
:102870000821FF1F0421FF1F0000F03F000024C0BB
:10288000F0B4AAB000210020DFF8EC472478042C33
:1028900040F0B38000242300DBB2142B5FDAC8249D
:1028A0002200DBB29C001E34082594FBF5F4DFF80F
:1028B000C0532D68D2B2282606FB0255645DDBB2F8
:1028C0009D001E35082695FBF6F707FB1657D7F136
:1028D00007052C41E40738D5DBB29C001E340825DF
:1028E00094FBF5F4DFF888532D68D2B2282606FB56
:1028F0000255641914F8284CDBB29D001E350826D9
:1029000095FBF6F707FB1657D7F107052C41E407AF
:102910001BD5DBB29C001E34082594FBF5F4D44D86
:102920002D68D2B2282606FB0255641914F8504CC3
:10293000DBB29D001E35082695FBF6F707FB165700
:10294000D7F107052C41E40704D4D2B20A2A01DBEF
:10295000521EA6E700ACDBB21A555B1C9CE70024B4
:102960002300DBB2132B0DDA00ACDBB21C19647848
:1029700000ADDBB25D5D641B17ADDBB245F82340F3
:102980005B1CEEE700242300DBB2122B80F2F78001
:1029900017ACDBB214EB8304646817ADDBB255F8F7
:1029A0002350641B05ADDBB245F8234005ACDBB218
:1029B00054F82340012C04DB05ACDBB254F823406F
:1029C00004E005ACDBB254F823406442052C00DA85
:1029D000491C05ACDBB254F8234014F10F0F0ADA9E
:1029E000DBB2022493FBF4F48C4204DA012902DB0B
:1029F00001242000C3E05B1CC6E7DFF87C46247896
:102A0000032C40F0BC8000242300DBB2142B69DAD5
:102A1000C824220040F22114DBB2B4EB8304082561
:102A200094FBF5F4924D2D68D2B2282606FB025590
:102A3000645D40F22115DBB2B5EB8305082695FBFA
:102A4000F6F707FB1657D7F107052C41E4073FD5EA
:102A500040F22114DBB2B4EB8304082594FBF5F4B7
:102A6000834D2D68D2B2282606FB0255641914F84E
:102A7000284C40F22115DBB2B5EB8305082695FB07
:102A8000F6F707FB1657D7F107052C41E4071FD5CA
:102A900040F22114DBB2B4EB8304082594FBF5F477
:102AA000734D2D68D2B2282606FB0255641914F81E
:102AB000504C40F22115DBB2B5EB8305082695FB9F
:102AC000F6F707FB1657D7F107052C41E40704D4A6
:102AD000D2B20A2A01DB521E9CE700ACDBB21A55C7
:102AE0005B1C92E700242300DBB2132B0DDA00AC51
:102AF000DBB21C19647800ADDBB25D5D641B17AD01
:102B0000DBB245F823405B1CEEE700242300DBB278
:102B1000122B34DA17ACDBB214EB8304646817AD04
:102B2000DBB255F82350641B05ADDBB245F82340FA
:102B300005ACDBB254F82340012C04DB05ACDBB25E
:102B400054F8234004E005ACDBB254F8234064425F
:102B5000052C00DA491C05ACDBB254F8234014F113
:102B60000F0F0ADADBB2022493FBF4F48C4204DA8E
:102B7000012902DB0124200001E05B1CC7E7C0B291
:102B80002AB0F0BC7047000000003EC010B582B013
:102B9000DFF8E4040078072806D0DFF8DC040078CA
:102BA000082801D0012060E000A800F065F80400CA
:102BB00014F1010F3ED10020DFF8301981F8100E1A
:102BC00064212B48006810F57A60FDF7C5FDDFF839
:102BD0001C0990F8100E401D2649C97888421EDA5B
:102BE000DFF8080990F8100E401D22490979884243
:102BF00015DADFF8F80890F8100E401D1D494979E4
:102C000088420CDA1B480079C11C19480068194A2F
:102C10001279282303FB02007830FDF79DFDDFF8D1
:102C2000CC08DFF8C81891F8101E50F82100FEF704
:102C3000F5F919E00020DFF8B41881F8100E9DF8BE
:102C400000100B4800689DF80020282303FB0200B9
:102C5000FDF782FDDFF89408DFF8901891F8101E58
:102C600050F82100FEF7DAF9002016BD1804FF1F06
:102C7000A46DFF1F7804FF1F2DE9F14FE2B00A2475
:102C80004FF49B75002600275FF000085FF00009F5
:102C900000208DF8010000208DF800005FF0000A90
:102CA0005FF0000BFFF78CFB0190DFF8CC0300789E
:102CB000022805D10198C9280DDB5FF0FF30A6E19D
:102CC000DFF8B4030078012805D10198782802DAEA
:102CD0005FF0FF309BE1002082465FFA8AFABAF18A
:102CE000140F80F2A780DFF8540D00685FFA8AFAAB
:102CF0000321DFF8842392F82A2001FB0A212822ED
:102D000002FB01000390002083465FFA8BFBBBF1BE
:102D1000280F1CDA0020C0B2082815DADFF8201DC1
:102D20005FFA8BFB5FEACB0252FA80F2039B5FFAF9
:102D30008BFB1BF80330D0F1070C53FA0CF313F0A4
:102D400001035354401CE6E71BF1010BDDE7CA48C1
:102D50000078082831D101980700DFF8E40C381812
:102D6000C07801280BD1DFF8D80C381880780128FA
:102D700005D1DFF8CC0C38184078012803D0AF42D9
:102D800001DA7F1CE9E7AF4205DA04A85FFA8AFAA4
:102D900020F81A704BE0DFF8AC0C40780A3087421C
:102DA00005DA04A85FFA8AFA20F81A503FE004A86E
:102DB0005FFA8AFA20F81A5039E0AF4800780728FD
:102DC00035D1DFF8800C40780600DFF8740C30183D
:102DD00010F8030C01280DD1DFF8640C301810F83E
:102DE000020C012806D1DFF8580C301810F8010C3D
:102DF000012803D0B44201DA761EE6E7B44205DAD0
:102E00000EA85FFA8AFA20F81A6010E0DFF8340C96
:102E100040780A38B04205DA0EA85FFA8AFA20F83C
:102E20001A4004E00EA85FFA8AFA20F81A401AF154
:102E3000010A52E7002082465FFA8AFABAF1130FBC
:102E40002DDA8D480078082811D104A85FFA8AFA93
:102E500010EB4A00408804A95FFA8AFA31F81A1088
:102E6000401A3CA95FFA8AFA41F82A0014E0824825
:102E70000078072810D10EA85FFA8AFA10EB4A00F2
:102E800040880EA95FFA8AFA31F81A10401A4FA941
:102E90005FFA8AFA41F82A001AF1010ACCE7002009
:102EA00082465FFA8AFABAF1120F80F2A480724861
:102EB000007808284CD13CA85FFA8AFA10EB8A0007
:102EC00040683CA95FFA8AFA51F82A10401A18A9FA
:102ED0005FFA8AFA41F82A0018A85FFA8AFA50F8CD
:102EE0002A00012805DB18A85FFA8AFA50F82A00A0
:102EF00005E018A85FFA8AFA50F82A00404205282F
:102F000001DA19F1010918A85FFA8AFA50F82A00C3
:102F100010F11E0F6CDA5FFA8AFABAF10300484525
:102F200066DAB9F1020F63DB01208DF8000004A816
:102F30005FFA8AFA30F81A0002905FFA8AFA0320E0
:102F40004D4991F82A1000FB0A106299087052E06E
:102F50004948007807284BD14FA85FFA8AFA10EB4E
:102F60008A0040684FA95FFA8AFA51F82A10401A7D
:102F70002AA95FFA8AFA41F82A002AA85FFA8AFA8F
:102F800050F82A00012805DB2AA85FFA8AFA50F8CF
:102F90002A0005E02AA85FFA8AFA50F82A0040427F
:102FA000052801DA18F101082AA85FFA8AFA50F810
:102FB0002A001F281CDB5FFA8AFABAF10300404599
:102FC00016DAB8F1020F13DB01208DF801000EA80C
:102FD0005FFA8AFA30F81A0002905FFA8AFA032040
:102FE000254991F82A1000FB0A106299087002E046
:102FF0001AF1010A55E79DF80000002806D19DF856
:103000000100002802D15FF0FF3000E0029863B0B9
:10301000BDE8F08F80B518480078002803D1FEF78E
:1030200053F8012801D101200AE00020DFF8181A26
:10303000087000F006F800F021F801F038F80020E0
:1030400002BD10B50024DFF8000A0078032809D07B
:10305000DFF8F4090078042804D0DFF8EC090078E0
:10306000052801D1012005E000F096FE00F040FAAD
:103070000400002010BD00008004FF1F2DE9F04374
:1030800083B0DFF8C4090078032806D0DFF8B80958
:103090000078042801D0012025E200A901A800F051
:1030A000DFFC0600DFF8A0090078032840F00E815D
:1030B0000120DFF894198873DFF88C098089DFF824
:1030C00088194881300001F0D7FE80468946009873
:1030D000643800FB06F001F0CFFE0022DFF86C3907
:1030E00002F02AF804000D0000980199401A01F03E
:1030F000C3FE02000B002000290001F0D3FE0200F5
:103100000B004046494602F0F7F90022DFF840394B
:1031100002F0E4F800225FF0804301F0C3FE0022D9
:10312000DFF8303902F0DAF801F0E0FF0700DFF8ED
:10313000140940780A30B8424ADAB7F58F7F02DBCB
:1031400040F21D1007003800FDF768FFDFF808099E
:1031500000780A2803DB0020DFF8FC180870DFF88D
:10316000E8084068DFF8F418DFF8EC28127831F846
:103170001210401ADFF8D0184860DFF8E008DFF8D6
:10318000D818097820F81170DFF8BC084068DFF81B
:10319000CC18DFF8C428127831F8121010FA81F038
:1031A000DFF8A4184860DFF8B0080078401CDFF8AA
:1031B000A8180870DFF8D80B0078012840F0928139
:1031C00047F6FF726421380080B201F02AFE89E1DF
:1031D000DFF870080079DFF86C18C9780A3988427E
:1031E00008DBDFF860084079DFF8581809790A39F8
:1031F000884250DA0020BD4981F8100E6421DFF8C2
:103200003C08006810F57A60FDF7A6FAB74890F818
:10321000100E401DDFF82C18C978884221DAB34817
:1032200090F8100E401DDFF81C180979884218DA52
:10323000AE4890F8100E401DDFF808184979884212
:103240000FDADFF800080079C11CDFF8F00700682A
:10325000DFF8F0271279282303FB02007830FDF70E
:103260007BFAA248A14991F8101E50F82100AB2822
:1032700008DB9E489D4991F8101E50F82100FDF78B
:10328000CDFE2FE1DFF8C00740680A2190FBF1F086
:10329000FDF7C4FE26E1DFF8B00740680A2190FB85
:1032A000F1F0FDF7BBFEDFF8E80A0078012840F0F6
:1032B00019814FF61F026421DFF88C0740680A234A
:1032C00090FBF3F080B201F0ACFD0BE1DFF8780782
:1032D0000078042840F006810120DFF86C1788731D
:1032E000DFF864078089DFF860174881300001F05B
:1032F000C3FD80468946A6F23F10009964394843D1
:1033000001F0BAFD0022DFF8443701F015FF040098
:103310000D0000980199401A01F0AEFD02000B006B
:103320002000290001F0BEFD02000B004046494686
:1033300002F0E2F800225FF0804301F0B3FD0022CA
:10334000DFF8503A01F0CAFF01F0D0FE0700DFF8C5
:10335000F40640780A38874248DA232F01DA23201E
:1033600007003800FDF75AFEDFF8EC0600780A285F
:1033700003DB0020DFF8E0160870DFF8CC064068B9
:10338000DFF8D816DFF8D026127831F81210401A7C
:10339000DFF8B4164860DFF8C406DFF8BC16097819
:1033A00020F81170DFF8A0064068DFF8B016DFF8EB
:1033B000A826127831F8121010FA81F0DFF888167A
:1033C0004860DFF894060078401CDFF88C1608701F
:1033D000DFF8BC090078012840F0848047F6FF72CE
:1033E0006421380080B201F01CFD7BE0DFF8540658
:1033F0000079DFF8501649790A39884208DBDFF88E
:103400004406C078DFF83C1609790A39884250DA58
:103410000020364981F8100E6421DFF8200600688C
:1034200010F57A60FDF798F9304890F8100E401DBD
:10343000DFF81016C978884221DA2C4890F8100E6F
:10344000401DDFF800160979884218DA274890F8FD
:10345000100E401DDFF8EC15497988420FDADFF8CD
:10346000E4050079C11CDFF8D4050068DFF8D42535
:103470001279282303FB02007830FDF76DF91B4811
:103480001A4991F8101E50F82100962808DA1748BA
:10349000164991F8101E50F82100FDF7BFFD21E0FC
:1034A000DFF8A40540680A2190FBF1F0FDF7B6FDB6
:1034B00018E0DFF8940540680A2190FBF1F0FDF771
:1034C000ADFDDFF8CC08007801280BD14FF61F02C4
:1034D0006421DFF8740540680A2390FBF3F080B2A2
:1034E00001F09FFC0020BDE8FE830000D812FF1F02
:1034F0002DE9F04FADF2AC5D0A2004904FF49B70C3
:1035000003900021002200230024A0200890002026
:103510008DF80B0000208DF80A0000208DF80500C2
:1035200000208DF8040000208DF8070000208DF8A1
:1035300006000025002600275FF0000C5FF0000E5B
:103540008DF809E05FF0000E8DF808E05FF0000EE6
:10355000CDF81CE05FF0000ECDF818E05FF0000E33
:103560005FF00008002086465FFA8EFEBEF13C0F39
:1035700080F2A280DFF8C4040068DFF8CC9499F8E8
:1035800008905FFA8EFEB9EB4E095FF0280A0AFB3D
:103590000909CDF81490002080465FFA88F8B8F148
:1035A000280F22DA0020C0B208281BDADFF890A426
:1035B0005FFA88F85FEAC80959FA80F9CDF800A0E7
:1035C000DDF814A05FFA88F818F80AB0D0F1070AFD
:1035D0005BFA0AFA1AF0010ADDF800B009F80BA04C
:1035E000401CE0E718F10108D7E7DFF85C04007839
:1035F000022829D123200200DFF844041018C078E3
:1036000001280BD1DFF8380410188078012805D183
:10361000DFF82C0410184078012804D00398824267
:1036200001DA521CE8E70398824205DAF3A85FFA50
:103630008EFE40F82E203CE003980DF573795FFA7A
:103640008EFE49F82E0034E0DFF8FC0300780128F4
:103650002FD140F21D100100DFF8E403081810F824
:10366000030C01280DD1DFF8D803081810F8020C5C
:10367000012806D1DFF8C803081810F8010C01284A
:1036800004D00498884201DA491EE5E7049888428C
:1036900006DAFFA8C0305FFA8EFE40F82E1008E070
:1036A00004980DF57F7919F1C0095FFA8EFE49F88B
:1036B0002E001EF1010E57E7DFF88C030078022878
:1036C0007BD1002086465FFA8EFEBEF13B0F26DAE4
:1036D000F3A85FFA8EFE10EB8E0040680DF573794B
:1036E0005FFA8EFE59F82E90B0EB09000DF5FA79CD
:1036F0005FFA8EFE49F82E007DA85FFA8EFE50F824
:103700002E0010F1640F07DA5FF001098DF80890C0
:103710005FFA8EFECDF818E01EF1010ED3E700200F
:1037200086465FFA8EFEBEF13B0F80F2C6809DF8A2
:103730000400002808D17DA85FFA8EFE50F82E0004
:10374000012801DA761C35E09DF80400002824D118
:103750005FFA8EFEBEF1320F1FDA7DA85FFA8EFE91
:1037600050F82E00012818DB7DA85FFA8EFE10EBC2
:103770008E004068012810DB7DA85FFA8EFE10EBFA
:103780008E008068012808DB5FF001098DF8049045
:103790001CF1010C8DF806E00CE09DF804000128F6
:1037A00008D17DA85FFA8EFE50F82E00012801DBBB
:1037B0001CF1010C1EF1010EB3E7DFF88C0200785A
:1037C00001287AD1002086465FFA8EFEBEF13B0FBB
:1037D00028DAFFA8C0305FFA8EFE10EB8E0040683A
:1037E0000DF57F7919F1C0095FFA8EFE59F82E9018
:1037F000B0EB09000DF538795FFA8EFE49F82E001E
:10380000B8A85FFA8EFE50F82E00652807DB5FF03F
:1038100001098DF809905FFA8EFECDF81CE01EF1CB
:10382000010ED1E7002086465FFA8EFEBEF13B0F07
:1038300043DA9DF80500002808D1B8A85FFA8EFE8B
:1038400050F82E00002801D46D1C33E09DF80500CF
:10385000002823D15FFA8EFEBEF1320F1EDAB8A81F
:103860005FFA8EFE50F82E00002817D5B8A85FFA30
:103870008EFE10EB8E00406800280FD5B8A85FFAC6
:103880008EFE10EB8E008068002807D55FF00109DE
:103890008DF805907F1C8DF807E00BE09DF8050082
:1038A000012807D1B8A85FFA8EFE50F82E00002834
:1038B00000D57F1C1EF1010EB6E763480078022890
:1038C0003AD1002086465FFA8EFEBEF13A0F2CDA1E
:1038D0007DA85FFA8EFE10EB8E0040680DF5FA7938
:1038E0005FFA8EFE59F82E90B0EB09000DF1240915
:1038F0005FFA8EFE49F82E0009A85FFA8EFE50F896
:103900002E00012805DB09A85FFA8EFE50F82E0074
:1039100005E009A85FFA8EFE50F82E004042052807
:1039200000DA641C1EF1010ECDE71F2C42DB5FF0B4
:1039300001098DF80A903DE043480078012839D10B
:10394000002086465FFA8EFEBEF13A0F2CDAB8A848
:103950005FFA8EFE10EB8E0040680DF538795FFA45
:103960008EFE59F82E90B0EB09000DF586795FFABE
:103970008EFE49F82E0043A85FFA8EFE50F82E0006
:10398000012805DB43A85FFA8EFE50F82E0005E003
:1039900043A85FFA8EFE50F82E004042052800DA58
:1039A0005B1C1EF1010ECDE71F2B03DB5FF001094D
:1039B0008DF80B902448007802281AD19DF80A004F
:1039C000002835D09DF80400002831D09DF806006D
:1039D00006282DDB9DF806002D2829DA9DF8080021
:1039E000002825D00420DFF8609089F8000001202D
:1039F0001FE01548007801281AD19DF80B00002817
:103A000016D09DF80500002812D09DF80700062862
:103A10000EDB9DF807002D280ADA9DF80900002822
:103A200006D00320DFF8209089F80000012000E094
:103A300000200DF2AC5DBDE8F08F0000A46DFF1F0B
:103A40009811FF1F7804FF1FE404FF1F0000F03FE0
:103A500000F0734000004940C36DFF1F0C21FF1FA1
:103A6000F0B5B6B002000023A020DFF8A0663678DB
:103A7000032E40F0B48000263500EDB2192D60DA37
:103A8000EF263400EDB2AE00082796FBF7F6DFF81C
:103A900078763F68E4B25FF0280C0CFB0477F65DA3
:103AA000EDB2AF005FF0080C97FBFCFE0EFB1C7E36
:103AB000DEF107073E41F60739D5EDB2AE00082723
:103AC00096FBF7F6DFF840763F68E4B25FF0280C2B
:103AD0000CFB0477F61916F8286CEDB2AF005FF016
:103AE000080C97FBFCFE0EFB1C7EDEF107073E4137
:103AF000F6071CD5EDB2AE00082796FBF7F6DFF807
:103B000008763F68E4B25FF0280C0CFB0477F619E6
:103B100016F8506CEDB2AF005FF0080C97FBFCFE9E
:103B20000EFB1C7EDEF107073E41F60704D4E4B22B
:103B30000A2C01DB641EA5E700AEEDB2AC556D1C8E
:103B40009BE700263500EDB2182D0DDA00AEEDB280
:103B5000AE19767800AFEDB2EF5DF61B1EAFEDB299
:103B600047F825606D1CEEE700263500EDB2172DF5
:103B700031DA1EAEEDB216EB850676681EAFEDB2F9
:103B800057F82570F61B07AFEDB247F8256007AE72
:103B9000EDB256F82560012E04DB07AEEDB256F803
:103BA000256004E007AEEDB256F825607642052E9A
:103BB00000DA5B1C07AEEDB256F8256016F10F0F68
:103BC00007DAEDB2022695FBF6F69E4201DA012BEA
:103BD00001DA6D1CCAE7EDB2AE003000CDE0DFF8CF
:103BE0002C653678042E40F0C88000263500EDB2F2
:103BF000192D72DAEF26340040F23F16EDB2B6EB23
:103C00008506082796FBF7F6DFF8FC743F68E4B2F8
:103C10005FF0280C0CFB0477F65D40F23F17EDB225
:103C2000B7EB85075FF0080C97FBFCFE0EFB1C7ED4
:103C3000DEF107073E41F60745D540F23F16EDB2EB
:103C4000B6EB8506082796FBF7F6DFF8BC743F68ED
:103C5000E4B25FF0280C0CFB0477F61916F8286C18
:103C600040F23F17EDB2B7EB85075FF0080C97FB0A
:103C7000FCFE0EFB1C7EDEF107073E41F60722D557
:103C800040F23F16EDB2B6EB8506082796FBF7F635
:103C9000DFF874743F68E4B25FF0280C0CFB047723
:103CA000F61916F8506C40F23F17EDB2B7EB8507E6
:103CB0005FF0080C97FBFCFE0EFB1C7EDEF1070795
:103CC0003E41F60704D4E4B20A2C01DB641E93E7FC
:103CD00000AEEDB2AC556D1C89E700263500EDB2A3
:103CE000182D0DDA00AEEDB2AE19767800AFEDB258
:103CF000EF5DF61B1EAFEDB247F825606D1CEEE7D9
:103D000000263500EDB2172D31DA1EAEEDB216EBFE
:103D1000850676681EAFEDB257F82570F61B07AF23
:103D2000EDB247F8256007AEEDB256F82560012EDA
:103D300004DB07AEEDB256F8256004E007AEEDB245
:103D400056F825607642052E00DA5B1C07AEEDB210
:103D500056F8256016F10F0F07DAEDB2022695FB33
:103D6000F6F69E4201DA012B01DA6D1CCAE740F239
:103D70003F16EDB2B6EB850630009DF80060166088
:103D800000AEEDB2AE5D0E60C0B236B0F0BD000068
:103D90007510FF1F000049C0F0B4B6B00023002426
:103DA00000200200D2B20A2A80F2DC80EF2001005B
:103DB000D2B2032000FB02F0082590FBF5F0DFF8FB
:103DC00048532D68C9B2282606FB0155405DD2B282
:103DD000032505FB02F5082695FBF6F707FB1657AA
:103DE000D7F107052841C0073DD5D2B2032000FB1B
:103DF00002F0082590FBF5F0DFF80C532D68C9B2EE
:103E0000282606FB0155401910F8280CD2B20325CC
:103E100005FB02F5082695FBF6F707FB1657D7F1C9
:103E200007052841C0071ED5D2B2032000FB02F0CF
:103E3000082590FBF5F0DFF8D0522D68C9B228268E
:103E400006FB0155401910F8500CD2B2032505FBB2
:103E500002F5082695FBF6F707FB1657D7F107057D
:103E60002841C00704D4C9B2822901DB491E9FE75B
:103E7000C9B22CA8D2B240F82210EF20010040F2C3
:103E80003F10D2B2032505FB1200082590FBF5F088
:103E9000DFF874522D68C9B2282606FB0155405D33
:103EA00040F23F15D2B2032606FB1255082695FBB9
:103EB000F6F707FB1657D7F107052841C00745D588
:103EC00040F23F10D2B2032505FB1200082590FBFB
:103ED000F5F0DFF834522D68C9B2282606FB0155EB
:103EE000401910F8280C40F23F15D2B2032606FB09
:103EF0001255082695FBF6F707FB1657D7F107056D
:103F00002841C00722D540F23F10D2B2032505FB5D
:103F10001200082590FBF5F0DFF8EC512D68C9B2CE
:103F2000282606FB0155401910F8500C40F23F15A9
:103F3000D2B2032606FB1255082695FBF6F707FBBF
:103F40001657D7F107052841C00704D4C9B2822902
:103F500001DB491E93E7C9B222A8D2B240F8221071
:103F6000521C1FE700200200D2B2092A1DDA2CA839
:103F7000D2B210EB820040682CADD2B255F822507C
:103F8000401B19ADD2B245F8220022A8D2B210EBE4
:103F90008200406822ADD2B255F82250401B10ADCD
:103FA000D2B245F82200521CDEE700200200D2B255
:103FB000082A67DA19A8D2B210EB8200406819AD5E
:103FC000D2B255F82250401B08ADD2B245F82200BB
:103FD00010A8D2B210EB8200406810ADD2B255F8F2
:103FE0002250401B00ADD2B245F8220008A8D2B240
:103FF00050F82200012804DB08A8D2B250F82200B1
:1040000004E008A8D2B250F822004042052812DA93
:1040100019A8D2B250F82200012804DB19A8D2B2A4
:1040200050F8220004E019A8D2B250F82200404211
:10403000012800DB5B1C00A8D2B250F82200012846
:1040400004DB00A8D2B250F8220004E000A8D2B2EB
:1040500050F822004042052812DA10A8D2B250F8D7
:104060002200012804DB10A8D2B250F8220004E09C
:1040700010A8D2B250F822004042012800DB641C94
:10408000521C94E7052B03DB052C01DB01200BE020
:10409000052B03DB01201D4D287004E0052C02DBFD
:1040A00002201A4D2870002036B0F0BC704738B599
:1040B00016480078042803D014480078032801D15A
:1040C00001201FE0FCF7D6FF01281AD1FEF778F98E
:1040D00004009621200000F01BF814300500DFF8E2
:1040E000BC0040F82540290007480068282202FB50
:1040F0000500FCF7D3FCDFF8A40050F82500FCF71E
:104100008DFF002032BD0000A46DFF1FE404FF1FDF
:1041100030B402000800082392FBF3F3204C24681B
:10412000282505FB00441B5D082492FBF4F505FBE4
:104130001425D5F107042341DB0729D5082392FB79
:10414000F3F3174C2468282505FB00441B1913F8CA
:10415000283C082492FBF4F505FB1425D5F107044F
:104160002341DB0714D5082392FBF3F30C4C24689E
:10417000282505FB00441B1913F8503C082492FB2A
:10418000F4F505FB1425D5F107042341DB0703D41F
:10419000022801DB401EBEE730BC7047D812FF1F6B
:1041A000A46DFF1F80B5012301220B21042001F023
:1041B0009DFA012301220A21042001F097FA01232C
:1041C00001220921042001F091FA01230122082192
:1041D000042001F08BFA01BD10B50400FFF7E2FFE7
:1041E000DFF8EC07006830F48060DFF8E41708605F
:1041F000142001F001FBDFF8D807006850F480605C
:10420000DFF8CC170860142001F0F6FACB2000F09C
:1042100001F9392000F0DDF92C2000F0DAF9002056
:1042200000F0D7F9342000F0D4F9022000F0D1F9E1
:10423000CF2000F0EFF8002000F0CBF9C12000F013
:10424000C8F9302000F0C5F9E82000F0E3F8852037
:1042500000F0BFF9002000F0BCF9782000F0B9F9B7
:10426000EA2000F0D7F8002000F0B3F9002000F0B9
:10427000B0F9ED2000F0CEF8642000F0AAF9032098
:1042800000F0A7F9122000F0A4F9812000F0A1F9B4
:10429000F72000F0BFF8202000F09BF9C02000F0CC
:1042A000B9F8232000F095F9C12000F0B3F81020F0
:1042B00000F08FF9C52000F0ADF83E2000F089F93C
:1042C000282000F086F9C72000F0A4F8862000F02E
:1042D00080F9362000F09EF8E4B2002C03D0E820EC
:1042E00000F077F902E0282000F073F93A2000F09E
:1042F00091F8552000F06DF9B12000F08BF8002006
:1043000000F067F9182000F064F9B62000F082F898
:10431000082000F05EF9822000F05BF9272000F011
:1043200058F9F22000F076F8002000F052F926202B
:1043300000F070F8012000F04CF9E02000F06AF87D
:104340000F2000F046F9312000F043F92B2000F057
:1043500040F90C2000F03DF90E2000F03AF9082059
:1043600000F037F94E2000F034F9F12000F031F977
:10437000372000F02EF9072000F02BF9102000F074
:1043800028F9032000F025F90E2000F022F9092079
:1043900000F01FF9002000F01CF9E12000F03AF8CD
:1043A000002000F016F90E2000F013F9142000F0A0
:1043B00010F9032000F00DF9112000F00AF9072090
:1043C00000F007F9312000F004F9C12000F001F9F4
:1043D000482000F0FEF8082000F0FBF80F2000F065
:1043E000F8F80C2000F0F5F8312000F0F2F8362053
:1043F00000F0EFF80F2000F0ECF8112000F00AF8C0
:10440000142001F0F9F9292000F004F82C2000F024
:1044100001F810BDDFF8B815096831F40061DFF864
:10442000B0251160C0B2C109C9B2DFF8A425126875
:1044300061F34922DFF898150A60DFF894150968DE
:1044400031F48071DFF888251160DFF88415096880
:1044500051F48071DFF878251160C0B28109C9B2CA
:10446000DFF86C25126861F34922DFF864150A60F1
:10447000DFF85C15096831F48071DFF854251160AC
:10448000DFF84C15096851F48071DFF8442511609C
:10449000C0B24109C9B2DFF83825126861F3492278
:1044A000DFF82C150A60DFF82815096831F48071EF
:1044B000DFF81C251160DFF81815096851F48071C8
:1044C000DFF80C251160C0B20109C9B2DFF8002580
:1044D000126861F34922DFF8F8140A60DFF8F0147B
:1044E000096831F48071DFF8E8241160DFF8E01426
:1044F000096851F48071DFF8D8241160C0B2C10896
:10450000C9B2DFF8CC24126861F34922DFF8C01485
:104510000A60DFF8BC14096831F48071DFF8B02458
:104520001160DFF8AC14096851F48071DFF8A02441
:104530001160C0B28108C9B2DFF89424126861F337
:104540004922DFF88C140A60DFF88414096831F41A
:104550008071DFF87C241160DFF87414096851F46D
:104560008071DFF86C241160C0B24108C9B2DFF875
:104570006024126861F34922DFF854140A60DFF8FE
:104580005014096831F48071DFF844241160DFF8B9
:104590004014096851F48071DFF834241160C0B20E
:1045A000DFF82C14096860F34921DFF82424116036
:1045B000DFF81C14096831F48071DFF814241160ED
:1045C000DFF80C14096851F48071DFF804241160DD
:1045D0007047DFF8FC13096851F40061DFF8F0233D
:1045E0001160C0B2C109C9B2DFF8E423126861F3F7
:1045F0004922DFF8DC130A60DFF8D413096831F4CC
:104600008071DFF8CC231160DFF8C413096851F41E
:104610008071DFF8BC231160C0B28109C9B2DFF834
:10462000B023126861F34922DFF8A4130A60DFF8AF
:10463000A013096831F48071DFF894231160DFF86A
:104640009013096851F48071DFF884231160C0B2BF
:104650004109C9B2DFF87823126861F34922DFF813
:1046600070130A60DFF86813096831F48071DFF8AD
:1046700060231160DFF85813096851F48071DFF886
:1046800050231160C0B20109C9B2DFF84423126897
:1046900061F34922DFF838130A60DFF83413096840
:1046A00031F48071DFF828231160DFF824130968E2
:1046B00051F48071DFF818231160C0B2C108C9B28B
:1046C000DFF80C23126861F34922DFF804130A6053
:1046D000DFF8FC12096831F48071DFF8F422116010
:1046E000DFF8EC12096851F48071DFF8E422116000
:1046F000C0B28108C9B2DFF8D822126861F349223A
:10470000DFF8CC120A60DFF8C812096831F4807152
:10471000DFF8BC221160DFF8B812096851F480712B
:10472000DFF8AC221160C0B24108C9B2DFF8A022A4
:10473000126861F34922DFF898120A60DFF89012DC
:10474000096831F48071DFF888221160DFF8801287
:10475000096851F48071DFF878221160C0B2DFF887
:104760007012096860F34921DFF864221160DFF8F4
:104770006012096831F48071DFF854221160DFF8AB
:104780005012096851F48071DFF8442211607047BB
:1047900010B50400200AC0B2FFF71BFF2000C0B212
:1047A000FFF717FF10BDF8B504000D0016001F003D
:1047B0002A20FFF72FFE200AC0B2FFF70AFF2000D1
:1047C000C0B2FFF706FF280AC0B2FFF702FF2800B9
:1047D000C0B2FFF7FEFE2B20FFF71CFE300AC0B26E
:1047E000FFF7F7FE3000C0B2FFF7F3FE380AC0B2A1
:1047F000FFF7EFFE3800C0B2FFF7EBFE2C20FFF70B
:1048000009FEF1BD2DE9F04182B004000D00160053
:104810001F00DDF82080CDF800803B003200D2B2CE
:104820002900200000F032F8BDE8F3812DE9F843BB
:1048300004000D0016001F00DDF820805FF0000965
:104840003078002820D0307880280EDACDF800802B
:104850003B00327829005FFA89F914EBC900FFF7B1
:10486000D1FF761C19F10109EAE7CDF800803B0081
:10487000320029005FFA89F914EBC90000F03CF816
:10488000B61C19F10209DBE7BDE8F1832DE9F84F09
:1048900004000D0016001F00DDF8288015F10F033D
:1048A0002A00E11D2000FFF77EFF00208146B9F1BC
:1048B000100F1FD2DFF82404F6B219EB061111F81D
:1048C00000B000208246BAF1080F10D25FFA8BFBCD
:1048D0005FEA0B6003D53800FFF75AFF02E040465D
:1048E000FFF756FF5FEA4B0B1AF1010AEBE719F1EC
:1048F0000109DCE7BDE8F18F2DE9F14F0C0015004F
:104900001E000A9F14F10F032200009810F10F01FE
:104910000098FFF748FF00208246BAF1400F3BD2D3
:10492000DFF8BC03232101FB0A00007829788842C4
:104930002FD1DFF8AC03232101FB0A00407869780E
:10494000884226D100208046B8F1200F21D2DFF81E
:104950009003232101FB0A0018EB000090F803B03C
:1049600000208146B9F1080F10D21FFA8BFB5FEAD5
:104970000B6003D53000FFF70BFF02E03800FFF7B4
:1049800007FF5FEA4B0B19F10109EBE718F101088A
:10499000DAE71AF1010AC0E7BDE8F18F70B504004B
:1049A000EF23002240F23F110020FFF7FCFE002021
:1049B0000500F02D0BD200200600B6F5A07F04D232
:1049C0002000FFF7E5FE761CF7E76D1CF1E770BDF0
:1049D00000F10F402DE9F44F8AB004000D009A4613
:1049E000149E159F5FF000085FF0000900208146CB
:1049F0000A985FFA89F919F8000000280CD00A9883
:104A00005FFA89F919F8000001A95FFA89F909F834
:104A1000010019F10109EBE7202001A95FFA89F9EA
:104A200009F8010019F10109BAF1000F0BD52D2089
:104A300001A95FFA89F909F8010019F101095FF08C
:104A4000FF3000FB0AFABAF10A0F0EDA1AF1300051
:104A500001A95FFA89F909F80100002001A95FFAAC
:104A600089F919EB01014870E0E0BAF10A0F1FDB88
:104A7000BAF1640F1CDA0A209AFBF0F0303001A979
:104A80005FFA89F909F801000A209AFBF0F100FBAE
:104A900011A0303001A95FFA89F919EB01014870C2
:104AA000002001A95FFA89F919EB01018870BDE0C6
:104AB000BAF57A7F2BDA64209AFBF0F0303001A946
:104AC0005FFA89F909F801000A209AFBF0F00A213F
:104AD00090FBF1F201FB1200303001A95FFA89F975
:104AE00019EB010148700A209AFBF0F100FB11A0BC
:104AF000303001A95FFA89F919EB010188700020B3
:104B000001A95FFA89F919EB0101C8708EE042F240
:104B1000107082453BDA4FF47A709AFBF0F0303037
:104B200001A95FFA89F909F8010064209AFBF0F005
:104B30000A2190FBF1F201FB1200303001A95FFA6B
:104B400089F919EB010148700A209AFBF0F00A215B
:104B500090FBF1F201FB1200303001A95FFA89F9F4
:104B600019EB010188700A209AFBF0F100FB11A0FB
:104B7000303001A95FFA89F919EB0101C8700020F2
:104B800001A95FFA89F919EB010108714EE0DFF81C
:104B9000AC0182454ADA42F210709AFBF0F03030F4
:104BA00001A95FFA89F909F801004FF47A709AFBBC
:104BB000F0F00A2190FBF1F201FB1200303001A964
:104BC0005FFA89F919EB0101487064209AFBF0F053
:104BD0000A2190FBF1F201FB1200303001A95FFACB
:104BE00089F919EB010188700A209AFBF0F00A217B
:104BF00090FBF1F201FB1200303001A95FFA89F954
:104C000019EB0101C8700A209AFBF0F100FB11A01A
:104C1000303001A95FFA89F919EB01010871002010
:104C200001A95FFA89F919EB010148715FF0000BE6
:104C30005FFA8BFBBBF1070F0CDA00973B002022D9
:104C400029005FFA8BFB14EBCB00FFF7DBFD1BF1B8
:104C5000010BEDE70020814601A85FFA89F919F8F8
:104C60000000002836D001A85FFA89F919F8000081
:104C7000802812DA0097330001A85FFA89F919F841
:104C8000002029005FFA88F814EBC800FFF7BAFD8E
:104C900019F1010918F1010811E00097330001A88A
:104CA0005FFA89F919F8002029005FFA88F814EBF7
:104CB000C800FFF721FE19F1020918F10208009758
:104CC0003B00202229005FFA88F814EBC800FFF7A8
:104CD00099FDC1E70BB0BDE8F08F0000F804FF1F9D
:104CE000F80CFF1FF8B50400EF23002240F23F113B
:104CF0000020FFF758FD00200500F02D1DDA0020F0
:104D00000600282E17DA00200700082F11DA2820C5
:104D100000FB0540305C80213941084203D000206F
:104D2000FFF736FD03E04FF6FF70FFF731FD7F1C04
:104D3000EBE7761CE5E76D1CDFE7F1BDA08601001F
:104D40002DE9FF4F83B05FF000095FF0000ABDF866
:104D50001400BDF80C10401A8346BDF81800BDF8C9
:104D60001010401A0500BDF80C000700BDF8100037
:104D70008046BBF1010F02DB012001900AE0BBF18C
:104D8000000F02D10020019004E05FF0FF3001909D
:104D9000DBF1000B012D02DB0120009008E0002D6B
:104DA00002D10020009003E05FF0FF3000906D42E0
:104DB0005D4501DA5E4600E02E0000200400701C14
:104DC000A4B2A04218DB414689B2380080B200F09C
:104DD00016F81BEB090915EB0A0A4E4503DAB9EB85
:104DE00006090198C719564504DABAEB060A009875
:104DF00010EB0808641CE2E707B0BDE8F08F38B597
:104E000004000D00ADB22B00ADB22A00A4B2210007
:104E1000A4B22000FFF7C7FC4FF47840FFF7B8FCBE
:104E200031BDF8B504000D001600ADB26B1CADB27B
:104E30006A1EA4B2611CA4B2601EFFF7B4FC00207D
:104E40000700FFB2092F05DAB6B23000FFF7A0FC69
:104E50007F1CF6E7F1BD50F8041B61B150F8042B3C
:104E6000D30744BFA9F101039A180023091F42F890
:104E7000043BFAD1EFE77047010040F10780F446A8
:104E8000404200F003F851F00041604709D0B0FA09
:104E900080F18840C91CC1F58461090501EBD0216E
:104EA00040057047F0B540F2FF7581EA030C0CF045
:104EB000004C15EA11541DBF15EA1357AC42AF421E
:104EC000E5E0BC41C1F31301C3F31303801A994118
:104ED00043F4801304D2641E4000494180185941B4
:104EE000C90241EA5051B1FBF3F603FB1611A2FBD4
:104EF0000675D7EBC020A94102D2761E8018594111
:104F0000C90241EA5051B1FBF3FE03FB1E11A2FBA3
:104F10000E75D7EBC020A94103D2AEF1010E801867
:104F20005941890241EA9051760546EA8E2EB1FB3D
:104F3000F3F603FB1611A2FB0675D7EB8020A941FF
:104F400002D2761E80185941C90241EA50514EEAF8
:104F5000060EB1FBF3F603FB1611A2FB0675D7EBA9
:104F6000C020A94102D2761E80185941C90241EAE7
:104F70005051B1FBF3F703FB1711A2FB0735D3EB3D
:104F8000C020A94167F100070CBF004247F00107AC
:104F900066F3D5274FEA1E31B80814F5806412DD98
:104FA000BD0775F1004250EB0E5051EB045111F565
:104FB000801F5CBF41EA0C01F0BD4CF07F6141F005
:104FC000E0410020F0BDBD076D0840EA0E5041F4FD
:104FD0008011D4F10104B4F120060ADAC4F12006EC
:104FE0000200E04001FA06F3E1401843B2401543E5
:104FF0000EE0342C13DCC6F1200445EA40056D08B0
:1050000020FA06F2154321FA06F0A1400D430021D3
:1050100075F1004250F1000051EB0C01F0BD002091
:105020005FEA0C01F0BDCFB992185B41B3FA83F788
:1050300004BFB2FA82F6BF190B3FB7F120062FBFAB
:1050400002FA06F3BB40C7F1200622FA06F638BF83
:105050003343BA401CB1E419641E33E77F4231F098
:105060000041B1FA81F404BFB0FA80F6A4190B3CF8
:10507000B4F120062FBF00FA06F1A140C4F12006CA
:1050800020FA06F638BF3143A0403C1B1AE7AC4279
:105090001ABF05EA1357AF4212E050EA41061CBF9F
:1050A00052EA4306BFE750EA4107304661461CBF5B
:1050B00041EA0551F0BD52EA430C08BFC143F0BDBF
:1050C00000204FF4001616EB410F98BF16EB430F6C
:1050D00008BF16EB410F24BFC14305E016EB430F99
:1050E0000CBF61464CEA0551F0BD0000F446400D8E
:1050F00040EAC120490006D200F00EF8004248BF45
:105100006FF00040604700F007F84FF00041884220
:105110008CBF08464042604740F00040490DA1F571
:105120008061491C05D4D1F11F0154BFC840C0178C
:1051300070474FF000007047B0B581EA030C0CF0E7
:10514000004C40F2FF7515EA11541DBF15EA1357C4
:10515000AC42AF4239E0E41923EA455343F48013EB
:10516000C90241F0004141EA505EC7021100A7FBAD
:10517000020200284FF00000EEFB01204FF000017A
:10518000E3FB072118BF42F001024018002149410A
:10519000E3FB0E01A4F580640F0302D252004041EC
:1051A000494154F101046CDD470872F1004250F1AD
:1051B000000051EB0451A1F580115CBF41EA0C01E4
:1051C000B0BD4CEA05510020B0BD05EA1357AC4212
:1051D00014BFAF4241E050EA410E1CBF52EA430EF9
:1051E00002E061460020B0BD24423C441BD15FEA8E
:1051F000070EF6D0090302BF01460020AEF1140EDF
:10520000B1FA81F7AEEB070401FA07FE0C37C7F1DC
:10521000200100FA07F7C8404EEA000E23EA455382
:1052200043F48013A2E733F00043B3FA83F704BFDB
:10523000B2FA82FE77440B3FE41BB7F1200E2FBF7A
:1052400002FA0EF3BB40C7F1200E22FA0EFE38BF61
:1052500043EA0E03BA40641C82E750EA410E14BFD1
:1052600052EA430E6FF000014FF4001717EB430FA3
:105270008ABF194617EB410FB5E74CEA05510020EC
:10528000B0BDD4F10104B4F120070FDAC4F1200756
:10529000520828BF42F0010210FA07F501FA07F799
:1052A000E1BF2A43E0403843E1400FE0352C98DC71
:1052B000C7F1200452EA400220FA07F218BF42F078
:1052C000010231FA07F0A1400A43002172F10042C5
:1052D00050F1000051EB0C01B0BD000070B44FF074
:1052E000004591EA030C44BF6B4000F00FB900BFCA
:1052F000841A71EB030603D2001BB14112197341EA
:105300004FF4001C1CEB410F34BF7CEB430443E023
:105310000C0DA4EB1356352E50DC45EAC323DB0AF3
:1053200045EAC121C912B6F120050DDD63FA05F683
:10533000EB4086EA0305124218BF45F00105C0188C
:1053400051F100010CD213E062FA06F5F24055402B
:10535000F3415A40B340F3405A408018594107D3B3
:1053600049085FEA30005FEA350528BF45F00105CE
:1053700001F58011420875F1004250F1000041EB47
:10538000045170BC4FF4001C1CEB410F38BF704738
:105390000020090D090570471CEB410F10D252EA9D
:1053A00043060BD0BCEB410F05D80C0DAB43661E7A
:1053B000342EB5DD02E0AB438018594170BC704714
:1053C00070BC7047002840F10980F446404200F06C
:1053D00005F850F000406047002800BF0AD0B0FA3E
:1053E00080F18840D1F19D01C905020672F10042A9
:1053F00041EB10207047000070B504000D00686894
:10540000A8606C60E86828612968686800F006FA9E
:1054100006005FF07E50296800F06CFA296900F000
:10542000FDF9310000F0DAFAE860E86870BD0000CC
:105430004100090E7F3915D4D1F11F0114D4400069
:1054400007D2C00140F00040C84048BF6FF00040A4
:105450007047C00140F00040C8404CBF4FF00040D2
:10546000404270470020704700424FF0004058BF54
:10547000C043704730B40200FF24002000252B00F9
:105480009BB289B28B420BD29BB29D5CE4B2A54227
:1054900004D29BB29D5C2C001D0028005B1CEFE732
:1054A000C0B230BC704710B40200012000242300B9
:1054B000DBB2C9B28B4202D250435B1CF8E710BC8E
:1054C000704730B40200002000252B00DBB2C9B2C7
:1054D0008B420ED200252C00E4B2082C07DADBB296
:1054E0009D5C254115F001052818641CF4E75B1C40
:1054F000ECE730BC7047000070B44FF0004591EA13
:10550000030F44BF6B40FFF7F3BE00BF841A71EB7B
:10551000030604D26E40001BB141121973414FF4CF
:10552000001C1CEB410F34BF7CEB430684E00C0DE8
:10553000A4EB1356362E7DDC012E43DC45EAC32353
:1055400043EA525312BFD20292025B08240545EA95
:10555000C12141EA5051D2EBC020994125D407D155
:10556000B0FA80F610FA06F164D00020203608E088
:10557000B1FA81F6B140C6F1200220FA02F21143DD
:10558000B0404FEAF474B4EB465434F001064FEAED
:1055900074040AD8D6F50016760D04F00044F040E5
:1055A00061FA06F25040F1404840C00A40EA4150DA
:1055B00021F0004128BF5FEA500550F1000044EBA4
:1055C000D12137E045EAC323DB0A45EAC121C90AF4
:1055D000B6F120050EDD42EA0242120CC5F12006AA
:1055E00003FA06F6EB4042EA06056D42984161F186
:1055F00000010DE062FA06F5F240554063FA06FC40
:1056000082EA0C02F3405A406D42904161EB030183
:1056100011F4801F05D1641E620502D06D00404167
:10562000494121F48011430875F1004350F1000015
:1056300041EB045170BC70471CEB410F15D223F0B5
:10564000004352EA43060BD04FEA4C0CBCEB410F2F
:1056500004D80C0D661E342EB7DDEBE7801A994195
:1056600050EA410608BF0021E4E708BF1CEB430FE6
:1056700028BF6FF00001DDE780B50023012218216B
:10568000042000F033F800F001F801BD80B51648A1
:10569000006850F08070144908600A2000F0ACF8EF
:1056A0001148006830F080700F49086001BD0E4954
:1056B000096851F080710C4A1160012101708178F4
:1056C00041707047017801290DD14178002907D137
:1056D0000549096831F08071034A116000210170A9
:1056E0004178491E4170704700F10F40F8B5040041
:1056F0000D0016001F00EDB2202D02D2FFB2022FC6
:1057000003D32421384800F0ABF93848E4B250F80C
:105710002400EDB2F6B256F4807140F82510F0077F
:1057200005D5F6B2032E02D0F6B2132E0DD13048B5
:10573000E4B250F8240040690121A94088432C4973
:10574000E4B251F8241048612AE02948E4B250F844
:10575000240040690121A94008432549E4B251F8D9
:1057600024104861FFB2012F0DD12148E4B250F856
:10577000240000680121A94008431D49E4B251F802
:10578000241008600CE01A48E4B250F824000068C5
:105790000121A94088431649E4B251F82410086059
:1057A000F1BD30B4C0B2420910F01F03114C24689F
:1057B0004FF4007595402C430E4D2C6031F4E061A0
:1057C0000A4CD2B254F82240DBB254F8234014F40D
:1057D000E0642143054CD2B254F82240DBB244F8D5
:1057E000231030BC70470000A0A100003C04FF1F44
:1057F0002804FF1F3880044000231900814209D289
:10580000054B1B681A00002A02D000BF521EFAE79F
:10581000491CF3E770470000B06DFF1FFF2212EA3A
:10582000D05C1DBF12EAD153944593422BE09C44B7
:10583000D30780EA01021A4043EA002043EA01212B
:10584000A1FB0030410038BF40007CF17F010BDB41
:10585000FE294ADA5B0842EAC15153EA006373F158
:10586000004C51EB10207047D1F1080CDCF1200105
:105870002FDB5B0810FA01F10B4373F1004120FAB2
:105880000CF05041704794451CBF02EAD15393423B
:1058900080EA010202F000421DD0400019D0490008
:1058A00017D05BB9634514D00902B1FA81F399406E
:1058B000BCEB030CC00140F00040C1E70002B0FAAD
:1058C00080FC10FA0CF0B3EB0C0CC90141F0004164
:1058D000B6E71000704740000AD0490008D010F128
:1058E000807F94BF11F1807F02E042F0FF4070475B
:1058F000D043704790EA010F44BF81F0004100F0AF
:1059000075B800BF431A4FF000423EBF5340C01A63
:10591000C91800BFD3095FEAD05C13EB400F34BF56
:10592000B3EB410F40E07CEBD1530CD342EA0121B1
:1059300022D8D1EB402009D3400A28BF5FEA5001AA
:1059400040EBCC507047401A15D04002B0FA80F2BC
:10595000521C9040400A4FEA3C23B3EB026384BFE1
:1059600000EB730007E040F400001A16DB07C2F1F9
:105970000102D04018437047182BFCDC31FA03F2C7
:1059800002FA03F3591A38BF42F00102D2EB402069
:105990003CBF4000ACF1010C5FEACC5CC20572F187
:1059A00000414CEB5020704713EB400F0FD24B00DF
:1059B00009D0ACEBD153022B03DB4902172BDDDD01
:1059C00070479143401A4300D5D10020704713EB34
:1059D000410FD0D36FF000007047000090EA010F34
:1059E00044BF81F00041FFF78DBF00BF421A3CBFAA
:1059F000801A89184FF0004CC0F3C752FF2A24D0F8
:105A0000C1F3C75313B3D21AD2F1190327DD4CEAFD
:105A100001214CFA03F321EA0303D140C20D4CEA01
:105A20000020401834BF20EA0C004CEA5000D20598
:105A300053EA006373EB0C0C52EB1020420012F19E
:105A4000807F38BF7047C00DC0057047490212BF44
:105A50009A4200EB5120F8E7D2F11703D9D57047ED
:105A600038B504000D002A002100024800F0A1FA18
:105A7000F9E700BF0CA1000070B504000D0016008E
:105A80003068012802D0022805D00AE02000C0B208
:105A90007168884705E0B0680470B068401CB06069
:105AA000FFE72868401C286070BD2DE9F04704001E
:105AB0005FF0000A5046A1465FF0000A89F800A096
:105AC00019F10109002A1FD0D1F800A05546002D78
:105AD00005D15FF0300A89F800A0401C38E0002DA5
:105AE00036D095FBF3FA564603FB165A5746002F5D
:105AF00002D5FF43313700E03037350089F80070B8
:105B000019F10109401CEAE7D1F800A0D446BCF124
:105B1000000F05D15FF0300A89F800A0401C17E0A3
:105B2000BCF1000F14D0BCFBF3FAD64603FB1ECA2F
:105B3000D046B8F10A0F02D218F1300801E018F18E
:105B40003708F44689F8008019F10109401CE7E79D
:105B5000BDE8F0872DE9F04104000D0016001F009C
:105B6000A046A84507DA3A0031003020FFF784FF4D
:105B700018F10108F5E7BDE8F0812DE9F0410400D6
:105B80000D0016001F00A046A84507DA3A003100B4
:105B90002020FFF771FF18F10108F5E7BDE8F0815B
:105BA0002DE9F24F92B004001500002000901298E9
:105BB00083469BF8000001900198002800F0F581D1
:105BC0000198252813D001980A2805D0220000A9A1
:105BD0000198FFF751FF09E0220000A90D20FFF70F
:105BE0004BFF220000A90A20FFF746FFDAE1002060
:105BF0008146002004900498002822D11BF1010B5B
:105C00009BF8000020280ED0232812D02B2807D084
:105C10002D2802D0302809D00EE059F00109EAE71A
:105C200059F00209E7E759F00409E4E759F00809D7
:105C3000E1E759F01009DEE7BBF1010B0120049008
:105C4000D9E700208246002004900498002814D14F
:105C50001BF1010B9BF800000190019830380928D6
:105C600006D80A20019900FB0A10B0F1300AECE7CF
:105C7000BBF1010B01200490E7E71BF1010B9BF83E
:105C800000002E2811D100200490049800280ED185
:105C90001BF1010B9BF800003038092800D8F4E70D
:105CA000BBF1010B01200490EFE7BBF1010B1BF1ED
:105CB000010B9BF800004C2806D0682802D06C2805
:105CC00001D002E003E002E001E0BBF1010B1BF1B7
:105CD000010B9BF8000001900198582875D06228AC
:105CE00000F0D580632800F01D81642813D0692856
