:10000000F8FF00201104000041AA0000396D000033
:1000100041AA000041AA000041AA000041AA000034
:1000200041AA000041AA000041AA000041AA000024
:1000300041AA000041AA0000376D00003B6D00009E
:10004000056D000041AA000041AA000041AA00007D
:1000500041AA000041AA000041AA000041AA0000F4
:1000600041AA000041AA000041AA000041AA0000E4
:1000700041AA000041AA000041AA000041AA0000D4
:1000800041AA000041AA000041AA000041AA0000C4
:1000900041AA000041AA000041AA000041AA0000B4
:1000A00041AA000041AA000041AA000041AA0000A4
:1000B00041AA000041AA000041AA000041AA000094
:1000C00041AA000041AA000041AA000041AA000084
:1000D00041AA000041AA000041AA000041AA000074
:1000E00041AA000041AA000041AA000041AA000064
:1000F00041AA000041AA000041AA00003D6D000095
:1001000041AA00003F6D000041AA0000416D0000BF
:1001100041AA000041AA000041AA0000456D00006C
:1001200041AA000041AA000041AA000041AA000023
:1001300041AA000041AA0000E7740000E974000031
:10014000EB74000041AA000041AA000041AA00008F
:100150009570000041AA00007573000067730000ED
:1001600041AA000041AA000041AA000041AA0000E3
:1001700041AA000041AA000041AA000041AA0000D3
:1001800041AA000041AA000041AA000041AA0000C3
:1001900041AA000041AA000041AA000085730000A6
:1001A000CD73000083730000316C0000E574000023
:1001B00041AA000041AA000041AA000041AA000093
:1001C00041AA000041AA000041AA000041AA000083
:1001D00041AA000041AA000041AA000041AA000073
:1001E00041AA000041AA000041AA000041AA000063
:10040000FFFFFFFFFFFFFFFFFFFFFFFFFEFFFFFFFD
:1004100062B64FF000004FF000014FF000024FF0C5
:1004200000034FF000044FF000054FF000064FF0BE
:1004300000074FF000084FF000094FF0000A4FF09E
:10044000000B4FF0000C08F00FFBFEE700B583B087
:100450000020DFF8201D08700020DFF81C1D81F847
:10046000100E00F073FCDFF8140D0079412804DA57
:100470000120DFF8881C087003E00020DFF87C1CF6
:10048000087000F087FE02F087FD0020DFF8C01C36
:100490000870DFF8EC0C0078002848D10120DFF864
:1004A000B01C08700020DFF8D01C81F8100E642109
:1004B000DFF8D00C006810F57A6000F04DF9DFF835
:1004C000B80C90F8100E401DDFF8B01CC9788842B7
:1004D00023DADFF8A40C90F8100E401DDFF89C1C06
:1004E0000979884219DADFF8900C90F8100E401D57
:1004F000DFF8881C497988420FDADFF8800C007930
:10050000C11CDFF8800C0068DFF8702C12792823FA
:1005100003FB0200783000F01FF9DFF85C0CDFF815
:10052000581C91F8101E50F8210000F077FDDFF8FC
:10053000580C0078012840F0F0804FF6FF700190D1
:100540004FF478400090DFF8300CDFF82C1C91F865
:10055000101E50F82130DFF8342C6421FA2004F00A
:10056000FBF94FF6FF7001904FF478400090DFF8F0
:10057000080CDFF8041C91F8101E081890F8C0331E
:10058000DFF80C2C7821FA2004F0E6F94FF6FF7022
:1005900001904FF478400090DFF8DC0BDFF8D81BB7
:1005A00091F8101E081890F8303C5EA28C21FA20B9
:1005B00004F0D2F94FF6FF7001904FF478400090AC
:1005C000DFF8B40BDFF8B01B91F8101E10EB8100C0
:1005D000D0F8B03454A2A021FA2004F0BDF94FF6AF
:1005E000FF7001904FF478400090DFF88C0BDFF83B
:1005F000881B91F8101E081890F8203D4BA2B421DA
:10060000FA2004F0A9F94FF6FF7001904FF47840FA
:100610000090DFF8640BDFF8601B91F8101E10EB00
:100620008100D0F8703842A2C821FA2004F094F971
:10063000DFF84C0B007800280CD0022820D014D30F
:10064000042833D027D3062846D03AD3082859D0D7
:100650004DD362E04FF6FF7000904FF4784335A21F
:10066000DC21FA2004F0A4F857E04FF6FF70009068
:100670004FF4784330A2DC21FA2004F099F84CE0E2
:100680004FF6FF7000904FF478432CA2DC21FA2043
:1006900004F08EF841E04FF6FF7000904FF478437D
:1006A00027A2DC21FA2004F083F836E04FF6FF7031
:1006B00000904FF4784323A2DC21FA2004F078F86C
:1006C0002BE04FF6FF7000904FF478431EA2DC2120
:1006D000FA2004F06DF820E04FF6FF7000904FF420
:1006E00078431AA2DC21FA2004F062F815E04FF6F4
:1006F000FF7000904FF4784315A2DC21FA2004F03B
:1007000057F80AE04FF6FF7000904FF4784311A2BB
:10071000DC21FA2004F04CF8FFE70020DFF8541B3E
:10072000087007BD4C0000004C5F560052000000EE
:10073000525F56004E0000004C70000052700000E6
:100740004C690000526900004C6F0000526F0000BD
:100750004C570000525700002DE9F14F88B00C00B3
:100760005FF0A0080A2006904FF49B7005900027C8
:1007700000265FF0000B5FF0000A5FF064090020C4
:100780008DF808000025F02C01DA002C01D500209E
:1007900081E1DFF8E40A0078002807D1DFF8D80A01
:1007A0000078401CDFF8D01A087011E0DFF8C809A3
:1007B00050F82400DFF8C41949784018022190FB52
:1007C000F1F08046DFF8B009201890F8C0038146A8
:1007D00000200500282D12DA002008280DDA0899DB
:1007E000695CD0F10702114111F00101DFF88C2A98
:1007F00010EBC5039954401CEFE76D1CEAE7464631
:10080000DFF8780A3018C07801280BD1DFF86C0ABD
:1008100030188078012805D1DFF8600A3018407858
:10082000012804D00598864201DA761CE8E705988D
:10083000864209DA04960120DFF83C19611881F834
:10084000200D0120824607E0002082460020DFF8CC
:100850002819611881F8200D4746DFF8200A38185A
:1008600010F8030C01280DD1DFF8100A381810F821
:10087000020C012806D1DFF8040A381810F8010C20
:10088000012804D00698B84201DA7F1EE5E70698F1
:10089000B84209DA03970120DFF8DC18611881F803
:1008A000300C0120834607E0002083460020DFF85B
:1008B000C818611881F8300C474501D0464513D15E
:1008C000002082460020DFF8B018611881F8200D62
:1008D000002083460020DFF8A018611881F8300C52
:1008E00001208DF8080002E000208DF808009DF836
:1008F0000800012819D1D22C17DADFF87C0810EB98
:100900008400C0F80C8019F10800DFF86C18611839
:1009100081F8C303E11CDFF86C080068282202FBA1
:1009200004007830FFF718FF4CE05AEA0B0000286B
:1009300048D0BBF1010F0BD0BAF1010F08D10498D8
:10094000B0EB090080460498B0EB4900039039E011
:10095000BBF1010F0BD1BAF1010F08D0039819EBCD
:1009600000008046039810EB490004902AE0BBF198
:10097000010F27D1BAF1010F24D104980399401A2D
:1009800004F03CFA00225FF0804304F04DFA04F0DA
:100990006FFB8146B9F1640F02DA6420814604E0FE
:1009A000B9F18D0F01DB8C2081460498039908185A
:1009B00004F024FA00225FF0804304F035FA04F0DA
:1009C00057FB8046B8F1230F02DA2320804605E06A
:1009D000B8F58F7F02DB40F21D108046404604F0E0
:1009E0000DFACDE90001B4F164005FF0FF31484336
:1009F00004F004FA0022DFF84C3C04F05FFB002214
:100A0000DFF8443C04F010FA0022DFF8403C04F028
:100A100027FCDDE9002304F023FC04F029FBDFF8C8
:100A2000581741F82400DFF8500790F8100EA04244
:100A300003DADFF8440780F8104E0398B0F5A07F82
:100A400003DB40F23F10039004E00398002801D537
:100A5000002003900398DFF8201711EB8401C1F800
:100A6000B0040498B0F5A07F03DB40F23F1004907F
:100A700004E00498002801D5002004900498DFF8D1
:100A8000F81611EB8401C1F87008DFF8EC062018A5
:100A900080F8C093002009B0BDE8F08F2DE9F14F38
:100AA00088B00C005FF0A0090A2006904FF49B70FC
:100AB0000590002700265FF0000B5FF0000A5FF052
:100AC000640800208DF810000025F02C01DA002CBD
:100AD00001D5002037E1DFF8780B0078002807D136
:100AE000DFF86C0B0078401CDFF8641B08700AE02C
:100AF000DFF8840650F824008146DFF87C062018D1
:100B000090F8C003804600200500282D12DA00204E
:100B100008280DDA0899695CD0F10702114111F03B
:100B20000101DFF8582710EBC5039954401CEFE78B
:100B30006D1CEAE74E46DFF844073018C0780128FC
:100B40000BD1DFF8380730188078012805D1DFF89D
:100B50002C0730184078012804D00598864201DA25
:100B6000761CE8E70598864209DA03960120DFF84B
:100B70000816611881F8200D0120824607E0002048
:100B800082460020DFF8F015611881F8200D4F46ED
:100B9000DFF8E806381810F8030C01280DD1DFF84B
:100BA000DC06381810F8020C012806D1DFF8CC0654
:100BB000381810F8010C012804D00698B84201DA60
:100BC0007F1EE5E70698B84209DA02970120DFF8B0
:100BD000A815611881F8300C0120834607E0002039
:100BE00083460020DFF89015611881F8300C5AEA2E
:100BF0000B00002848D0BBF1010F0BD0BAF1010F58
:100C000008D10398B0EB080081460398B0EB480088
:100C1000029039E0BBF1010F0BD1BAF1010F08D0FE
:100C2000029818EB00008146029810EB48000390F0
:100C30002AE0BBF1010F27D1BAF1010F24D10398AB
:100C40000299401A04F0DAF800225FF0804304F0C1
:100C5000EBF804F00DFA8046B8F1640F02DA642074
:100C6000804604E0B8F18D0F01DB8C2080460398AC
:100C70000299081804F0C2F800225FF0804304F0E3
:100C8000D3F804F0F5F98146B9F1230F02DA2320F5
:100C9000814605E0B9F58F7F02DB40F21D108146E9
:100CA000484604F0ABF8CDE90001B4F164005FF010
:100CB000FF31484304F0A2F80022DFF8883904F03D
:100CC000FDF90022DFF8803904F0AEF80022DFF8E9
:100CD0007C3904F0C5FADDE9002304F0C1FA04F020
:100CE000C7F9DFF8941441F824000298B0F5A07F0A
:100CF00003DB40F23F10029004E00298002801D587
:100D0000002002900298DFF8701411EB8401C1F802
:100D1000B0040398B0F5A07F03DB40F23F100390CE
:100D200004E00398002801D5002003900398DFF821
:100D3000481411EB8401C1F87008DFF83C04201856
:100D400080F8C083002009B0BDE8F08F2DE9F043A2
:100D5000DFF828040078DFF824144978DFF81C2431
:100D600092780023002400255FF0EF0E764680B2D3
:100D70005FF0080E90FBFEFEDFF80884D8F80080D4
:100D8000F6B25FF0280909FB06881EF808E080B279
:100D90005FF0080890FBF8F909FB1809D9F107087A
:100DA0005EFA08FE5FEACE7E3FD580B25FF0080EA5
:100DB00090FBFEFEDFF8CC83D8F80080F6B25FF03F
:100DC000280909FB06881EEB080E1EF828EC80B2E5
:100DD0005FF0080890FBF8F909FB1809D9F107083A
:100DE0005EFA08FE5FEACE7E1FD580B25FF0080E85
:100DF00090FBFEFEDFF88C83D8F80080F6B25FF03F
:100E0000280909FB06881EEB080E1EF850EC80B27C
:100E10005FF0080890FBF8F909FB1809D9F10708F9
:100E20005EFA08FE5FEACE7E04D4F6B2022E01DB43
:100E3000761E9CE7F6B2EF2E02D05FF0010E7346ED
:100E4000DFF838E38EF803605FF0EF0E774689B283
:100E50005FF0080E91FBFEFEDFF82883D8F80080D3
:100E6000FFB25FF0280909FB07881EF808E089B285
:100E70005FF0080891FBF8F909FB1819D9F1070888
:100E80005EFA08FE5FEACE7E3FD589B25FF0080EBB
:100E900091FBFEFEDFF8EC82D8F80080FFB25FF035
:100EA000280909FB07881EEB080E1EF828EC89B2FA
:100EB0005FF0080891FBF8F909FB1819D9F1070848
:100EC0005EFA08FE5FEACE7E1FD589B25FF0080E9B
:100ED00091FBFEFEDFF8AC82D8F80080FFB25FF035
:100EE000280909FB07881EEB080E1EF850EC89B292
:100EF0005FF0080891FBF8F909FB1819D9F1070808
:100F00005EFA08FE5FEACE7E04D4FFB2022F01DB58
:100F10007F1E9CE7FFB2EF2F02D05FF0010E7546F7
:100F2000DFF858E28EF804705FF0EF0EF44692B2EC
:100F30005FF0080E92FBFEFEDFF84882D8F80080D2
:100F40005FFA8CFC5FF0280909FB0C881EF808E0AA
:100F500092B25FF0080892FBF8F909FB1829D9F161
:100F600007085EFA08FE5FEACE7E41D592B25FF0D6
:100F7000080E92FBFEFEDFF80C82D8F800805FFAC4
:100F80008CFC5FF0280909FB0C881EEB080E1EF88C
:100F900028EC92B25FF0080892FBF8F909FB1829D7
:100FA000D9F107085EFA08FE5FEACE7E20D592B23C
:100FB0005FF0080E92FBFEFEDFF8C881D8F80080D3
:100FC0005FFA8CFC5FF0280909FB0C881EEB080E09
:100FD0001EF850EC92B25FF0080892FBF8F909FB9A
:100FE0001829D9F107085EFA08FE5FEACE7E07D419
:100FF0005FFA8CFCBCF1020F02DBBCF1010C96E73E
:101000005FFA8CFCBCF1EF0F02D05FF0010E74466A
:10101000DFF868E18EF805C0BDE8F083F8B504009C
:1010200054480078012801D100203CE0DFF8781A0C
:101030000F00200004F088F9390004F09FF904F053
:10104000B9F90500DFF8641A0F00200004F07CF9FC
:10105000390004F093F904F0ADF906000120454988
:10106000087047480078012803D0454800780228D6
:1010700005D1D5F1A000DFF8381A086012E0404829
:101080000078032803D03E480078032805D1D6F124
:10109000A000DFF81C1A086004E0D4F1A000DFF81B
:1010A000101A08600020F2BD38B5002500200400A9
:1010B000E4B2052C12DA282171480068E4B2052256
:1010C00002FB04F2282303FB020010F57A6004F00F
:1010D000BAF9062800DA6D1C641CE9E7EDB2022DAE
:1010E00009DB6848C078782803DB664840797828AF
:1010F00001DA012000E0002032BD0000B96DFF1FC1
:10110000DFF8B0090068B0F5617F06D9DFF8A809FB
:10111000006840F26D71884216D2DFF898090068C5
:1011200040F26D71884205D3DFF88C090068B0F594
:10113000617F09D8DFF87C090068DFF87C1909684D
:101140000818B0F5486F01D9012000E00020704771
:10115000C46DFF1FDFF860090068B0F5FA6F05D8AD
:10116000DFF850090068B0F5FA6F01D9012000E0FE
:1011700000207047B86DFF1FD412FF1F7804FF1FB7
:101180008004FF1FA06DFF1F7110FF1FE8A9000062
:10119000F0A9000080B500F00AF800F075F800F042
:1011A000B4FB00F08DFC01F0B5FC002002BD10B5D1
:1011B0000024DFF808090078002814D100F000FFAF
:1011C0000400E4B2002C0ED0FFF79AFF01280AD1E8
:1011D000DFF8E8080470DFF8CC0D006830F020007C
:1011E000DFF8C01D0860DFF8D408007805281DD19D
:1011F000FFF7B0FF01283BD10720DFF8C0180870C7
:101200000120DFF8B81881F85800DFF8B008B0F80E
:101210005C00DFF8A818A1F85A00DFF8880D006814
:1012200050F02000DFF87C1D086021E0DFF88C081A
:10123000007806281CD1FFF78DFF012818D108205F
:10124000DFF8781808700120DFF8701881F858006E
:10125000DFF86808B0F85C00DFF86018A1F85A0001
:10126000DFF8400D006850F02000DFF8381D0860FE
:10127000002010BDC86DFF1FBA6DFF1F9411FF1F26
:10128000A06DFF1F7804FF1F2DE9F84300208DF8A3
:101290000000DFF828080078012806D0DFF81C08D5
:1012A0000078022801D00120CAE100A800F0D2F99C
:1012B000060016F1010F3FD1DFF8000890F830006A
:1012C000401CDFF8F81781F83000DFF8F007C06A3B
:1012D000FFF7A4FEDFF8E40790F830000D28C0F215
:1012E000AE81DFF8D807007801280FD10320DFF89E
:1012F000CC1708700120DFF8C41781F83900DFF837
:10130000BC07808FDFF8B417488798E1DFF8AC0797
:101310000078022840F093810420DFF8A0170870BD
:101320000120DFF8981781F83900DFF89007808FE7
:10133000DFF88817488782E1DFF880070078012806
:1013400040F0D380DFF8600C40783230B0424DDAA4
:10135000DFF8680790F83000401CDFF8601781F86C
:1013600030000020DFF8441C81F8100E6421DFF803
:10137000400C006810F57A60FFF7EEF9DFF82C0CEE
:1013800090F8100E401DDFF8201CC978884223DA3F
:10139000DFF8180C90F8100E401DDFF80C1C0979CE
:1013A000884219DADFF8040C90F8100E401DDFF8BF
:1013B000F81B497988420FDADFF8EC0B0079C11C81
:1013C000DFF8EC0B0068DFF8E02B1279282303FB31
:1013D00002007830FFF7C0F9DFF8D00BDFF8CC1B44
:1013E00091F8101E50F82100070077E00020DFF888
:1013F000CC1681F830009DF80000552835DA300011
:1014000003F0FCFC80468946A6F23F109DF80010D0
:101410006439484303F0F2FC00228A4B03F04EFE8D
:1014200004000D009DF80000DFF8901691F82B10D5
:10143000401A03F0E3FC02000B002000290003F037
:10144000F3FC02000B004046494604F017F8002266
:101450005FF0804303F0E8FC0022DFF8583B03F024
:10146000FFFE03F005FE070034E0300003F0C6FC89
:1014700080468946A6F23F109DF800106439484323
:1014800003F0BCFC00226F4B03F018FE04000D00BB
:101490009DF80000DFF8241691F82B10401A03F095
:1014A000ADFC02000B002000290003F0BDFC02008F
:1014B0000B004046494603F0E1FF00225FF0804305
:1014C00003F0B2FC0022DFF8F03A03F0C9FE03F0AB
:1014D000CFFD0700232F01DA23200700DFF8DC050A
:1014E000C7623800FFF79AFD9EE0DFF8D00500786C
:1014F000022840F09980DFF8B00A407832388642FE
:101500004DDADFF8B80590F83000401CDFF8AC1574
:1015100081F830000020DFF8941A81F8100E642161
:10152000DFF88C0A006810F57A60FFF715F9DFF82C
:101530007C0A90F8100E401DDFF86C1AC9788842BA
:1015400023DADFF8680A90F8100E401DDFF8581A09
:101550000979884219DADFF8540A90F8100E401D14
:10156000DFF8441A497988420FDADFF83C0A00793B
:10157000C11CDFF83C0A0068DFF82C2A1279282306
:1015800003FB02007830FFF7E7F8DFF8200ADFF806
:101590001C1A91F8101E50F8210007003EE00020B0
:1015A000DFF8181581F83000300003F027FC804682
:1015B00089469DF80000643800FB06F003F01EFC2D
:1015C0000022204B03F07AFD04000D009DF800007E
:1015D000DFF8E81491F82B10401A03F00FFC02001A
:1015E0000B002000290003F01FFC02000B00404606
:1015F000494603F043FF0022DFF8C03903F030FE14
:1016000000225FF0804303F00FFC03F031FD070080
:10161000B7F58F7F02DB40F21D100700DFF89C0456
:10162000C7623800FFF7FAFCDFF8180D00780128D0
:1016300005D11F226421380080B203F0B4FB0020E2
:10164000BDE8F2830000F03F00002EC00000F0BFB4
:10165000BB6DFF1F2DE9F14FBEB00A244FF49B75FF
:101660000026002700208DF804005FF000085FF0DE
:1016700000095FF0000A00F069FE0090DFF83C040A
:101680000078022805D10098C9280DDB5FF0FF30F3
:1016900038E1DFF828040078012805D1009878287F
:1016A00002DA5FF0FF302DE1002081465FFA89F910
:1016B000B9F1140F80F2A580DFF8F40800685FFA32
:1016C00089F90321DFF8F42392F82A2001FB09218C
:1016D000282202FB01008346002082465FFA8AFA34
:1016E000BAF1280F1BDA0020C0B2082814DADFF89C
:1016F000581C5FFA8AFA5FEACA0252FA80F25FFA6D
:101700008AFA1AF80B30D0F1070C53FA0CF313F0E5
:1017100001035354401CE7E71AF1010ADEE7DFF842
:101720009C030078022831D100980700DFF8180CDC
:101730003818C07801280BD1DFF80C0C38188078E5
:10174000012805D1DFF8000C38184078012803D0B3
:10175000AF4201DA7F1CE9E7AF4205DA03A85FFA7E
:1017600089F920F8197049E0DFF83C0840780A3020
:10177000874205DA03A85FFA89F920F819503DE09D
:1017800003A85FFA89F920F8195037E0CB480078B0
:10179000012833D100980600DFF8AC0B301810F8A0
:1017A000030C01280DD1DFF8A00B301810F8020C43
:1017B000012806D1DFF8900B301810F8010C012831
:1017C00003D0B44201DA761EE6E7B44205DA0DA88A
:1017D0005FFA89F920F8196010E0DFF8CC0740784B
:1017E0000A38B04205DA0DA85FFA89F920F81940E5
:1017F00004E00DA85FFA89F920F8194019F10109F0
:1018000054E7AE480078022834D1002081465FFAC0
:1018100089F9B9F1130F68DA03A85FFA89F910EBB7
:101820004900408803A95FFA89F931F81910401A74
:1018300017A95FFA89F941F8290017A85FFA89F911
:1018400050F829001F2812DB0120804603A85FFA08
:1018500089F930F8190002905FFA89F90320974955
:1018600091F82A1000FB09103E9908703DE019F12B
:101870000109CCE791480078012836D10020814643
:101880005FFA89F9B9F1130F2FDA0DA85FFA89F918
:1018900010EB490040880DA95FFA89F931F8191059
:1018A000401A2AA95FFA89F941F829002AA85FFAA3
:1018B00089F950F8290010F11E0F13DA01208DF874
:1018C00004000DA85FFA89F930F8190002905FFA58
:1018D00089F90320794991F82A1000FB09103E99F3
:1018E000087002E019F10109CAE75FFA88F8B8F157
:1018F000000F06D19DF80400002802D15FF0FF30F0
:1019000000E002983FB0BDE8F08F80B56B480078EA
:10191000032805D069480078042801D00120C2E0DE
:101920000020DFF8881681F8100E644890F838100F
:10193000DFF87C060068614A92F83820282303FB10
:101940000200FEF709FFDFF8640690F8100E401D54
:10195000DFF85416C978884223DADFF8500690F889
:10196000100E401DDFF840160979884219DADFF8B9
:101970003C0690F8100E401DDFF82C16497988427D
:101980000FDADFF824060079C11CDFF824060068AE
:10199000DFF814261279282303FB02007830FEF7C3
:1019A000DBFEDFF80806DFF8041691F8101E50F889
:1019B0002100FFF733FBDFF8900A0078052803DBEE
:1019C0000020DFF8841A0870DFF8800A0068DFF86A
:1019D000801ADFF8742A127851F82210401ADFF8C2
:1019E0006C1A0860DFF8C405DFF8C01591F8101E06
:1019F00050F82100DFF8581ADFF84C2A127841F825
:101A00002200DFF8480A0068DFF8441ADFF8382AB5
:101A1000127851F822100818DFF8301A0860DFF841
:101A2000280A0078401CDFF8201A0870234890F834
:101A30003E00012836D100F0E7FE012807D11F48FB
:101A400090F83F00401C1D4981F83F0003E0002052
:101A50001A4981F83F00194890F83F00022821DB1D
:101A60001648007803280CD1DFF8E0090068AF3091
:101A7000022190FBF1F01149486305200F490870DD
:101A800010E00E48007804280CD1DFF8C009006887
:101A900000F29150022190FBF1F0084948630620C2
:101AA00006490870002002BD5004FF1F6404FF1F98
:101AB0000822FF1F4C21FF1F5021FF1F8004FF1F22
:101AC0002DE9F843DFF82C0D0078062806D0DFF862
:101AD000240D0078052801D0012060E2DFF8181DF0
:101AE000DFF8180D00F0B6FC0600DFF8080D0078EE
:101AF000062840F02C81300003F080F980468946AA
:101B0000DFF8F40C0068643800FB06F003F076F9A7
:101B10000022DFF8EC3C03F0D1FA04000D00DFF8FE
:101B2000D80C0068DFF8D41C0968401A03F066F985
:101B300002000B002000290003F076F902000B00E0
:101B40004046494603F09AFC0022DFF8703403F067
:101B500087FB00225FF0804303F066F90022DFF884
:101B6000A43C03F07DFB03F083FA070016F1010F9C
:101B700059D0DFF8340440783C30B84253DAB7F536
:101B80008F7F02DB40F21D1007003800FFF746FA96
:101B9000DFF8600C90F84000052804DB0020DFF837
:101BA000541C81F84000DFF84C0C406BDFF8441CFB
:101BB000DFF8402C92F8402011EB8201496C401A6A
:101BC000DFF8301C4863DFF82C0CDFF8281C91F894
:101BD000401010EB81004764DFF8180C406BDFF811
:101BE000141CDFF8102C92F8402011EB8201496C94
:101BF0000818DFF8001C4863DFF8F80B90F8400085
:101C0000401CDFF8F01B81F84000DFF8380700784F
:101C1000012840F0C38147F6FF726421380080B28A
:101C200003F0C1F8BAE116F1010F64D0DFF8C80B78
:101C3000006855285FDA0020DFF8701381F8100E75
:101C40006421DFF86C03006810F57A60FEF784FD0C
:101C5000D64890F8100E401DD349C97888421CDA46
:101C6000D24890F8100E401DCF490979884214DA05
:101C7000CE4890F8100E401DCB49497988420CDAC5
:101C8000C9480079C11CCA480068C74A127928238C
:101C900003FB02007830FEF75FFDC34840783C301C
:101CA000C249C24A92F8102E51F82210884208DA2E
:101CB000BE48BE4991F8101E50F82100FFF7AEF95A
:101CC0006CE1DFF8300B406B052190FBF1F0B64979
:101CD00049783C31814208DADFF8180B406B052166
:101CE00090FBF1F0FFF79AF958E1AF484078503097
:101CF000FFF794F952E1DFF8FC0A406B052190FBF5
:101D0000F1F0A94949783C31814208DADFF8E40A68
:101D1000406B052190FBF1F0FFF780F904E0A24849
:101D200040785030FFF77AF9DFF81806007801287C
:101D300040F034814FF61F026421DFF8B80A406B8F
:101D4000052390FBF3F080B203F02DF826E1DFF8D5
:101D5000A40A0078052840F02181300003F04EF8F5
:101D600080468946A6F23F10DFF88C1A096864396C
:101D7000484303F043F80022DFF8843A03F09EF969
:101D800004000D00DFF8700A0068DFF8701A0968B7
:101D9000401A03F033F802000B002000290003F082
:101DA00043F802000B004046494603F067FB00225F
:101DB0005FF0804303F038F80022DFF8543D03F071
:101DC0004FFA03F055F9070016F1010F56D0764887
:101DD00040783C38874251DA232F01DA232007006C
:101DE0003800FFF71BF9DFF80C0A90F840000528CF
:101DF00004DB0020DFF8FC1981F84000DFF8F4096B
:101E0000406BDFF8F019DFF8EC2992F8402011EB75
:101E10008201496C401ADFF8DC194863DFF8D40905
:101E2000DFF8D01991F8401010EB81004764DFF81B
:101E3000C409406BDFF8BC19DFF8B82992F84020DC
:101E400011EB8201496C0818DFF8A8194863DFF824
:101E5000A40990F84000401CDFF8981981F8400070
:101E6000DFF8E0040078012840F0988047F6FF7220
:101E70006421380080B202F096FF8FE016F1010F66
:101E800062D0DFF87409006855285DDA0020474900
:101E900081F8100E64214648006810F57A60FEF75C
:101EA0005BFC424890F8100E401D3F49C9788842BB
:101EB0001CDA3E4890F8100E401D3B4909798842D3
:101EC00014DA3A4890F8100E401D37494979884293
:101ED0000CDA35480079C11C35480068324A12795D
:101EE000282303FB02007830FEF736FC2F482F49E9
:101EF00091F8101E50F821002B4949783C3988424E
:101F000008DA2A48294991F8101E50F82100FFF7F5
:101F100085F843E0DFF8DC08406B052190FBF1F029
:101F2000214949783C39884208DADFF8C808406B13
:101F3000052190FBF1F0FFF771F82FE01A48407887
:101F40005038FFF76BF829E0DFF8A808406B05214F
:101F500090FBF1F0144949783C39884208DADFF8FF
:101F60009408406B052190FBF1F0FFF757F804E06F
:101F70000D4840785038FFF751F8DFF8C803007873
:101F800001280BD14FF61F026421DFF86808406B6F
:101F9000052390FBF3F080B202F005FF0020BDE8BE
:101FA000F2830000C0F00F407804FF1FD412FF1F1F
:101FB000A06DFF1F0000344000002A4000F0734075
:101FC0002DE9F04FA3B00A214FF49B7200230024A7
:101FD0000025002600208DF8030000208DF8020067
:101FE00000208DF8010000208DF8000000275FF030
:101FF000000E00200700FFB20A2F80F2A080DFF859
:10200000F40B0068FFB25FEA870CDFF8E89799F8F5
:102010002A901CEB090C5FF0280909FB0C00804694
:10202000002086465FFA8EFEBEF1280F1CDA0020E3
:10203000C0B2082815DADFF810C35FFA8EFE5FEA37
:10204000CE0959FA80F95FFA8EFE1EF808A0D0F189
:10205000070B5AFA0BFA1AF0010A09F80CA0401CF7
:10206000E6E71EF1010EDDE7DFF88C0B4078040097
:10207000B5482018C078012809D1B34820188078C5
:10208000012804D1B04820184078012803D0944298
:1020900001DA641CECE7944206DADFF85807FFB275
:1020A00010EB4700C48212E0DFF84C0B40780A3096
:1020B000844206DADFF83C07FFB210EB4700C28229
:1020C00005E0DFF83007FFB210EB4700C282DFF80F
:1020D000280B407803009C48181810F8030C0128BE
:1020E0000BD19948181810F8020C012805D1964810
:1020F000181810F8010C012803D0994201DA5B1E70
:10210000E9E7994206DADFF8EC06FFB210EB470088
:10211000438012E0DFF8E00A40780A38984206DA95
:10212000DFF8D006FFB210EB4700418005E0DFF892
:10213000C406FFB210EB470041807F1C5BE7002024
:102140000700FFB2092F29DADFF8A806FFB210EB6B
:1021500047008088DFF89CC6FFB21CEB470CBCF838
:1021600002C0B0EB0C000DF1680CFFB24CF8270078
:10217000DFF88006FFB210EB4700008BDFF874C673
:10218000FFB21CEB470CBCF816C0B0EB0C000DF115
:10219000440CFFB24CF827007F1CD2E70020070058
:1021A000FFB2082F80F2A2801AA8FFB210EB8700BE
:1021B00040680DF1680CFFB25CF827C0B0EB0C0072
:1021C0000DF1240CFFB24CF8270011A8FFB210EB60
:1021D000870040680DF1440CFFB25CF827C0B0EBFB
:1021E0000C000DF1040CFFB24CF8270009A8FFB257
:1021F00050F82700012804DB09A8FFB250F8270097
:1022000004E009A8FFB250F827004042052812DA7E
:102210001AA8FFB250F82700012804DB1AA8FFB261
:1022200050F8270004E01AA8FFB250F827004042F7
:10223000012800DB6D1C01A8FFB250F8270001281F
:1022400004DB01A8FFB250F8270004E001A8FFB2A8
:1022500050F827004042052812DA11A8FFB250F8C2
:102260002700012804DB11A8FFB250F8270004E082
:1022700011A8FFB250F827004042012800DB761C6D
:1022800009A8FFB250F8270010F1170F12DADFF893
:102290006405FFB210EB470040881F280ADBFFB23D
:1022A000022097FBF0F0A84204DA012D02DB0120A6
:1022B0008DF8010001A8FFB250F82700182813DBA1
:1022C000DFF83005FFB210EB4700C08AB0F5907F11
:1022D0000ADCFFB2022097FBF0F0B04204DA012ED4
:1022E00002DB01208DF800007F1C59E7062D02DB80
:1022F00001208DF80300062E02DB01208DF802007C
:102300009DF80000002805D09DF80100002801D0AC
:10231000002014E09DF80300002805D09DF800007F
:10232000012801D102200AE09DF80200002805D012
:102330009DF80100012801D1012000E0002023B018
:10234000BDE8F08F7110FF1F9411FF1F30B585B0ED
:1023500000200500EDB2142D6CDAB4200400EDB2BB
:102360000A2000FB05F04130082190FBF1F0DFF876
:1023700084180968E4B2282202FB0411405CEDB223
:102380000A2101FB05F14131082291FBF2F303FB25
:102390001213D3F107010841C00741D5EDB20A205D
:1023A00000FB05F04130082190FBF1F0DFF8441804
:1023B0000968E4B2282202FB0411401810F8280C26
:1023C000EDB20A2101FB05F14131082291FBF2F344
:1023D00003FB1213D3F107010841C00720D5EDB26A
:1023E0000A2000FB05F04130082190FBF1F0DFF8F6
:1023F00004180968E4B2282202FB0411401810F8FE
:10240000500CEDB20A2101FB05F14131082291FB8C
:10241000F2F303FB1213D3F107010841C00704D400
:10242000E4B20A2C01DB641E99E700A8EDB22C543B
:102430006D1C8FE7142100A802F0DEFF0A2148433B
:10244000413005B030BD0000BC6DFF1FFC20FF1FF8
:10245000E820FF1F2DE9F041C1B0020000235FF02A
:10246000FF300024E34F3F78062F40F0D180002753
:102470003E00F6B21E2E6FDAC8273D00F6B2B70056
:102480005FF0080C97FBFCF7DFF868C7DCF800C0CA
:10249000EDB25FF0280E0EFB05CC17F80C70F6B20B
:1024A0005FEA860C5FF0080E9CFBFEF808FB1EC876
:1024B000D8F1070C57FA0CF7FF0743D5F6B2B7006F
:1024C0005FF0080C97FBFCF7DFF828C7DCF800C0CA
:1024D000EDB25FF0280E0EFB05CC17EB0C0717F8DA
:1024E000287CF6B25FEA860C5FF0080E9CFBFEF8D3
:1024F00008FB1EC8D8F1070C57FA0CF7FF0721D5C7
:10250000F6B2B7005FF0080C97FBFCF7DFF8E4C603
:10251000DCF800C0EDB25FF0280E0EFB05CC17EB27
:102520000C0717F8507CF6B25FEA860C5FF0080ED5
:102530009CFBFEF808FB1EC8D8F1070C57FA0CF7F5
:10254000FF0704D4EDB20A2D01DB6D1E96E700AF44
:10255000F6B2F555761C8CE700273E00F6B21D2E2C
:1025600011DA00AFF6B2F7197F780DF1000CF6B270
:1025700016F80CC0B7EB0C070DF1900CF6B24CF846
:102580002670761CEAE700273E00F6B21C2E37DAEA
:1025900024AFF6B217EB86077F680DF1900CF6B208
:1025A0005CF826C0B7EB0C070DF1200CF6B24CF826
:1025B000267008AFF6B257F82670012F04DB08AF7B
:1025C000F6B257F8267004E008AFF6B257F8267056
:1025D0007F42052F00DA5B1C08AFF6B257F8267071
:1025E00017F10F0F0ADAF6B2022796FBF7F79F42B0
:1025F00004DA012B02DB01273C0001E0761CC4E772
:10260000E4B2012C40F0EB80F6B2B7003800E6E00F
:10261000784F3F78052F40F0E28000273E00F6B269
:102620001E2E80F27F80C8273D0040F23F17F6B291
:10263000B7EB86075FF0080C97FBFCF7DFF8B4C533
:10264000DCF800C0EDB25FF0280E0EFB05CC17F8E9
:102650000C7040F23F1CF6B2BCEB860C5FF0080E2B
:102660009CFBFEF808FB1EC8D8F1070C57FA0CF7C4
:10267000FF074DD540F23F17F6B2B7EB86075FF084
:10268000080C97FBFCF7DFF86CC5DCF800C0EDB276
:102690005FF0280E0EFB05CC17EB0C0717F8287C13
:1026A00040F23F1CF6B2BCEB860C5FF0080E9CFBC0
:1026B000FEF808FB1EC8D8F1070C57FA0CF7FF0705
:1026C00026D540F23F17F6B2B7EB86075FF0080C4D
:1026D00097FBFCF7DFF81CC5DCF800C0EDB25FF03B
:1026E000280E0EFB05CC17EB0C0717F8507C40F2B8
:1026F0003F1CF6B2BCEB860C5FF0080E9CFBFEF8AC
:1027000008FB1EC8D8F1070C57FA0CF7FF0704D4D2
:10271000EDB20A2D01DB6D1E87E700AFF6B2F5556D
:10272000761C7CE700273E00F6B21D2E11DA00AFC2
:10273000F6B2F7197F780DF1000CF6B216F80CC05E
:10274000B7EB0C070DF1900CF6B24CF82670761C26
:10275000EAE700273E00F6B21C2E37DA24AFF6B2C5
:1027600017EB86077F680DF1900CF6B25CF826C077
:10277000B7EB0C070DF1200CF6B24CF8267008AF41
:10278000F6B257F82670012F04DB08AFF6B257F8FF
:10279000267004E008AFF6B257F826707F42052F86
:1027A00000DA5B1C08AFF6B257F8267017F10F0F6E
:1027B0000ADAF6B2022796FBF7F79F4204DA012BFA
:1027C00002DB01273C0001E0761CC4E7E4B2012CE7
:1027D00005D140F23F17F6B2B7EB860738009DF8F7
:1027E0000070176000AFF6B2F75D0F6041B0BDE852
:1027F000F08100008004FF1F0421FF1F0021FF1F44
:102800000000F03F000034C0F0B4AAB00021002066
:10281000DFF8E8472478042C40F0B380002423003C
:10282000DBB2142B5FDAC8242200DBB29C001E341A
:10283000082594FBF5F4DFF8BC532D68D2B22826A6
:1028400006FB0255645DDBB29D001E35082695FB34
:10285000F6F707FB1657D7F107052C41E40738D5E3
:10286000DBB29C001E34082594FBF5F4DFF884539A
:102870002D68D2B2282606FB0255641914F8284C9C
:10288000DBB29D001E35082695FBF6F707FB1657B1
:10289000D7F107052C41E4071BD5DBB29C001E34A1
:1028A000082594FBF5F4D34D2D68D2B2282606FBFB
:1028B0000255641914F8504CDBB29D001E350826F1
:1028C00095FBF6F707FB1657D7F107052C41E407F0
:1028D00004D4D2B20A2A01DB521EA6E700ACDBB256
:1028E0001A555B1C9CE700242300DBB2132B0DDA86
:1028F00000ACDBB21C19647800ADDBB25D5D641B1B
:1029000017ADDBB245F823405B1CEEE70024230043
:10291000DBB2122B80F2F78017ACDBB214EB83042E
:10292000646817ADDBB255F82350641B05ADDBB20C
:1029300045F8234005ACDBB254F82340012C04DBFE
:1029400005ACDBB254F8234004E005ACDBB254F82C
:1029500023406442052C00DA491C05ACDBB254F874
:10296000234014F10F0F0ADADBB2022493FBF4F4D4
:102970008C4204DA012902DB01242000C3E05B1C45
:10298000C6E7DFF878462478032C40F0BC800024AA
:102990002300DBB2142B69DAC824220040F2211490
:1029A000DBB2B4EB8304082594FBF5F4914D2D685C
:1029B000D2B2282606FB0255645D40F22115DBB237
:1029C000B5EB8305082695FBF6F707FB1657D7F1FD
:1029D00007052C41E4073FD540F22114DBB2B4EBEC
:1029E0008304082594FBF5F4824D2D68D2B2282685
:1029F00006FB0255641914F8284C40F22115DBB28D
:102A0000B5EB8305082695FBF6F707FB1657D7F1BC
:102A100007052C41E4071FD540F22114DBB2B4EBCB
:102A20008304082594FBF5F4724D2D68D2B2282654
:102A300006FB0255641914F8504C40F22115DBB224
:102A4000B5EB8305082695FBF6F707FB1657D7F17C
:102A500007052C41E40704D4D2B20A2A01DB521E36
:102A60009CE700ACDBB21A555B1C92E70024230004
:102A7000DBB2132B0DDA00ACDBB21C19647800ADAD
:102A8000DBB25D5D641B17ADDBB245F823405B1C18
:102A9000EEE700242300DBB2122B34DA17ACDBB2F2
:102AA00014EB8304646817ADDBB255F82350641B44
:102AB00005ADDBB245F8234005ACDBB254F823404A
:102AC000012C04DB05ACDBB254F8234004E005AC78
:102AD000DBB254F823406442052C00DA491C05ACF3
:102AE000DBB254F8234014F10F0F0ADADBB20224F0
:102AF00093FBF4F48C4204DA012902DB0124200068
:102B000001E05B1CC7E7C0B22AB0F0BC7047000010
:102B10000000394010B582B0DFF8E00400780728E3
:102B200006D0DFF8D8040078082801D0012060E042
:102B300000A800F063F8040014F1010F3ED100205A
:102B4000DFF82C1981F8100E64212A48006810F56E
:102B50007A60FDF701FEDFF8180990F8100E401DAD
:102B60002549C97888421EDADFF8040990F8100E6A
:102B7000401D21490979884215DADFF8F40890F8F8
:102B8000100E401D1C49497988420CDA1A48007918
:102B9000C11C18480068184A1279282303FB020058
:102BA0007830FDF7D9FDDFF8C808DFF8C41891F8D0
:102BB000101E50F82100FEF731FA19E00020DFF86E
:102BC000B01881F8100E9DF800100A4800689DF8B2
:102BD0000020282303FB0200FDF7BEFDDFF890086C
:102BE000DFF88C1891F8101E50F82100FEF716FA45
:102BF000002016BDA06DFF1F7804FF1F2DE9F14FC7
:102C0000E2B00A244FF49B75002600275FF000080D
:102C10005FF0000900208DF8010000208DF8000011
:102C20005FF0000A5FF0000BFFF790FB0190DFF808
:102C3000CC030078022805D10198C9280DDB5FF08C
:102C4000FF30A6E1DFF8B4030078012805D1019830
:102C5000782802DA5FF0FF309BE1002082465FFABD
:102C60008AFABAF1140F80F2A780DFF8540D0068D9
:102C70005FFA8AFA0321DFF8842392F82A2001FB05
:102C80000A21282202FB01000390002083465FFAFC
:102C90008BFBBBF1280F1CDA0020C0B2082815DA24
:102CA000DFF8201D5FFA8BFB5FEACB0252FA80F25D
:102CB000039B5FFA8BFB1BF80330D0F1070C53FA30
:102CC0000CF313F001035354401CE6E71BF1010B16
:102CD000DDE7CA480078082831D101980700DFF8FD
:102CE000E40C3818C07801280BD1DFF8D80C38185C
:102CF0008078012805D1DFF8CC0C381840780128FD
:102D000003D0AF4201DA7F1CE9E7AF4205DA04A83D
:102D10005FFA8AFA20F81A704BE0DFF8AC0C4078C2
:102D20000A30874205DA04A85FFA8AFA20F81A50B6
:102D30003FE004A85FFA8AFA20F81A5039E0AF4859
:102D40000078072835D1DFF8800C40780600DFF8DE
:102D5000740C301810F8030C01280DD1DFF8640C46
:102D6000301810F8020C012806D1DFF8580C301882
:102D700010F8010C012803D0B44201DA761EE6E710
:102D8000B44205DA0EA85FFA8AFA20F81A6010E059
:102D9000DFF8340C40780A38B04205DA0EA85FFA42
:102DA0008AFA20F81A4004E00EA85FFA8AFA20F89E
:102DB0001A401AF1010A52E7002082465FFA8AFAA5
:102DC000BAF1130F2DDA8D480078082811D104A824
:102DD0005FFA8AFA10EB4A00408804A95FFA8AFA7F
:102DE00031F81A10401A3CA95FFA8AFA41F82A0011
:102DF00014E082480078072810D10EA85FFA8AFAFA
:102E000010EB4A0040880EA95FFA8AFA31F81A10CE
:102E1000401A4FA95FFA8AFA41F82A001AF1010A0A
:102E2000CCE7002082465FFA8AFABAF1120F80F2EC
:102E3000A4807248007808284CD13CA85FFA8AFA2E
:102E400010EB8A0040683CA95FFA8AFA51F82A1010
:102E5000401A18A95FFA8AFA41F82A0018A85FFAFE
:102E60008AFA50F82A00012805DB18A85FFA8AFAC6
:102E700050F82A0005E018A85FFA8AFA50F82A00EC
:102E80004042052801DA19F1010918A85FFA8AFA07
:102E900050F82A0010F11E0F6CDA5FFA8AFABAF1C4
:102EA0000300484566DAB9F1020F63DB01208DF8B3
:102EB000000004A85FFA8AFA30F81A0002905FFA5C
:102EC0008AFA03204D4991F82A1000FB0A106299F2
:102ED000087052E04948007807284BD14FA85FFAA4
:102EE0008AFA10EB8A0040684FA95FFA8AFA51F813
:102EF0002A10401A2AA95FFA8AFA41F82A002AA859
:102F00005FFA8AFA50F82A00012805DB2AA85FFA3E
:102F10008AFA50F82A0005E02AA85FFA8AFA50F8DF
:102F20002A004042052801DA18F101082AA85FFAB0
:102F30008AFA50F82A001F281CDB5FFA8AFABAF1D5
:102F40000300404516DAB8F1020F13DB01208DF8BB
:102F500001000EA85FFA8AFA30F81A0002905FFAB0
:102F60008AFA0320254991F82A1000FB0A10629979
:102F7000087002E01AF1010A55E79DF800000028E8
:102F800006D19DF80100002802D15FF0FF3000E07B
:102F9000029863B0BDE8F08F80B51848007800282B
:102FA00003D1FEF7ADF8012801D101200AE000208D
:102FB000DFF8181A087000F006F800F021F801F0A8
:102FC00038F8002002BD10B50024DFF8000A0078B0
:102FD000032809D0DFF8F4090078042804D0DFF8CA
:102FE000EC090078052801D1012005E000F096FEEB
:102FF00000F040FA0400002010BD00008004FF1F14
:103000002DE9F04383B0DFF8C4090078032806D027
:10301000DFF8B8090078042801D0012025E200A9D2
:1030200001A800F0DFFC0600DFF8A0090078032803
:1030300040F00E810120DFF894198873DFF88C09C5
:103040008089DFF888194881300001F0D7FE80467A
:1030500089460098643800FB06F001F0CFFE00229C
:10306000DFF86C3902F02AF804000D00009801998D
:10307000401A01F0C3FE02000B002000290001F0FD
:10308000D3FE02000B004046494602F0F7F9002249
:10309000DFF8403902F0E4F800225FF0804301F0ED
:1030A000C3FE0022DFF8303902F0DAF801F0E0FF69
:1030B0000700DFF8140940780A30B8424ADAB7F559
:1030C0008F7F02DB40F21D1007003800FDF7A6FFDE
:1030D000DFF8080900780A2803DB0020DFF8FC1875
:1030E0000870DFF8E8084068DFF8F418DFF8EC282B
:1030F000127831F81210401ADFF8D0184860DFF863
:10310000E008DFF8D818097820F81170DFF8BC085B
:103110004068DFF8CC18DFF8C428127831F81210B4
:1031200010FA81F0DFF8A4184860DFF8B0080078E2
:10313000401CDFF8A8180870DFF8D80B00780128C9
:1031400040F0928147F6FF726421380080B201F0AE
:103150002AFE89E1DFF870080079DFF86C18C97879
:103160000A39884208DBDFF860084079DFF8581830
:1031700009790A39884250DA0020BD4981F8100ED9
:103180006421DFF83C08006810F57A60FDF7E4FA86
:10319000B74890F8100E401DDFF82C18C978884207
:1031A00021DAB34890F8100E401DDFF81C18097999
:1031B000884218DAAE4890F8100E401DDFF8081863
:1031C000497988420FDADFF800080079C11CDFF87E
:1031D000F0070068DFF8F0271279282303FB0200CC
:1031E0007830FDF7B9FAA248A14991F8101E50F8BD
:1031F0002100AB2808DB9E489D4991F8101E50F82D
:103200002100FDF70BFF2FE1DFF8C00740680A211E
:1032100090FBF1F0FDF702FF26E1DFF8B007406810
:103220000A2190FBF1F0FDF7F9FEDFF8E80A0078DB
:10323000012840F019814FF61F026421DFF88C0746
:1032400040680A2390FBF3F080B201F0ACFD0BE183
:10325000DFF878070078042840F006810120DFF8C5
:103260006C178873DFF864078089DFF8601748817E
:10327000300001F0C3FD80468946A6F23F10009958
:103280006439484301F0BAFD0022DFF8443701F009
:1032900015FF04000D0000980199401A01F0AEFDE1
:1032A00002000B002000290001F0BEFD02000B000F
:1032B0004046494602F0E2F800225FF0804301F008
:1032C000B3FD0022DFF8503A01F0CAFF01F0D0FE52
:1032D0000700DFF8F40640780A38874248DA232FDF
:1032E00001DA232007003800FDF798FEDFF8EC062E
:1032F00000780A2803DB0020DFF8E0160870DFF80A
:10330000CC064068DFF8D816DFF8D026127831F8FE
:103310001210401ADFF8B4164860DFF8C406DFF870
:10332000BC16097820F81170DFF8A0064068DFF8B5
:10333000B016DFF8A826127831F8121010FA81F0D2
:10334000DFF888164860DFF894060078401CDFF844
:103350008C160870DFF8BC090078012840F08480E2
:1033600047F6FF726421380080B201F01CFD7BE05B
:10337000DFF854060079DFF8501649790A39884297
:1033800008DBDFF84406C078DFF83C1609790A3913
:10339000884250DA0020364981F8100E6421DFF8A7
:1033A0002006006810F57A60FDF7D6F9304890F8ED
:1033B000100E401DDFF81016C978884221DA2C481B
:1033C00090F8100E401DDFF800160979884218DACF
:1033D000274890F8100E401DDFF8EC154979884217
:1033E0000FDADFF8E4050079C11CDFF8D4050068C6
:1033F000DFF8D4251279282303FB02007830FDF78B
:10340000ABF91B481A4991F8101E50F82100962874
:1034100008DA1748164991F8101E50F82100FDF7F8
:10342000FDFD21E0DFF8A40540680A2190FBF1F0E2
:10343000FDF7F4FD18E0DFF8940540680A2190FBE1
:10344000F1F0FDF7EBFDDFF8CC08007801280BD197
:103450004FF61F026421DFF8740540680A2390FBD1
:10346000F3F080B201F09FFC0020BDE8FE83000075
:10347000D412FF1F2DE9F04FADF2AC5D0A2004908D
:103480004FF49B7003900021002200230024A02011
:10349000089000208DF80B0000208DF80A00002015
:1034A0008DF8050000208DF8040000208DF807003D
:1034B00000208DF806000025002600275FF0000C94
:1034C0005FF0000E8DF809E05FF0000E8DF808E067
:1034D0005FF0000ECDF81CE05FF0000ECDF818E0B4
:1034E0005FF0000E5FF00008002086465FFA8EFE57
:1034F000BEF13C0F80F2A280DFF8C4040068DFF860
:10350000CC9499F808905FFA8EFEB9EB4E095FF003
:10351000280A0AFB0909CDF81490002080465FFABA
:1035200088F8B8F1280F22DA0020C0B208281BDA88
:10353000DFF890A45FFA88F85FEAC80959FA80F9C1
:10354000CDF800A0DDF814A05FFA88F818F80AB0EA
:10355000D0F1070A5BFA0AFA1AF0010ADDF800B0A6
:1035600009F80BA0401CE0E718F10108D7E7DFF8E5
:103570005C040078022829D123200200DFF84404EB
:103580001018C07801280BD1DFF8380410188078A3
:10359000012805D1DFF82C0410184078012804D048
:1035A0000398824201DA521CE8E70398824205DA66
:1035B000F3A85FFA8EFE40F82E203CE003980DF54C
:1035C00073795FFA8EFE49F82E0034E0DFF8FC03D1
:1035D000007801282FD140F21D100100DFF8E4032C
:1035E000081810F8030C01280DD1DFF8D8030818CB
:1035F00010F8020C012806D1DFF8C803081810F8EB
:10360000010C012804D00498884201DA491EE5E73C
:103610000498884206DAFFA8C0305FFA8EFE40F8B0
:103620002E1008E004980DF57F7919F1C0095FFAB2
:103630008EFE49F82E001EF1010E57E7DFF88C03CD
:10364000007802287BD1002086465FFA8EFEBEF10C
:103650003B0F26DAF3A85FFA8EFE10EB8E0040686F
:103660000DF573795FFA8EFE59F82E90B0EB0900D4
:103670000DF5FA795FFA8EFE49F82E007DA85FFA03
:103680008EFE50F82E0010F1640F07DA5FF001098A
:103690008DF808905FFA8EFECDF818E01EF1010E4D
:1036A000D3E7002086465FFA8EFEBEF13B0F80F224
:1036B000C6809DF80400002808D17DA85FFA8EFE20
:1036C00050F82E00012801DA761C35E09DF8040040
:1036D000002824D15FFA8EFEBEF1320F1FDA7DA8DA
:1036E0005FFA8EFE50F82E00012818DB7DA85FFAE5
:1036F0008EFE10EB8E004068012810DB7DA85FFA7B
:103700008EFE10EB8E008068012808DB5FF0010957
:103710008DF804901CF1010C8DF806E00CE09DF88A
:103720000400012808D17DA85FFA8EFE50F82E0013
:10373000012801DB1CF1010C1EF1010EB3E7DFF8DB
:103740008C02007801287AD1002086465FFA8EFE2E
:10375000BEF13B0F28DAFFA8C0305FFA8EFE10EBF7
:103760008E0040680DF57F7919F1C0095FFA8EFE71
:1037700059F82E90B0EB09000DF538795FFA8EFEFE
:1037800049F82E00B8A85FFA8EFE50F82E00652882
:1037900007DB5FF001098DF809905FFA8EFECDF826
:1037A0001CE01EF1010ED1E7002086465FFA8EFE76
:1037B000BEF13B0F43DA9DF80500002808D1B8A8F8
:1037C0005FFA8EFE50F82E00002801D46D1C33E005
:1037D0009DF80500002823D15FFA8EFEBEF1320F5E
:1037E0001EDAB8A85FFA8EFE50F82E00002817D512
:1037F000B8A85FFA8EFE10EB8E00406800280FD547
:10380000B8A85FFA8EFE10EB8E008068002807D5FE
:103810005FF001098DF805907F1C8DF807E00BE043
:103820009DF80500012807D1B8A85FFA8EFE50F870
:103830002E00002800D57F1C1EF1010EB6E763485C
:10384000007802283AD1002086465FFA8EFEBEF14B
:103850003A0F2CDA7DA85FFA8EFE10EB8E004068DE
:103860000DF5FA795FFA8EFE59F82E90B0EB09004B
:103870000DF124095FFA8EFE49F82E0009A85FFABF
:103880008EFE50F82E00012805DB09A85FFA8EFE97
:1038900050F82E0005E009A85FFA8EFE50F82E00C1
:1038A0004042052800DA641C1EF1010ECDE71F2CF2
:1038B00042DB5FF001098DF80A903DE04348007853
:1038C000012839D1002086465FFA8EFEBEF13A0FFC
:1038D0002CDAB8A85FFA8EFE10EB8E0040680DF56A
:1038E00038795FFA8EFE59F82E90B0EB09000DF58D
:1038F00086795FFA8EFE49F82E0043A85FFA8EFEA5
:1039000050F82E00012805DB43A85FFA8EFE50F820
:103910002E0005E043A85FFA8EFE50F82E004042CC
:10392000052800DA5B1C1EF1010ECDE71F2B03DB1F
:103930005FF001098DF80B902448007802281AD115
:103940009DF80A00002835D09DF80400002831D0E9
:103950009DF8060006282DDB9DF806002D2829DAA3
:103960009DF80800002825D00420DFF8609089F831
:10397000000001201FE01548007801281AD19DF8A9
:103980000B00002816D09DF80500002812D09DF8E5
:10399000070006280EDB9DF807002D280ADA9DF89F
:1039A0000900002806D00320DFF8209089F80000E5
:1039B000012000E000200DF2AC5DBDE8F08F0000BA
:1039C000A06DFF1F9411FF1F7804FF1FE004FF1F6D
:1039D0000000F03F00F0734000004940BD6DFF1F44
:1039E0000821FF1FF0B5B6B002000023A020DFF8C9
:1039F000A0663678032E40F0B48000263500EDB284
:103A0000192D60DAEF263400EDB2AE00082796FBE0
:103A1000F7F6DFF878763F68E4B25FF0280C0CFB2D
:103A20000477F65DEDB2AF005FF0080C97FBFCFE8B
:103A30000EFB1C7EDEF107073E41F60739D5EDB2DD
:103A4000AE00082796FBF7F6DFF840763F68E4B251
:103A50005FF0280C0CFB0477F61916F8286CEDB211
:103A6000AF005FF0080C97FBFCFE0EFB1C7EDEF146
:103A700007073E41F6071CD5EDB2AE00082796FBBE
:103A8000F7F6DFF808763F68E4B25FF0280C0CFB2D
:103A90000477F61916F8506CEDB2AF005FF0080C21
:103AA00097FBFCFE0EFB1C7EDEF107073E41F6078E
:103AB00004D4E4B20A2C01DB641EA5E700AEEDB22B
:103AC000AC556D1C9BE700263500EDB2182D0DDAC4
:103AD00000AEEDB2AE19767800AFEDB2EF5DF61B39
:103AE0001EAFEDB247F825606D1CEEE700263500ED
:103AF000EDB2172D31DA1EAEEDB216EB8506766803
:103B00001EAFEDB257F82570F61B07AFEDB247F8C0
:103B1000256007AEEDB256F82560012E04DB07AE36
:103B2000EDB256F8256004E007AEEDB256F8256018
:103B30007642052E00DA5B1C07AEEDB256F8256022
:103B400016F10F0F07DAEDB2022695FBF6F69E424C
:103B500001DA012B01DA6D1CCAE7EDB2AE003000CC
:103B6000CDE0DFF82C653678042E40F0C8800026C2
:103B70003500EDB2192D72DAEF26340040F23F160F
:103B8000EDB2B6EB8506082796FBF7F6DFF8FC7476
:103B90003F68E4B25FF0280C0CFB0477F65D40F25E
:103BA0003F17EDB2B7EB85075FF0080C97FBFCFE03
:103BB0000EFB1C7EDEF107073E41F60745D540F2BD
:103BC0003F16EDB2B6EB8506082796FBF7F6DFF851
:103BD000BC743F68E4B25FF0280C0CFB0477F61964
:103BE00016F8286C40F23F17EDB2B7EB85075FF08F
:103BF000080C97FBFCFE0EFB1C7EDEF107073E4126
:103C0000F60722D540F23F16EDB2B6EB850608273F
:103C100096FBF7F6DFF874743F68E4B25FF0280CA7
:103C20000CFB0477F61916F8506C40F23F17EDB212
:103C3000B7EB85075FF0080C97FBFCFE0EFB1C7EC4
:103C4000DEF107073E41F60704D4E4B20A2C01DB9B
:103C5000641E93E700AEEDB2AC556D1C89E70026FB
:103C60003500EDB2182D0DDA00AEEDB2AE19767852
:103C700000AFEDB2EF5DF61B1EAFEDB247F8256069
:103C80006D1CEEE700263500EDB2172D31DA1EAEC1
:103C9000EDB216EB850676681EAFEDB257F82570CB
:103CA000F61B07AFEDB247F8256007AEEDB256F848
:103CB0002560012E04DB07AEEDB256F8256004E066
:103CC00007AEEDB256F825607642052E00DA5B1C91
:103CD00007AEEDB256F8256016F10F0F07DAEDB218
:103CE000022695FBF6F69E4201DA012B01DA6D1CE5
:103CF000CAE740F23F16EDB2B6EB850630009DF8FC
:103D00000060166000AEEDB2AE5D0E60C0B236B0BF
:103D1000F0BD00007110FF1F000049C0F0B4B6B044
:103D20000023002400200200D2B20A2A80F2DC80A4
:103D3000EF200100D2B2032000FB02F0082590FB27
:103D4000F5F0DFF848532D68C9B2282606FB015567
:103D5000405DD2B2032505FB02F5082695FBF6F778
:103D600007FB1657D7F107052841C0073DD5D2B24A
:103D7000032000FB02F0082590FBF5F0DFF80C5360
:103D80002D68C9B2282606FB0155401910F8280CE9
:103D9000D2B2032505FB02F5082695FBF6F707FBD3
:103DA0001657D7F107052841C0071ED5D2B2032008
:103DB00000FB02F0082590FBF5F0DFF8D0522D68EB
:103DC000C9B2282606FB0155401910F8500CD2B292
:103DD000032505FB02F5082695FBF6F707FB1657AA
:103DE000D7F107052841C00704D4C9B2822901DBF5
:103DF000491E9FE7C9B22CA8D2B240F82210EF208A
:103E0000010040F23F10D2B2032505FB1200082545
:103E100090FBF5F0DFF874522D68C9B2282606FB36
:103E20000155405D40F23F15D2B2032606FB125504
:103E3000082695FBF6F707FB1657D7F1070528412B
:103E4000C00745D540F23F10D2B2032505FB120052
:103E5000082590FBF5F0DFF834522D68C9B228260A
:103E600006FB0155401910F8280C40F23F15D2B25C
:103E7000032606FB1255082695FBF6F707FB165797
:103E8000D7F107052841C00722D540F23F10D2B232
:103E9000032505FB1200082590FBF5F0DFF8EC5137
:103EA0002D68C9B2282606FB0155401910F8500CA0
:103EB00040F23F15D2B2032606FB1255082695FBA9
:103EC000F6F707FB1657D7F107052841C00704D4BA
:103ED000C9B2822901DB491E93E7C9B222A8D2B236
:103EE00040F82210521C1FE700200200D2B2092A1B
:103EF0001DDA2CA8D2B210EB820040682CADD2B2F1
:103F000055F82250401B19ADD2B245F8220022A824
:103F1000D2B210EB8200406822ADD2B255F82250E6
:103F2000401B10ADD2B245F82200521CDEE7002043
:103F30000200D2B2082A67DA19A8D2B210EB8200C6
:103F4000406819ADD2B255F82250401B08ADD2B22C
:103F500045F8220010A8D2B210EB8200406810ADE4
:103F6000D2B255F82250401B00ADD2B245F8220023
:103F700008A8D2B250F82200012804DB08A8D2B267
:103F800050F8220004E008A8D2B250F822004042C3
:103F9000052812DA19A8D2B250F82200012804DB51
:103FA00019A8D2B250F8220004E019A8D2B250F8F1
:103FB00022004042012800DB5B1C00A8D2B250F86E
:103FC0002200012804DB00A8D2B250F8220004E04D
:103FD00000A8D2B250F822004042052812DA10A8F8
:103FE000D2B250F82200012804DB10A8D2B250F857
:103FF000220004E010A8D2B250F82200404201286A
:1040000000DB641C521C94E7052B03DB052C01DB51
:1040100001200BE0052B03DB01201D4D287004E07F
:10402000052C02DB02201A4D2870002036B0F0BCAF
:10403000704738B516480078042803D01448007833
:10404000032801D101201FE0FDF72EF801281AD125
:10405000FEF77CF904009621200000F01BF81430D4
:104060000500DFF8BC0040F825402900074800683B
:10407000282202FB0500FCF711FDDFF8A40050F830
:104080002500FCF7CBFF002032BD0000A06DFF1F14
:10409000E004FF1F30B402000800082392FBF3F392
:1040A000204C2468282505FB00441B5D082492FB56
:1040B000F4F505FB1425D5F107042341DB0729D5C9
:1040C000082392FBF3F3174C2468282505FB0044D2
:1040D0001B1913F8283C082492FBF4F505FB142562
:1040E000D5F107042341DB0714D5082392FBF3F332
:1040F0000C4C2468282505FB00441B1913F8503C80
:10410000082492FBF4F505FB1425D5F1070423419F
:10411000DB0703D4022801DB401EBEE730BC70473A
:10412000D412FF1FA06DFF1F80B5012301220C21B7
:10413000042001F063FA012301220B21042001F085
:104140005DFA012301220A21042001F057FA01231C
:1041500001220921042001F051FA01BD10B504002B
:10416000FFF7E2FFDFF8EC07006830F40060DFF8EB
:10417000E4170860142001F0C7FADFF8D8070068D8
:1041800050F40060DFF8CC170860142001F0BCFA8E
:10419000CB2000F001F9392000F0DDF92C2000F0EF
:1041A000DAF9002000F0D7F9342000F0D4F9022029
:1041B00000F0D1F9CF2000F0EFF8002000F0CBF9AB
:1041C000C12000F0C8F9302000F0C5F9E82000F067
:1041D000E3F8852000F0BFF9002000F0BCF978205A
:1041E00000F0B9F9EA2000F0D7F8002000F0B3F9A8
:1041F000002000F0B0F9ED2000F0CEF8642000F0CF
:10420000AAF9032000F0A7F9122000F0A4F98120F8
:1042100000F0A1F9F72000F0BFF8202000F09BF992
:10422000C02000F0B9F8232000F095F9C12000F07B
:10423000B3F8102000F08FF9C52000F0ADF83E2053
:1042400000F089F9282000F086F9C72000F0A4F8D2
:10425000862000F080F9362000F09EF8E4B2002CB1
:1042600003D0E82000F077F902E0282000F073F98D
:104270003A2000F091F8552000F06DF9B12000F0DF
:104280008BF8002000F067F9182000F064F9B620E0
:1042900000F082F8082000F05EF9822000F05BF95F
:1042A000272000F058F9F22000F076F8002000F006
:1042B00052F9262000F070F8012000F04CF9E020BF
:1042C00000F06AF80F2000F046F9312000F043F9C1
:1042D0002B2000F040F90C2000F03DF90E2000F0FA
:1042E0003AF9082000F037F94E2000F034F9F120B7
:1042F00000F031F9372000F02EF9072000F02BF9FB
:10430000102000F028F9032000F025F90E2000F01D
:1043100022F9092000F01FF9002000F01CF9E1202B
:1043200000F03AF8002000F016F90E2000F013F922
:10433000142000F010F9032000F00DF9112000F016
:104340000AF9072000F007F9312000F004F9C12034
:1043500000F001F9482000F0FEF8082000F0FBF81A
:104360000F2000F0F8F80C2000F0F5F8312000F0F4
:10437000F2F8362000F0EFF80F2000F0ECF81120F2
:1043800000F00AF8142001F0BFF9292000F004F829
:104390002C2000F001F810BDDFF8B815096831F4E1
:1043A0008051DFF8B0251160C0B2C109C9B2DFF891
:1043B000A425126861F38A22DFF898150A60DFF8F5
:1043C0009415096831F40071DFF888251160DFF871
:1043D0008415096851F40071DFF878251160C0B2C6
:1043E0008109C9B2DFF86C25126861F38A22DFF80F
:1043F00064150A60DFF85C15096831F40071DFF8B4
:1044000054251160DFF84C15096851F40071DFF88C
:1044100044251160C0B24109C9B2DFF838251268DD
:1044200061F38A22DFF82C150A60DFF82815096885
:1044300031F40071DFF81C251160DFF818150968E8
:1044400051F40071DFF80C251160C0B20109C9B246
:10445000DFF80025126861F38A22DFF8F8140A6099
:10446000DFF8F014096831F40071DFF8E824116016
:10447000DFF8E014096851F40071DFF8D824116006
:10448000C0B2C108C9B2DFF8CC24126861F38A2235
:10449000DFF8C0140A60DFF8BC14096831F4007159
:1044A000DFF8B0241160DFF8AC14096851F4007132
:1044B000DFF8A0241160C0B28108C9B2DFF89424EB
:1044C000126861F38A22DFF88C140A60DFF8841422
:1044D000096831F40071DFF87C241160DFF874148E
:1044E000096851F40071DFF86C241160C0B2410812
:1044F000C9B2DFF86024126861F38A22DFF854142D
:104500000A60DFF85014096831F40071DFF84424C0
:104510001160DFF84014096851F40071DFF83424A9
:104520001160C0B2DFF82C14096860F38A21DFF84B
:1045300024241160DFF81C14096831F40071DFF8DD
:1045400014241160DFF80C14096851F40071DFF8CD
:10455000042411607047DFF8FC13096851F480519E
:10456000DFF8F0231160C0B2C109C9B2DFF8E4235B
:10457000126861F38A22DFF8DC130A60DFF8D413D3
:10458000096831F40071DFF8CC231160DFF8C4133F
:10459000096851F40071DFF8BC231160C0B28109D1
:1045A000C9B2DFF8B023126861F38A22DFF8A413DE
:1045B0000A60DFF8A013096831F40071DFF8942372
:1045C0001160DFF89013096851F40071DFF884235B
:1045D0001160C0B24109C9B2DFF87823126861F3F3
:1045E0008A22DFF870130A60DFF86813096831F473
:1045F0000071DFF860231160DFF85813096851F487
:104600000071DFF850231160C0B20109C9B2DFF8B0
:104610004423126861F38A22DFF838130A60DFF856
:104620003413096831F40071DFF828231160DFF8D2
:104630002413096851F40071DFF818231160C0B227
:10464000C108C9B2DFF80C23126861F38A22DFF8CF
:1046500004130A60DFF8FC12096831F40071DFF816
:10466000F4221160DFF8EC12096851F40071DFF8F0
:10467000E4221160C0B28108C9B2DFF8D822126802
:1046800061F38A22DFF8CC120A60DFF8C8120968E9
:1046900031F40071DFF8BC221160DFF8B81209684C
:1046A00051F40071DFF8AC221160C0B24108C9B208
:1046B000DFF8A022126861F38A22DFF898120A60FC
:1046C000DFF89012096831F40071DFF88822116078
:1046D000DFF88012096851F40071DFF87822116068
:1046E000C0B2DFF87012096860F38A21DFF8642233
:1046F0001160DFF86012096831F40071DFF85422AC
:104700001160DFF85012096851F40071DFF844229B
:104710001160704710B50400200AC0B2FFF71BFFFC
:104720002000C0B2FFF717FF10BDF8B504000D0060
:1047300016001F002A20FFF72FFE200AC0B2FFF745
:104740000AFF2000C0B2FFF706FF280AC0B2FFF739
:1047500002FF2800C0B2FFF7FEFE2B20FFF71CFE71
:10476000300AC0B2FFF7F7FE3000C0B2FFF7F3FE29
:10477000380AC0B2FFF7EFFE3800C0B2FFF7EBFE19
:104780002C20FFF709FEF1BD2DE9F04182B00400B5
:104790000D0016001F00DDF82080CDF800803B00E2
:1047A0003200D2B22900200000F032F8BDE8F381D7
:1047B0002DE9F84304000D0016001F00DDF82080ED
:1047C0005FF000093078002820D0307880280EDA99
:1047D000CDF800803B00327829005FFA89F914EBAC
:1047E000C900FFF7D1FF761C19F10109EAE7CDF8FE
:1047F00000803B00320029005FFA89F914EBC90000
:1048000000F03CF8B61C19F10209DBE7BDE8F183C2
:104810002DE9F84F04000D0016001F00DDF8288078
:1048200015F10F032A00E11D2000FFF77EFF002095
:104830008146B9F1100F1FD2DFF82404F6B219EB4C
:10484000061111F800B000208246BAF1080F10D20C
:104850005FFA8BFB5FEA0B6003D53800FFF75AFF66
:1048600002E04046FFF756FF5FEA4B0B1AF1010AE0
:10487000EBE719F10109DCE7BDE8F18F2DE9F14F14
:104880000C0015001E000A9F14F10F03220000986F
:1048900010F10F010098FFF748FF00208246BAF19F
:1048A000400F3BD2DFF8BC03232101FB0A00007854
:1048B000297888422FD1DFF8AC03232101FB0A00BD
:1048C00040786978884226D100208046B8F1200FD0
:1048D00021D2DFF89003232101FB0A0018EB00002E
:1048E00090F803B000208146B9F1080F10D21FFAEA
:1048F0008BFB5FEA0B6003D53000FFF70BFF02E094
:104900003800FFF707FF5FEA4B0B19F10109EBE7EE
:1049100018F10108DAE71AF1010AC0E7BDE8F18FE2
:1049200070B50400EF23002240F23F110020FFF792
:10493000FCFE00200500F02D0BD200200600B6F58D
:10494000A07F04D22000FFF7E5FE761CF7E76D1C80
:10495000F1E770BD00F10F402DE9F44F8AB004007B
:104960000D009A46149E159F5FF000085FF0000945
:10497000002081460A985FFA89F919F8000000289A
:104980000CD00A985FFA89F919F8000001A95FFABA
:1049900089F909F8010019F10109EBE7202001A9C3
:1049A0005FFA89F909F8010019F10109BAF1000F5C
:1049B0000BD52D2001A95FFA89F909F8010019F139
:1049C00001095FF0FF3000FB0AFABAF10A0F0EDAB4
:1049D0001AF1300001A95FFA89F909F801000020F5
:1049E00001A95FFA89F919EB01014870E0E0BAF119
:1049F0000A0F1FDBBAF1640F1CDA0A209AFBF0F0F1
:104A0000303001A95FFA89F909F801000A209AFB00
:104A1000F0F100FB11A0303001A95FFA89F919EB20
:104A200001014870002001A95FFA89F919EB010121
:104A30008870BDE0BAF57A7F2BDA64209AFBF0F03B
:104A4000303001A95FFA89F909F801000A209AFBC0
:104A5000F0F00A2190FBF1F201FB1200303001A9C5
:104A60005FFA89F919EB010148700A209AFBF0F10D
:104A700000FB11A0303001A95FFA89F919EB01019F
:104A80008870002001A95FFA89F919EB0101C8704B
:104A90008EE042F2107082453BDA4FF47A709AFB56
:104AA000F0F0303001A95FFA89F909F801006420BB
:104AB0009AFBF0F00A2190FBF1F201FB120030307A
:104AC00001A95FFA89F919EB010148700A209AFBE4
:104AD000F0F00A2190FBF1F201FB1200303001A945
:104AE0005FFA89F919EB010188700A209AFBF0F14D
:104AF00000FB11A0303001A95FFA89F919EB01011F
:104B0000C870002001A95FFA89F919EB0101087149
:104B10004EE0DFF8AC0182454ADA42F210709AFBAF
:104B2000F0F0303001A95FFA89F909F801004FF47B
:104B30007A709AFBF0F00A2190FBF1F201FB12006F
:104B4000303001A95FFA89F919EB0101487064203E
:104B50009AFBF0F00A2190FBF1F201FB12003030D9
:104B600001A95FFA89F919EB010188700A209AFB03
:104B7000F0F00A2190FBF1F201FB1200303001A9A4
:104B80005FFA89F919EB0101C8700A209AFBF0F16C
:104B900000FB11A0303001A95FFA89F919EB01017E
:104BA0000871002001A95FFA89F919EB0101487128
:104BB0005FF0000B5FFA8BFBBBF1070F0CDA00977D
:104BC0003B00202229005FFA8BFB14EBCB00FFF7A0
:104BD000DBFD1BF1010BEDE70020814601A85FFA28
:104BE00089F919F80000002836D001A85FFA89F980
:104BF00019F80000802812DA0097330001A85FFA44
:104C000089F919F8002029005FFA88F814EBC80028
:104C1000FFF7BAFD19F1010918F1010811E0009739
:104C2000330001A85FFA89F919F8002029005FFA1A
:104C300088F814EBC800FFF721FE19F1020918F1FA
:104C4000020800973B00202229005FFA88F814EB45
:104C5000C800FFF799FDC1E70BB0BDE8F08F000079
:104C6000F404FF1FF40CFF1FF8B50400EF2300222B
:104C700040F23F110020FFF758FD00200500F02D05
:104C80001DDA00200600282E17DA00200700082F62
:104C900011DA282000FB0540305C802139410842B0
:104CA00003D00020FFF736FD03E04FF6FF70FFF75B
:104CB00031FD7F1CEBE7761CE5E76D1CDFE7F1BDFE
:104CC000A08601002DE9FF4F83B05FF000095FF07F
:104CD000000ABDF81400BDF80C10401A8346BDF858
:104CE0001800BDF81010401A0500BDF80C000700B0
:104CF000BDF810008046BBF1010F02DB01200190DE
:104D00000AE0BBF1000F02D10020019004E05FF047
:104D1000FF300190DBF1000B012D02DB0120009040
:104D200008E0002D02D10020009003E05FF0FF308A
:104D300000906D425D4501DA5E4600E02E000020E5
:104D40000400701CA4B2A04218DB414689B23800AE
:104D500080B200F016F81BEB090915EB0A0A4E4564
:104D600003DAB9EB06090198C719564504DABAEB1C
:104D7000060A009810EB0808641CE2E707B0BDE8DB
:104D8000F08F38B504000D00ADB22B00ADB22A0093
:104D9000A4B22100A4B22000FFF7C7FC4FF4784072
:104DA000FFF7B8FC31BDF8B504000D001600ADB238
:104DB0006B1CADB26A1EA4B2611CA4B2601EFFF7E8
:104DC000B4FC00200700FFB2092F05DAB6B23000AC
:104DD000FFF7A0FC7F1CF6E7F1BD50F8041B61B1A2
:104DE00050F8042BD30744BFA9F101039A180023FC
:104DF000091F42F8043BFAD1EFE77047010040F188
:104E00000780F446404200F003F851F0004160474B
:104E100009D0B0FA80F18840C91CC1F58461090548
:104E200001EBD02140057047F0B540F2FF7581EAF3
:104E3000030C0CF0004C15EA11541DBF15EA135772
:104E4000AC42AF42E5E0BC41C1F31301C3F313032D
:104E5000801A994143F4801304D2641E40004941F2
:104E600080185941C90241EA5051B1FBF3F603FBE6
:104E70001611A2FB0675D7EBC020A94102D2761EFF
:104E800080185941C90241EA5051B1FBF3FE03FBBE
:104E90001E11A2FB0E75D7EBC020A94103D2AEF1C3
:104EA000010E80185941890241EA9051760546EA7F
:104EB0008E2EB1FBF3F603FB1611A2FB0675D7EBA2
:104EC0008020A94102D2761E80185941C90241EAC8
:104ED00050514EEA060EB1FBF3F603FB1611A2FB8E
:104EE0000675D7EBC020A94102D2761E8018594121
:104EF000C90241EA5051B1FBF3F703FB1711A2FBC2
:104F00000735D3EBC020A94167F100070CBF004271
:104F100047F0010766F3D5274FEA1E31B80814F5AC
:104F2000806412DDBD0775F1004250EB0E5051EB6D
:104F3000045111F5801F5CBF41EA0C01F0BD4CF03B
:104F40007F6141F0E0410020F0BDBD076D0840EAFF
:104F50000E5041F48011D4F10104B4F120060ADAB4
:104F6000C4F120060200E04001FA06F3E1401843D4
:104F7000B24015430EE0342C13DCC6F1200445EAA0
:104F800040056D0820FA06F2154321FA06F0A1400B
:104F90000D43002175F1004250F1000051EB0C016E
:104FA000F0BD00205FEA0C01F0BDCFB992185B4163
:104FB000B3FA83F704BFB2FA82F6BF190B3FB7F119
:104FC00020062FBF02FA06F3BB40C7F1200622FAE3
:104FD00006F638BF3343BA401CB1E419641E33E708
:104FE0007F4231F00041B1FA81F404BFB0FA80F69B
:104FF000A4190B3CB4F120062FBF00FA06F1A14022
:10500000C4F1200620FA06F638BF3143A0403C1B0D
:105010001AE7AC421ABF05EA1357AF4212E050EA52
:1050200041061CBF52EA4306BFE750EA410730463B
:1050300061461CBF41EA0551F0BD52EA430C08BF6E
:10504000C143F0BD00204FF4001616EB410F98BF8E
:1050500016EB430F08BF16EB410F24BFC14305E019
:1050600016EB430F0CBF61464CEA0551F0BD000042
:10507000F446400D40EAC120490006D200F00EF887
:10508000004248BF6FF00040604700F007F84FF063
:10509000004188428CBF08464042604740F00040D3
:1050A000490DA1F58061491C05D4D1F11F0154BF00
:1050B000C840C01770474FF000007047B0B581EA94
:1050C000030C0CF0004C40F2FF7515EA11541DBFA3
:1050D00015EA1357AC42AF4239E0E41923EA4553CD
:1050E00043F48013C90241F0004141EA505EC70217
:1050F0001100A7FB020200284FF00000EEFB012088
:105100004FF00001E3FB072118BF42F001024018F5
:1051100000214941E3FB0E01A4F580640F0302D294
:1051200052004041494154F101046CDD470872F1DD
:10513000004250F1000051EB0451A1F580115CBF19
:1051400041EA0C01B0BD4CEA05510020B0BD05EAB2
:105150001357AC4214BFAF4241E050EA410E1CBFAE
:1051600052EA430E02E061460020B0BD24423C44B6
:105170001BD15FEA070EF6D0090302BF01460020EB
:10518000AEF1140EB1FA81F7AEEB070401FA07FE97
:105190000C37C7F1200100FA07F7C8404EEA000EAD
:1051A00023EA455343F48013A2E733F00043B3FAF4
:1051B00083F704BFB2FA82FE77440B3FE41BB7F1DA
:1051C000200E2FBF02FA0EF3BB40C7F1200E22FAC9
:1051D0000EFE38BF43EA0E03BA40641C82E750EA71
:1051E000410E14BF52EA430E6FF000014FF4001756
:1051F00017EB430F8ABF194617EB410FB5E74CEA8F
:1052000005510020B0BDD4F10104B4F120070FDA3C
:10521000C4F12007520828BF42F0010210FA07F536
:1052200001FA07F7E1BF2A43E0403843E1400FE0CD
:10523000352C98DCC7F1200452EA400220FA07F22C
:1052400018BF42F0010231FA07F0A1400A430021E1
:1052500072F1004250F1000051EB0C01B0BD0000B2
:1052600070B44FF0004591EA030C44BF6B4000F06E
:105270000FB900BF841A71EB030603D2001BB141C2
:10528000121973414FF4001C1CEB410F34BF7CEB2F
:10529000430443E00C0DA4EB1356352E50DC45EAD5
:1052A000C323DB0A45EAC121C912B6F120050DDD91
:1052B00063FA05F6EB4086EA0305124218BF45F093
:1052C0000105C01851F100010CD213E062FA06F595
:1052D000F2405540F3415A40B340F3405A408018E1
:1052E000594107D349085FEA30005FEA350528BF16
:1052F00045F0010501F58011420875F1004250F1B9
:10530000000041EB045170BC4FF4001C1CEB410F3A
:1053100038BF70470020090D090570471CEB410F8D
:1053200010D252EA43060BD0BCEB410F05D80C0D4E
:10533000AB43661E342EB5DD02E0AB438018594105
:1053400070BC704770BC7047002840F10980F4467B
:10535000404200F005F850F000406047002800BFD0
:105360000AD0B0FA80F18840D1F19D01C90502064A
:1053700072F1004241EB10207047000070B504004C
:105380000D006868A8606C60E86828612968686832
:1053900000F0CCF906005FF07E50296800F032FA88
:1053A000296900F0C3F9310000F0A0FAE860E8686C
:1053B00070BD00004100090E7F3915D4D1F11F01E5
:1053C00014D4400007D2C00140F00040C84048BF9C
:1053D0006FF000407047C00140F00040C8404CBF33
:1053E0004FF00040404270470020704700424FF0AD
:1053F000004058BFC043704730B40200FF24002073
:1054000000252B009BB289B28B420BD29BB29D5CD4
:10541000E4B2A54204D29BB29D5C2C001D00280082
:105420005B1CEFE7C0B230BC704710B40200012033
:1054300000242300DBB2C9B28B4202D250435B1C72
:10544000F8E710BC704730B40200002000252B00A4
:10545000DBB2C9B28B420ED200252C00E4B2082C7C
:1054600007DADBB29D5C254115F001052818641CA4
:10547000F4E75B1CECE730BC7047000070B44FF001
:10548000004591EA030F44BF6B40FFF7F3BE00BF36
:10549000841A71EB030604D26E40001BB14112194D
:1054A00073414FF4001C1CEB410F34BF7CEB4306EF
:1054B00084E00C0DA4EB1356362E7DDC012E43DC6C
:1054C00045EAC32343EA525312BFD20292025B0859
:1054D000240545EAC12141EA5051D2EBC02099414F
:1054E00025D407D1B0FA80F610FA06F164D0002076
:1054F000203608E0B1FA81F6B140C6F1200220FA68
:1055000002F21143B0404FEAF474B4EB465434F065
:1055100001064FEA74040AD8D6F50016760D04F099
:105520000044F04061FA06F25040F1404840C00AA1
:1055300040EA415021F0004128BF5FEA500550F198
:10554000000044EBD12137E045EAC323DB0A45EAFA
:10555000C121C90AB6F120050EDD42EA0242120C51
:10556000C5F1200603FA06F6EB4042EA06056D4255
:10557000984161F100010DE062FA06F5F2405540F4
:1055800063FA06FC82EA0C02F3405A406D429041F5
:1055900061EB030111F4801F05D1641E620502D086
:1055A0006D004041494121F48011430875F10043E9
:1055B00050F1000041EB045170BC70471CEB410FEF
:1055C00015D223F0004352EA43060BD04FEA4C0CAD
:1055D000BCEB410F04D80C0D661E342EB7DDEBE793
:1055E000801A994150EA410608BF0021E4E708BF4C
:1055F0001CEB430F28BF6FF00001DDE7F8B5040096
:105600000D0016001F00EDB2202D02D2FFB2022FB6
:1056100003D32421384800F0ABF93848E4B250F8FD
:105620002400EDB2F6B256F4807140F82510F00770
:1056300005D5F6B2032E02D0F6B2132E0DD13048A6
:10564000E4B250F8240040690121A94088432C4964
:10565000E4B251F8241048612AE02948E4B250F835
:10566000240040690121A94008432549E4B251F8CA
:1056700024104861FFB2012F0DD12148E4B250F847
:10568000240000680121A94008431D49E4B251F8F3
:10569000241008600CE01A48E4B250F824000068B6
:1056A0000121A94088431649E4B251F8241008604A
:1056B000F1BD30B4C0B2420910F01F03114C246890
:1056C0004FF4007595402C430E4D2C6031F4E06191
:1056D0000A4CD2B254F82240DBB254F8234014F4FE
:1056E000E0642143054CD2B254F82240DBB244F8C6
:1056F000231030BC704700008CA400003C04FF1F46
:105700002804FF1F3880044000231900814209D279
:10571000054B1B681A00002A02D000BF521EFAE790
:10572000491CF3E770470000AC6DFF1FFF2212EA2F
:10573000D05C1DBF12EAD153944593422BE09C44A8
:10574000D30780EA01021A4043EA002043EA01211C
:10575000A1FB0030410038BF40007CF17F010BDB32
:10576000FE294ADA5B0842EAC15153EA006373F149
:10577000004C51EB10207047D1F1080CDCF12001F6
:105780002FDB5B0810FA01F10B4373F1004120FAA3
:105790000CF05041704794451CBF02EAD15393422C
:1057A00080EA010202F000421DD0400019D04900F9
:1057B00017D05BB9634514D00902B1FA81F399405F
:1057C000BCEB030CC00140F00040C1E70002B0FA9E
:1057D00080FC10FA0CF0B3EB0C0CC90141F0004155
:1057E000B6E71000704740000AD0490008D010F119
:1057F000807F94BF11F1807F02E042F0FF4070474C
:10580000D043704790EA010F44BF81F0004100F09F
:1058100075B800BF431A4FF000423EBF5340C01A54
:10582000C91800BFD3095FEAD05C13EB400F34BF47
:10583000B3EB410F40E07CEBD1530CD342EA0121A2
:1058400022D8D1EB402009D3400A28BF5FEA50019B
:1058500040EBCC507047401A15D04002B0FA80F2AD
:10586000521C9040400A4FEA3C23B3EB026384BFD2
:1058700000EB730007E040F400001A16DB07C2F1EA
:105880000102D04018437047182BFCDC31FA03F2B8
:1058900002FA03F3591A38BF42F00102D2EB40205A
:1058A0003CBF4000ACF1010C5FEACC5CC20572F178
:1058B00000414CEB5020704713EB400F0FD24B00D0
:1058C00009D0ACEBD153022B03DB4902172BDDDDF2
:1058D00070479143401A4300D5D10020704713EB25
:1058E000410FD0D36FF000007047000090EA010F25
:1058F00044BF81F00041FFF78DBF00BF421A3CBF9B
:10590000801A89184FF0004CC0F3C752FF2A24D0E8
:10591000C1F3C75313B3D21AD2F1190327DD4CEAEE
:1059200001214CFA03F321EA0303D140C20D4CEAF2
:105930000020401834BF20EA0C004CEA5000D20589
:1059400053EA006373EB0C0C52EB1020420012F18F
:10595000807F38BF7047C00DC0057047490212BF35
:105960009A4200EB5120F8E7D2F11703D9D57047DE
:1059700038B504000D002A002100024800F0A1FA09
:10598000F9E700BFA8A2000070B504000D001600E2
:105990003068012802D0022805D00AE02000C0B2F9
:1059A0007168884705E0B0680470B068401CB0605A
:1059B000FFE72868401C286070BD2DE9F04704000F
:1059C0005FF0000A5046A1465FF0000A89F800A087
:1059D00019F10109002A1FD0D1F800A05546002D69
:1059E00005D15FF0300A89F800A0401C38E0002D96
:1059F00036D095FBF3FA564603FB165A5746002F4E
:105A000002D5FF43313700E03037350089F80070A8
:105A100019F10109401CEAE7D1F800A0D446BCF115
:105A2000000F05D15FF0300A89F800A0401C17E094
:105A3000BCF1000F14D0BCFBF3FAD64603FB1ECA20
:105A4000D046B8F10A0F02D218F1300801E018F17F
:105A50003708F44689F8008019F10109401CE7E78E
:105A6000BDE8F0872DE9F04104000D0016001F008D
:105A7000A046A84507DA3A0031003020FFF784FF3E
:105A800018F10108F5E7BDE8F0812DE9F0410400C7
:105A90000D0016001F00A046A84507DA3A003100A5
:105AA0002020FFF771FF18F10108F5E7BDE8F0814C
:105AB0002DE9F24F92B004001500002000901298DA
:105AC00083469BF8000001900198002800F0F581C2
:105AD0000198252813D001980A2805D0220000A992
:105AE0000198FFF751FF09E0220000A90D20FFF700
:105AF0004BFF220000A90A20FFF746FFDAE1002051
:105B00008146002004900498002822D11BF1010B4B
:105B10009BF8000020280ED0232812D02B2807D075
:105B20002D2802D0302809D00EE059F00109EAE70B
:105B300059F00209E7E759F00409E4E759F00809C8
:105B4000E1E759F01009DEE7BBF1010B01200490F9
:105B5000D9E700208246002004900498002814D140
:105B60001BF1010B9BF800000190019830380928C7
:105B700006D80A20019900FB0A10B0F1300AECE7C0
:105B8000BBF1010B01200490E7E71BF1010B9BF82F
:105B900000002E2811D100200490049800280ED176
:105BA0001BF1010B9BF800003038092800D8F4E7FE
:105BB000BBF1010B01200490EFE7BBF1010B1BF1DE
:105BC000010B9BF800004C2806D0682802D06C28F6
:105BD00001D002E003E002E001E0BBF1010B1BF1A8
:105BE000010B9BF8000001900198582875D062289D
:105BF00000F0D580632800F01D81642813D0692847
:105C000011D06E2800F04A816F2800F0BD80702806
:105C100000F0D080732800F01781752800F0D5803F
:105C200078285AD041E128682D1D06900A230122C8
:105C300006A909A8FFF7C1FE070009A83818060041
:105C40000698002803D52D2003907F1C0FE05FEA03
:105C5000897003D52B2003907F1C08E05FEA497010
:105C600003D5202003907F1C01E00020039000203A
:105C700005905FEA097011D50398002804D022002E
:105C800000A90398FFF780FE01200590230000AAD9
:105C900051463800FFF7E6FE574612E05FEAC9704A
:105CA0000FD4230000AA51463800FFF7EEFE0398F8
:105CB000002804D0220000A90398FFF765FE012008
:105CC00005900598002807D10398002804D02200E9
:105CD00000A90398FFF758FE98E028682D1D029050
:105CE0001023002202A909A8FFF767FE070009A8F0
